{
  "contractName": "VintageExplorer",
  "abi": [
    {
      "constant": true,
      "inputs": [],
      "name": "numWineProducers",
      "outputs": [
        {
          "name": "",
          "type": "uint256"
        }
      ],
      "payable": false,
      "stateMutability": "view",
      "type": "function"
    },
    {
      "constant": true,
      "inputs": [],
      "name": "stopped",
      "outputs": [
        {
          "name": "",
          "type": "bool"
        }
      ],
      "payable": false,
      "stateMutability": "view",
      "type": "function"
    },
    {
      "constant": true,
      "inputs": [],
      "name": "owner",
      "outputs": [
        {
          "name": "",
          "type": "address"
        }
      ],
      "payable": false,
      "stateMutability": "view",
      "type": "function"
    },
    {
      "inputs": [],
      "payable": false,
      "stateMutability": "nonpayable",
      "type": "constructor"
    },
    {
      "anonymous": false,
      "inputs": [
        {
          "indexed": false,
          "name": "name",
          "type": "string"
        },
        {
          "indexed": false,
          "name": "wineProducer",
          "type": "address"
        },
        {
          "indexed": false,
          "name": "wineProducerId",
          "type": "uint256"
        }
      ],
      "name": "LogWineProducerAdded",
      "type": "event"
    },
    {
      "anonymous": false,
      "inputs": [
        {
          "indexed": false,
          "name": "name",
          "type": "string"
        },
        {
          "indexed": false,
          "name": "wineProducer",
          "type": "address"
        },
        {
          "indexed": false,
          "name": "sku",
          "type": "string"
        },
        {
          "indexed": false,
          "name": "wineId",
          "type": "uint256"
        }
      ],
      "name": "LogWineAdded",
      "type": "event"
    },
    {
      "anonymous": false,
      "inputs": [
        {
          "indexed": false,
          "name": "name",
          "type": "string"
        },
        {
          "indexed": false,
          "name": "wineProducer",
          "type": "address"
        },
        {
          "indexed": false,
          "name": "wineId",
          "type": "uint256"
        }
      ],
      "name": "LogWineReOpened",
      "type": "event"
    },
    {
      "anonymous": false,
      "inputs": [
        {
          "indexed": false,
          "name": "name",
          "type": "string"
        },
        {
          "indexed": false,
          "name": "wineProducer",
          "type": "address"
        },
        {
          "indexed": false,
          "name": "wineId",
          "type": "uint256"
        }
      ],
      "name": "LogWineClosed",
      "type": "event"
    },
    {
      "anonymous": false,
      "inputs": [
        {
          "indexed": false,
          "name": "buyer",
          "type": "address"
        },
        {
          "indexed": false,
          "name": "wineProducerId",
          "type": "uint256"
        },
        {
          "indexed": false,
          "name": "wineId",
          "type": "uint256"
        },
        {
          "indexed": false,
          "name": "numWInes",
          "type": "uint256"
        }
      ],
      "name": "LogBuyWine",
      "type": "event"
    },
    {
      "anonymous": false,
      "inputs": [
        {
          "indexed": false,
          "name": "buyer",
          "type": "address"
        },
        {
          "indexed": false,
          "name": "wineProducerId",
          "type": "uint256"
        },
        {
          "indexed": false,
          "name": "wineId",
          "type": "uint256"
        },
        {
          "indexed": false,
          "name": "amountToRefund",
          "type": "uint256"
        }
      ],
      "name": "LogGetRefund",
      "type": "event"
    },
    {
      "constant": false,
      "inputs": [
        {
          "name": "_a",
          "type": "address"
        }
      ],
      "name": "addAdmin",
      "outputs": [
        {
          "name": "",
          "type": "bool"
        }
      ],
      "payable": false,
      "stateMutability": "nonpayable",
      "type": "function"
    },
    {
      "constant": false,
      "inputs": [],
      "name": "stopForEmergency",
      "outputs": [
        {
          "name": "",
          "type": "bool"
        }
      ],
      "payable": false,
      "stateMutability": "nonpayable",
      "type": "function"
    },
    {
      "constant": false,
      "inputs": [],
      "name": "turnOffEmergency",
      "outputs": [
        {
          "name": "",
          "type": "bool"
        }
      ],
      "payable": false,
      "stateMutability": "nonpayable",
      "type": "function"
    },
    {
      "constant": false,
      "inputs": [],
      "name": "kill",
      "outputs": [],
      "payable": false,
      "stateMutability": "nonpayable",
      "type": "function"
    },
    {
      "constant": false,
      "inputs": [
        {
          "name": "_newBackend",
          "type": "address"
        }
      ],
      "name": "changeBackend",
      "outputs": [
        {
          "name": "",
          "type": "bool"
        }
      ],
      "payable": false,
      "stateMutability": "nonpayable",
      "type": "function"
    },
    {
      "constant": true,
      "inputs": [],
      "name": "checkIfAdmin",
      "outputs": [
        {
          "name": "",
          "type": "bool"
        }
      ],
      "payable": false,
      "stateMutability": "view",
      "type": "function"
    },
    {
      "constant": true,
      "inputs": [],
      "name": "checkIfWineProducer",
      "outputs": [
        {
          "name": "",
          "type": "bool"
        }
      ],
      "payable": false,
      "stateMutability": "view",
      "type": "function"
    },
    {
      "constant": false,
      "inputs": [
        {
          "name": "_name",
          "type": "string"
        },
        {
          "name": "_website",
          "type": "string"
        },
        {
          "name": "_wineProducer",
          "type": "address"
        }
      ],
      "name": "addWineProducer",
      "outputs": [
        {
          "name": "",
          "type": "uint256"
        }
      ],
      "payable": false,
      "stateMutability": "nonpayable",
      "type": "function"
    },
    {
      "constant": false,
      "inputs": [
        {
          "name": "_wineProducerId",
          "type": "uint256"
        },
        {
          "name": "_name",
          "type": "string"
        },
        {
          "name": "_description",
          "type": "string"
        },
        {
          "name": "_sku",
          "type": "string"
        },
        {
          "name": "_vintage",
          "type": "uint256"
        },
        {
          "name": "_totalSupply",
          "type": "uint256"
        },
        {
          "name": "_priceWei",
          "type": "uint256"
        }
      ],
      "name": "addWine",
      "outputs": [
        {
          "name": "",
          "type": "uint256"
        }
      ],
      "payable": false,
      "stateMutability": "nonpayable",
      "type": "function"
    },
    {
      "constant": true,
      "inputs": [
        {
          "name": "_wineProducerId",
          "type": "uint256"
        }
      ],
      "name": "readWineProducerById",
      "outputs": [
        {
          "name": "name",
          "type": "string"
        },
        {
          "name": "website",
          "type": "string"
        },
        {
          "name": "numWines",
          "type": "uint256"
        }
      ],
      "payable": false,
      "stateMutability": "view",
      "type": "function"
    },
    {
      "constant": true,
      "inputs": [
        {
          "name": "_wineProducer",
          "type": "address"
        }
      ],
      "name": "readWineProducerByAccount",
      "outputs": [
        {
          "name": "wineProducerId",
          "type": "uint256"
        },
        {
          "name": "name",
          "type": "string"
        },
        {
          "name": "website",
          "type": "string"
        },
        {
          "name": "numWines",
          "type": "uint256"
        }
      ],
      "payable": false,
      "stateMutability": "view",
      "type": "function"
    },
    {
      "constant": true,
      "inputs": [
        {
          "name": "_wineProducerId",
          "type": "uint256"
        },
        {
          "name": "_wineId",
          "type": "uint256"
        }
      ],
      "name": "readWineDescription",
      "outputs": [
        {
          "name": "name",
          "type": "string"
        },
        {
          "name": "description",
          "type": "string"
        },
        {
          "name": "sku",
          "type": "string"
        },
        {
          "name": "vintage",
          "type": "uint256"
        }
      ],
      "payable": false,
      "stateMutability": "view",
      "type": "function"
    },
    {
      "constant": true,
      "inputs": [
        {
          "name": "_wineProducerId",
          "type": "uint256"
        },
        {
          "name": "_wineId",
          "type": "uint256"
        }
      ],
      "name": "readWineSalesRelated",
      "outputs": [
        {
          "name": "name",
          "type": "string"
        },
        {
          "name": "totalSupply",
          "type": "uint256"
        },
        {
          "name": "price",
          "type": "uint256"
        },
        {
          "name": "totalSales",
          "type": "uint256"
        }
      ],
      "payable": false,
      "stateMutability": "view",
      "type": "function"
    },
    {
      "constant": true,
      "inputs": [
        {
          "name": "_wineProducerId",
          "type": "uint256"
        },
        {
          "name": "_wineId",
          "type": "uint256"
        }
      ],
      "name": "checkIfWineIsOwned",
      "outputs": [
        {
          "name": "name",
          "type": "string"
        },
        {
          "name": "totalAmountOwned",
          "type": "uint256"
        }
      ],
      "payable": false,
      "stateMutability": "view",
      "type": "function"
    },
    {
      "constant": false,
      "inputs": [
        {
          "name": "_wineProducerId",
          "type": "uint256"
        },
        {
          "name": "_wineId",
          "type": "uint256"
        },
        {
          "name": "numberOfPurchasingWines",
          "type": "uint256"
        }
      ],
      "name": "buyWine",
      "outputs": [],
      "payable": true,
      "stateMutability": "payable",
      "type": "function"
    },
    {
      "constant": false,
      "inputs": [
        {
          "name": "_wineProducerId",
          "type": "uint256"
        },
        {
          "name": "_wineId",
          "type": "uint256"
        }
      ],
      "name": "getRefund",
      "outputs": [
        {
          "name": "",
          "type": "uint256"
        }
      ],
      "payable": false,
      "stateMutability": "nonpayable",
      "type": "function"
    },
    {
      "constant": true,
      "inputs": [
        {
          "name": "_wineProducerId",
          "type": "uint256"
        },
        {
          "name": "_wineId",
          "type": "uint256"
        }
      ],
      "name": "getOwnersNumberOfWines",
      "outputs": [
        {
          "name": "purchasedWines",
          "type": "uint256"
        }
      ],
      "payable": false,
      "stateMutability": "view",
      "type": "function"
    }
  ],
  "bytecode": "0x608060405260008060146101000a81548160ff021916908315150217905550600160035534801561002f57600080fd5b50336000806101000a81548173ffffffffffffffffffffffffffffffffffffffff021916908373ffffffffffffffffffffffffffffffffffffffff1602179055506001600560003373ffffffffffffffffffffffffffffffffffffffff1673ffffffffffffffffffffffffffffffffffffffff16815260200190815260200160002060006101000a81548160ff0219169083151502179055506137dc806100d76000396000f3fe60806040526004361061011f5760003560e01c80638f487cf2116100a0578063e84a241d11610064578063e84a241d146109ae578063eaecfca714610a81578063ed00e65314610aea578063f0e268eb14610b19578063f3597bd014610c405761011f565b80638f487cf21461069557806391c08558146106c457806391e890d6146106f3578063b441a216146107b8578063bc7be853146108115761011f565b806370480275116100e7578063704802751461050b57806370e82eb21461057457806375f12b21146105b657806385fa74bc146105e55780638da5cb5b1461063e5761011f565b80630234b3c714610124578063230a37041461015357806337c7df5c1461017e57806341c0e1b5146103b05780636a30f75e146103c7575b600080fd5b34801561013057600080fd5b50610139610dd3565b604051808215151515815260200191505060405180910390f35b34801561015f57600080fd5b50610168610eb9565b6040518082815260200191505060405180910390f35b34801561018a57600080fd5b5061039a600480360360e08110156101a157600080fd5b8101908080359060200190929190803590602001906401000000008111156101c857600080fd5b8201836020820111156101da57600080fd5b803590602001918460018302840111640100000000831117156101fc57600080fd5b91908080601f016020809104026020016040519081016040528093929190818152602001838380828437600081840152601f19601f8201169050808301925050505050505091929192908035906020019064010000000081111561025f57600080fd5b82018360208201111561027157600080fd5b8035906020019184600183028401116401000000008311171561029357600080fd5b91908080601f016020809104026020016040519081016040528093929190818152602001838380828437600081840152601f19601f820116905080830192505050505050509192919290803590602001906401000000008111156102f657600080fd5b82018360208201111561030857600080fd5b8035906020019184600183028401116401000000008311171561032a57600080fd5b91908080601f016020809104026020016040519081016040528093929190818152602001838380828437600081840152601f19601f820116905080830192505050505050509192919290803590602001909291908035906020019092919080359060200190929190505050610ebf565b6040518082815260200191505060405180910390f35b3480156103bc57600080fd5b506103c561142b565b005b3480156103d357600080fd5b50610416600480360360208110156103ea57600080fd5b81019080803573ffffffffffffffffffffffffffffffffffffffff169060200190929190505050611540565b604051808581526020018060200180602001848152602001838103835286818151815260200191508051906020019080838360005b8381101561046657808201518184015260208101905061044b565b50505050905090810190601f1680156104935780820380516001836020036101000a031916815260200191505b50838103825285818151815260200191508051906020019080838360005b838110156104cc5780820151818401526020810190506104b1565b50505050905090810190601f1680156104f95780820380516001836020036101000a031916815260200191505b50965050505050505060405180910390f35b34801561051757600080fd5b5061055a6004803603602081101561052e57600080fd5b81019080803573ffffffffffffffffffffffffffffffffffffffff1690602001909291905050506117ce565b604051808215151515815260200191505060405180910390f35b6105b46004803603606081101561058a57600080fd5b81019080803590602001909291908035906020019092919080359060200190929190505050611911565b005b3480156105c257600080fd5b506105cb611ded565b604051808215151515815260200191505060405180910390f35b3480156105f157600080fd5b506106286004803603604081101561060857600080fd5b810190808035906020019092919080359060200190929190505050611e00565b6040518082815260200191505060405180910390f35b34801561064a57600080fd5b50610653612223565b604051808273ffffffffffffffffffffffffffffffffffffffff1673ffffffffffffffffffffffffffffffffffffffff16815260200191505060405180910390f35b3480156106a157600080fd5b506106aa612248565b604051808215151515815260200191505060405180910390f35b3480156106d057600080fd5b506106d961232d565b604051808215151515815260200191505060405180910390f35b3480156106ff57600080fd5b506107366004803603604081101561071657600080fd5b810190808035906020019092919080359060200190929190505050612381565b6040518080602001838152602001828103825284818151815260200191508051906020019080838360005b8381101561077c578082015181840152602081019050610761565b50505050905090810190601f1680156107a95780820380516001836020036101000a031916815260200191505b50935050505060405180910390f35b3480156107c457600080fd5b506107fb600480360360408110156107db57600080fd5b810190808035906020019092919080359060200190929190505050612610565b6040518082815260200191505060405180910390f35b34801561081d57600080fd5b506108546004803603604081101561083457600080fd5b8101908080359060200190929190803590602001909291905050506127d4565b60405180806020018060200180602001858152602001848103845288818151815260200191508051906020019080838360005b838110156108a2578082015181840152602081019050610887565b50505050905090810190601f1680156108cf5780820380516001836020036101000a031916815260200191505b50848103835287818151815260200191508051906020019080838360005b838110156109085780820151818401526020810190506108ed565b50505050905090810190601f1680156109355780820380516001836020036101000a031916815260200191505b50848103825286818151815260200191508051906020019080838360005b8381101561096e578082015181840152602081019050610953565b50505050905090810190601f16801561099b5780820380516001836020036101000a031916815260200191505b5097505050505050505060405180910390f35b3480156109ba57600080fd5b506109f1600480360360408110156109d157600080fd5b810190808035906020019092919080359060200190929190505050612bbb565b6040518080602001858152602001848152602001838152602001828103825286818151815260200191508051906020019080838360005b83811015610a43578082015181840152602081019050610a28565b50505050905090810190601f168015610a705780820380516001836020036101000a031916815260200191505b509550505050505060405180910390f35b348015610a8d57600080fd5b50610ad060048036036020811015610aa457600080fd5b81019080803573ffffffffffffffffffffffffffffffffffffffff169060200190929190505050612e6c565b604051808215151515815260200191505060405180910390f35b348015610af657600080fd5b50610aff61307a565b604051808215151515815260200191505060405180910390f35b348015610b2557600080fd5b50610b5260048036036020811015610b3c57600080fd5b81019080803590602001909291905050506130ce565b604051808060200180602001848152602001838103835286818151815260200191508051906020019080838360005b83811015610b9c578082015181840152602081019050610b81565b50505050905090810190601f168015610bc95780820380516001836020036101000a031916815260200191505b50838103825285818151815260200191508051906020019080838360005b83811015610c02578082015181840152602081019050610be7565b50505050905090810190601f168015610c2f5780820380516001836020036101000a031916815260200191505b509550505050505060405180910390f35b348015610c4c57600080fd5b50610dbd60048036036060811015610c6357600080fd5b8101908080359060200190640100000000811115610c8057600080fd5b820183602082011115610c9257600080fd5b80359060200191846001830284011164010000000083111715610cb457600080fd5b91908080601f016020809104026020016040519081016040528093929190818152602001838380828437600081840152601f19601f82011690508083019250505050505050919291929080359060200190640100000000811115610d1757600080fd5b820183602082011115610d2957600080fd5b80359060200191846001830284011164010000000083111715610d4b57600080fd5b91908080601f016020809104026020016040519081016040528093929190818152602001838380828437600081840152601f19601f820116905080830192505050505050509192919290803573ffffffffffffffffffffffffffffffffffffffff16906020019092919050505061325b565b6040518082815260200191505060405180910390f35b60008060009054906101000a900473ffffffffffffffffffffffffffffffffffffffff1673ffffffffffffffffffffffffffffffffffffffff163373ffffffffffffffffffffffffffffffffffffffff1614610e97576040517f08c379a00000000000000000000000000000000000000000000000000000000081526004018080602001828103825260178152602001807f6d73672e73656e646572206973206e6f74206f776e657200000000000000000081525060200191505060405180910390fd5b6001600060146101000a81548160ff0219169083151502179055506001905090565b60045481565b60008060149054906101000a900460ff1615610eda57600080fd5b60011515600760003373ffffffffffffffffffffffffffffffffffffffff1673ffffffffffffffffffffffffffffffffffffffff16815260200190815260200160002060009054906101000a900460ff16151514610fa0576040517f08c379a000000000000000000000000000000000000000000000000000000000815260040180806020018281038252601c8152602001807f77696e652070726f647563657220646f6573206e6f742065786973740000000081525060200191505060405180910390fd5b6000600860003373ffffffffffffffffffffffffffffffffffffffff1673ffffffffffffffffffffffffffffffffffffffff1681526020019081526020016000205490506006600082815260200190815260200160002060050160009054906101000a900460ff1661107a576040517f08c379a000000000000000000000000000000000000000000000000000000000815260040180806020018281038252601c8152602001807f77696e652070726f647563657220646f6573206e6f742065786973740000000081525060200191505060405180910390fd5b3373ffffffffffffffffffffffffffffffffffffffff166006600083815260200190815260200160002060020160009054906101000a900473ffffffffffffffffffffffffffffffffffffffff1673ffffffffffffffffffffffffffffffffffffffff1614611134576040517f08c379a00000000000000000000000000000000000000000000000000000000081526004018080602001828103825260248152602001806137446024913960400191505060405180910390fd5b6000600660008b815260200190815260200160002060030154905060008110156111a9576040517f08c379a000000000000000000000000000000000000000000000000000000000815260040180806020018281038252602781526020018061378a6027913960400191505060405180910390fd5b6040518061010001604052808a81526020018981526020018881526020018781526020018681526020018581526020016000815260200160011515815250600660008c81526020019081526020016000206004016000838152602001908152602001600020600082015181600001908051906020019061122a92919061369e565b50602082015181600101908051906020019061124792919061369e565b50604082015181600201908051906020019061126492919061369e565b50606082015181600301556080820151816004015560a0820151816006015560c0820151816007015560e08201518160080160006101000a81548160ff0219169083151502179055509050507f070aa1bb7e0e9a57005aa19310dc9c99e1fd3c956b5fdb1ceb59038ea442faf98933898460405180806020018573ffffffffffffffffffffffffffffffffffffffff1673ffffffffffffffffffffffffffffffffffffffff16815260200180602001848152602001838103835287818151815260200191508051906020019080838360005b83811015611351578082015181840152602081019050611336565b50505050905090810190601f16801561137e5780820380516001836020036101000a031916815260200191505b50838103825285818151815260200191508051906020019080838360005b838110156113b757808201518184015260208101905061139c565b50505050905090810190601f1680156113e45780820380516001836020036101000a031916815260200191505b50965050505050505060405180910390a1600660008b8152602001908152602001600020600301600081548092919060010191905055508092505050979650505050505050565b6000809054906101000a900473ffffffffffffffffffffffffffffffffffffffff1673ffffffffffffffffffffffffffffffffffffffff163373ffffffffffffffffffffffffffffffffffffffff16146114ed576040517f08c379a00000000000000000000000000000000000000000000000000000000081526004018080602001828103825260178152602001807f6d73672e73656e646572206973206e6f74206f776e657200000000000000000081525060200191505060405180910390fd5b600060149054906101000a900460ff1661150657600080fd5b6000809054906101000a900473ffffffffffffffffffffffffffffffffffffffff1673ffffffffffffffffffffffffffffffffffffffff16ff5b60006060806000600860008673ffffffffffffffffffffffffffffffffffffffff1673ffffffffffffffffffffffffffffffffffffffff1681526020019081526020016000205460066000600860008973ffffffffffffffffffffffffffffffffffffffff1673ffffffffffffffffffffffffffffffffffffffff16815260200190815260200160002054815260200190815260200160002060000160066000600860008a73ffffffffffffffffffffffffffffffffffffffff1673ffffffffffffffffffffffffffffffffffffffff16815260200190815260200160002054815260200190815260200160002060010160066000600860008b73ffffffffffffffffffffffffffffffffffffffff1673ffffffffffffffffffffffffffffffffffffffff16815260200190815260200160002054815260200190815260200160002060030154828054600181600116156101000203166002900480601f01602080910402602001604051908101604052809291908181526020018280546001816001161561010002031660029004801561171c5780601f106116f15761010080835404028352916020019161171c565b820191906000526020600020905b8154815290600101906020018083116116ff57829003601f168201915b50505050509250818054600181600116156101000203166002900480601f0160208091040260200160405190810160405280929190818152602001828054600181600116156101000203166002900480156117b85780601f1061178d576101008083540402835291602001916117b8565b820191906000526020600020905b81548152906001019060200180831161179b57829003601f168201915b5050505050915093509350935093509193509193565b600060011515600560003373ffffffffffffffffffffffffffffffffffffffff1673ffffffffffffffffffffffffffffffffffffffff16815260200190815260200160002060009054906101000a900460ff16151514611896576040517f08c379a00000000000000000000000000000000000000000000000000000000081526004018080602001828103825260178152602001807f6d73672e73656e646572206973206e6f742061646d696e00000000000000000081525060200191505060405180910390fd5b600060149054906101000a900460ff16156118b057600080fd5b6001600560008473ffffffffffffffffffffffffffffffffffffffff1673ffffffffffffffffffffffffffffffffffffffff16815260200190815260200160002060006101000a81548160ff02191690831515021790555060019050919050565b600060149054906101000a900460ff161561192b57600080fd5b8282600115156006600084815260200190815260200160002060050160009054906101000a900460ff161515146119ca576040517f08c379a000000000000000000000000000000000000000000000000000000000815260040180806020018281038252601c8152602001807f77696e652070726f647563657220646f6573206e6f742065786973740000000081525060200191505060405180910390fd5b6001151560066000848152602001908152602001600020600401600083815260200190815260200160002060080160009054906101000a900460ff16151514611a7b576040517f08c379a00000000000000000000000000000000000000000000000000000000081526004018080602001828103825260138152602001807f77696e6520646f6573206e6f742065786973740000000000000000000000000081525060200191505060405180910390fd5b600060035460066000888152602001908152602001600020600401600087815260200190815260200160002060060154029050838102341015611b09576040517f08c379a00000000000000000000000000000000000000000000000000000000081526004018080602001828103825260228152602001806137686022913960400191505060405180910390fd5b83600660008881526020019081526020016000206004016000878152602001908152602001600020600401541015611ba9576040517f08c379a00000000000000000000000000000000000000000000000000000000081526004018080602001828103825260158152602001807f4e6f7420656e6f7567682077696e6573206c656674000000000000000000000081525060200191505060405180910390fd5b8360066000888152602001908152602001600020600401600087815260200190815260200160002060050160003373ffffffffffffffffffffffffffffffffffffffff1673ffffffffffffffffffffffffffffffffffffffff16815260200190815260200160002060008282540192505081905550836006600088815260200190815260200160002060040160008781526020019081526020016000206007016000828254019250508190555083600660008881526020019081526020016000206004016000878152602001908152602001600020600401600082825403925050819055507f5c5c2946757aaf59d0000ba51c306e71293522310ec8a9f9ae431ecaebf57cca33878787604051808573ffffffffffffffffffffffffffffffffffffffff1673ffffffffffffffffffffffffffffffffffffffff16815260200184815260200183815260200182815260200194505050505060405180910390a1600084820234031115611de55760008485830202340390507f3790b07ee11214e4d6cc672680fe583532064e0ee21446cbf0af0c3fe640eee133888884604051808573ffffffffffffffffffffffffffffffffffffffff1673ffffffffffffffffffffffffffffffffffffffff16815260200184815260200183815260200182815260200194505050505060405180910390a13373ffffffffffffffffffffffffffffffffffffffff166108fc829081150290604051600060405180830381858888f19350505050158015611de2573d6000803e3d6000fd5b50505b505050505050565b600060149054906101000a900460ff1681565b60008282600115156006600084815260200190815260200160002060050160009054906101000a900460ff16151514611ea1576040517f08c379a000000000000000000000000000000000000000000000000000000000815260040180806020018281038252601c8152602001807f77696e652070726f647563657220646f6573206e6f742065786973740000000081525060200191505060405180910390fd5b6001151560066000848152602001908152602001600020600401600083815260200190815260200160002060080160009054906101000a900460ff16151514611f52576040517f08c379a00000000000000000000000000000000000000000000000000000000081526004018080602001828103825260138152602001807f77696e6520646f6573206e6f742065786973740000000000000000000000000081525060200191505060405180910390fd5b600060066000878152602001908152602001600020600401600086815260200190815260200160002060050160003373ffffffffffffffffffffffffffffffffffffffff1673ffffffffffffffffffffffffffffffffffffffff16815260200190815260200160002054905060006003546006600089815260200190815260200160002060040160008881526020019081526020016000206006015402905060008211612067576040517f08c379a00000000000000000000000000000000000000000000000000000000081526004018080602001828103825260108152602001807f6e6f7420656e6f7567682077696e65730000000000000000000000000000000081525060200191505060405180910390fd5b6000828202905082600660008a8152602001908152602001600020600401600089815260200190815260200160002060050160003373ffffffffffffffffffffffffffffffffffffffff1673ffffffffffffffffffffffffffffffffffffffff1681526020019081526020016000206000828254039250508190555082600660008a815260200190815260200160002060040160008981526020019081526020016000206007016000828254039250508190555082600660008a81526020019081526020016000206004016000898152602001908152602001600020600401600082825401925050819055507f3790b07ee11214e4d6cc672680fe583532064e0ee21446cbf0af0c3fe640eee133898984604051808573ffffffffffffffffffffffffffffffffffffffff1673ffffffffffffffffffffffffffffffffffffffff16815260200184815260200183815260200182815260200194505050505060405180910390a13373ffffffffffffffffffffffffffffffffffffffff166108fc829081150290604051600060405180830381858888f19350505050158015612214573d6000803e3d6000fd5b50809550505050505092915050565b6000809054906101000a900473ffffffffffffffffffffffffffffffffffffffff1681565b60008060009054906101000a900473ffffffffffffffffffffffffffffffffffffffff1673ffffffffffffffffffffffffffffffffffffffff163373ffffffffffffffffffffffffffffffffffffffff161461230c576040517f08c379a00000000000000000000000000000000000000000000000000000000081526004018080602001828103825260178152602001807f6d73672e73656e646572206973206e6f74206f776e657200000000000000000081525060200191505060405180910390fd5b60008060146101000a81548160ff0219169083151502179055506001905090565b6000600760003373ffffffffffffffffffffffffffffffffffffffff1673ffffffffffffffffffffffffffffffffffffffff16815260200190815260200160002060009054906101000a900460ff16905090565b606060008383600115156006600084815260200190815260200160002060050160009054906101000a900460ff16151514612424576040517f08c379a000000000000000000000000000000000000000000000000000000000815260040180806020018281038252601c8152602001807f77696e652070726f647563657220646f6573206e6f742065786973740000000081525060200191505060405180910390fd5b6001151560066000848152602001908152602001600020600401600083815260200190815260200160002060080160009054906101000a900460ff161515146124d5576040517f08c379a00000000000000000000000000000000000000000000000000000000081526004018080602001828103825260138152602001807f77696e6520646f6573206e6f742065786973740000000000000000000000000081525060200191505060405180910390fd5b60066000878152602001908152602001600020600401600086815260200190815260200160002060000160066000888152602001908152602001600020600401600087815260200190815260200160002060050160003373ffffffffffffffffffffffffffffffffffffffff1673ffffffffffffffffffffffffffffffffffffffff16815260200190815260200160002054818054600181600116156101000203166002900480601f0160208091040260200160405190810160405280929190818152602001828054600181600116156101000203166002900480156125fc5780601f106125d1576101008083540402835291602001916125fc565b820191906000526020600020905b8154815290600101906020018083116125df57829003601f168201915b505050505091509350935050509250929050565b60008282600115156006600084815260200190815260200160002060050160009054906101000a900460ff161515146126b1576040517f08c379a000000000000000000000000000000000000000000000000000000000815260040180806020018281038252601c8152602001807f77696e652070726f647563657220646f6573206e6f742065786973740000000081525060200191505060405180910390fd5b6001151560066000848152602001908152602001600020600401600083815260200190815260200160002060080160009054906101000a900460ff16151514612762576040517f08c379a00000000000000000000000000000000000000000000000000000000081526004018080602001828103825260138152602001807f77696e6520646f6573206e6f742065786973740000000000000000000000000081525060200191505060405180910390fd5b60066000868152602001908152602001600020600401600085815260200190815260200160002060050160003373ffffffffffffffffffffffffffffffffffffffff1673ffffffffffffffffffffffffffffffffffffffff168152602001908152602001600020549250505092915050565b606080606060008585600115156006600084815260200190815260200160002060050160009054906101000a900460ff1615151461287a576040517f08c379a000000000000000000000000000000000000000000000000000000000815260040180806020018281038252601c8152602001807f77696e652070726f647563657220646f6573206e6f742065786973740000000081525060200191505060405180910390fd5b6001151560066000848152602001908152602001600020600401600083815260200190815260200160002060080160009054906101000a900460ff1615151461292b576040517f08c379a00000000000000000000000000000000000000000000000000000000081526004018080602001828103825260138152602001807f77696e6520646f6573206e6f742065786973740000000000000000000000000081525060200191505060405180910390fd5b600660008981526020019081526020016000206004016000888152602001908152602001600020600001600660008a81526020019081526020016000206004016000898152602001908152602001600020600101600660008b815260200190815260200160002060040160008a8152602001908152602001600020600201600660008c815260200190815260200160002060040160008b815260200190815260200160002060030154838054600181600116156101000203166002900480601f016020809104026020016040519081016040528092919081815260200182805460018160011615610100020316600290048015612a695780601f10612a3e57610100808354040283529160200191612a69565b820191906000526020600020905b815481529060010190602001808311612a4c57829003601f168201915b50505050509350828054600181600116156101000203166002900480601f016020809104026020016040519081016040528092919081815260200182805460018160011615610100020316600290048015612b055780601f10612ada57610100808354040283529160200191612b05565b820191906000526020600020905b815481529060010190602001808311612ae857829003601f168201915b50505050509250818054600181600116156101000203166002900480601f016020809104026020016040519081016040528092919081815260200182805460018160011615610100020316600290048015612ba15780601f10612b7657610100808354040283529160200191612ba1565b820191906000526020600020905b815481529060010190602001808311612b8457829003601f168201915b505050505091509550955095509550505092959194509250565b606060008060008585600115156006600084815260200190815260200160002060050160009054906101000a900460ff16151514612c61576040517f08c379a000000000000000000000000000000000000000000000000000000000815260040180806020018281038252601c8152602001807f77696e652070726f647563657220646f6573206e6f742065786973740000000081525060200191505060405180910390fd5b6001151560066000848152602001908152602001600020600401600083815260200190815260200160002060080160009054906101000a900460ff16151514612d12576040517f08c379a00000000000000000000000000000000000000000000000000000000081526004018080602001828103825260138152602001807f77696e6520646f6573206e6f742065786973740000000000000000000000000081525060200191505060405180910390fd5b600660008981526020019081526020016000206004016000888152602001908152602001600020600001600660008a8152602001908152602001600020600401600089815260200190815260200160002060040154600660008b815260200190815260200160002060040160008a815260200190815260200160002060060154600660008c815260200190815260200160002060040160008b815260200190815260200160002060070154838054600181600116156101000203166002900480601f016020809104026020016040519081016040528092919081815260200182805460018160011615610100020316600290048015612e525780601f10612e2757610100808354040283529160200191612e52565b820191906000526020600020905b815481529060010190602001808311612e3557829003601f168201915b505050505093509550955095509550505092959194509250565b60008060009054906101000a900473ffffffffffffffffffffffffffffffffffffffff1673ffffffffffffffffffffffffffffffffffffffff163373ffffffffffffffffffffffffffffffffffffffff1614612f30576040517f08c379a00000000000000000000000000000000000000000000000000000000081526004018080602001828103825260178152602001807f6d73672e73656e646572206973206e6f74206f776e657200000000000000000081525060200191505060405180910390fd5b600060149054906101000a900460ff16612f4957600080fd5b600160009054906101000a900473ffffffffffffffffffffffffffffffffffffffff1673ffffffffffffffffffffffffffffffffffffffff168273ffffffffffffffffffffffffffffffffffffffff1614613070576002600160009054906101000a900473ffffffffffffffffffffffffffffffffffffffff1690806001815401808255809150509060018203906000526020600020016000909192909190916101000a81548173ffffffffffffffffffffffffffffffffffffffff021916908373ffffffffffffffffffffffffffffffffffffffff1602179055505081600160006101000a81548173ffffffffffffffffffffffffffffffffffffffff021916908373ffffffffffffffffffffffffffffffffffffffff16021790555060019050613075565b600090505b919050565b6000600560003373ffffffffffffffffffffffffffffffffffffffff1673ffffffffffffffffffffffffffffffffffffffff16815260200190815260200160002060009054906101000a900460ff16905090565b606080600060066000858152602001908152602001600020600001600660008681526020019081526020016000206001016006600087815260200190815260200160002060030154828054600181600116156101000203166002900480601f0160208091040260200160405190810160405280929190818152602001828054600181600116156101000203166002900480156131ab5780601f10613180576101008083540402835291602001916131ab565b820191906000526020600020905b81548152906001019060200180831161318e57829003601f168201915b50505050509250818054600181600116156101000203166002900480601f0160208091040260200160405190810160405280929190818152602001828054600181600116156101000203166002900480156132475780601f1061321c57610100808354040283529160200191613247565b820191906000526020600020905b81548152906001019060200180831161322a57829003601f168201915b505050505091509250925092509193909250565b60008060149054906101000a900460ff161561327657600080fd5b60011515600560003373ffffffffffffffffffffffffffffffffffffffff1673ffffffffffffffffffffffffffffffffffffffff16815260200190815260200160002060009054906101000a900460ff1615151461333c576040517f08c379a00000000000000000000000000000000000000000000000000000000081526004018080602001828103825260178152602001807f6d73672e73656e646572206973206e6f742061646d696e00000000000000000081525060200191505060405180910390fd5b8160001515600760008373ffffffffffffffffffffffffffffffffffffffff1673ffffffffffffffffffffffffffffffffffffffff16815260200190815260200160002060009054906101000a900460ff16151514613403576040517f08c379a000000000000000000000000000000000000000000000000000000000815260040180806020018281038252601c8152602001807f77696e652070726f647563657220616c7265616479206578697374730000000081525060200191505060405180910390fd5b600060045490506040518060a001604052808781526020018681526020018573ffffffffffffffffffffffffffffffffffffffff168152602001600081526020016001151581525060066000838152602001908152602001600020600082015181600001908051906020019061347a92919061369e565b50602082015181600101908051906020019061349792919061369e565b5060408201518160020160006101000a81548173ffffffffffffffffffffffffffffffffffffffff021916908373ffffffffffffffffffffffffffffffffffffffff1602179055506060820151816003015560808201518160050160006101000a81548160ff0219169083151502179055509050506001600760008673ffffffffffffffffffffffffffffffffffffffff1673ffffffffffffffffffffffffffffffffffffffff16815260200190815260200160002060006101000a81548160ff02191690831515021790555080600860008673ffffffffffffffffffffffffffffffffffffffff1673ffffffffffffffffffffffffffffffffffffffff168152602001908152602001600020819055507f723993f718abf27619ef9f2f67f244d1cb5df0839150c449e0f95bce94b64c5d86858360405180806020018473ffffffffffffffffffffffffffffffffffffffff1673ffffffffffffffffffffffffffffffffffffffff168152602001838152602001828103825285818151815260200191508051906020019080838360005b83811015613644578082015181840152602081019050613629565b50505050905090810190601f1680156136715780820380516001836020036101000a031916815260200191505b5094505050505060405180910390a160046000815480929190600101919050555080925050509392505050565b828054600181600116156101000203166002900490600052602060002090601f016020900481019282601f106136df57805160ff191683800117855561370d565b8280016001018555821561370d579182015b8281111561370c5782518255916020019190600101906136f1565b5b50905061371a919061371e565b5090565b61374091905b8082111561373c576000816000905550600101613724565b5090565b9056fe77696e652070726f6475636572206164647265737320646f6573206e6f74206d617463686e6f7420656e6f7567682076616c75652073656e7420746f206275792077696e65736e65774964206973206e6f742067726561746572207468616e206f7220657175616c20746f2030a165627a7a723058209b17d7cf737967b168d9944a72fc0dcfa15ebde45d49b13d7f6976d050bfd7e40029",
  "source": "pragma solidity ^0.5.0;\n\nimport \"./SafeMath.sol\";\n\n/*\n    Vintage Explorer contract keeps track of wine producers and wines on the blockchain.\n    Buyers can manage their inventory and buy wines.\n*/\ncontract VintageExplorer{\n\n    using SafeMath for uint256;\n    /*\n        Define an public owner variable. Set it to the creator of the contract when it is initialized.\n    */\n    address payable public owner;\n    bool public stopped = false;\n    address backendContract;\n    address[] previousBackends;\n\n    /*\n        Define an public owner variable. Set it to the creator of the contract when it is initialized.\n    */\n    uint ONE_WEI = 1 wei;\n\n    /*\n        Create a variable to keep track of the wine ID numbers.\n    */\n    uint public numWineProducers;\n\n    \n    /*\n        Define an Event struct, similar to the V1 of this contract.\n        The struct has 6 fields: description, website (URL), totalTickets, sales, buyers, and isOpen.\n        Choose the appropriate variable type for each field.\n        The \"buyers\" field should keep track of addresses and how many tickets each buyer purchases.\n    */\n\n    struct WineProducer {\n        string name;\n        string website;\n        address wineProducer;\n        uint numWines;\n        mapping (uint => Wine) wines;\n        bool exists;\n    }\n\n    struct Wine {\n        string name;\n        string description;\n        string sku;\n        uint vintage;\n        uint totalSupply;\n        mapping (address => uint) owners;\n        uint priceWei;\n        uint totalSales;\n        bool exists;\n    }\n\n    mapping (address => bool) admins;\n    /*\n        Create a mapping to keep track of the events.\n        The mapping key is an integer, the value is an Event struct.\n        Call the mapping \"events\".\n    */\n    mapping (uint => WineProducer) wineProducers;\n    mapping (address => bool) wineProducersExists;\n    mapping (address => uint) wineProducerIdLookup;\n\n    event LogWineProducerAdded(string name, address wineProducer, uint wineProducerId);\n    event LogWineAdded(string name, address wineProducer, string sku, uint wineId);\n    event LogWineReOpened(string name, address wineProducer, uint wineId);\n    event LogWineClosed(string name, address wineProducer, uint wineId);\n    event LogBuyWine(address buyer,uint wineProducerId, uint wineId, uint numWInes);\n    event LogGetRefund(address buyer,uint wineProducerId, uint wineId, uint amountToRefund);\n\n    /*\n        Create a modifier that throws an error if the msg.sender is not the owner.\n    */\n    modifier onlyOwner { require(msg.sender == owner, 'msg.sender is not owner'); _; }\n    modifier onlyAdmin { require(admins[msg.sender] == true, 'msg.sender is not admin'); _; }\n    modifier stopInEmergency { require(!stopped); _;}\n    modifier onlyInEmergency { require(stopped); _;}\n\n    modifier verifyCaller (address _address) { require (msg.sender == _address, 'msg sender is not address'); _;}\n\n    modifier onlyWineProducer () {\n        require (wineProducersExists[msg.sender] == true, 'wine producer does not exist');\n        uint wineProducerId = wineProducerIdLookup[msg.sender];\n        require (wineProducers[wineProducerId].exists, 'wine producer does not exist');\n        require (wineProducers[wineProducerId].wineProducer == msg.sender, 'wine producer address does not match');\n        _;\n    }\n\n    modifier checkIfWineProducerAndWineExists(uint _wineProducerId, uint _wineId) {\n        require(wineProducers[_wineProducerId].exists == true, 'wine producer does not exist');\n        require(wineProducers[_wineProducerId].wines[_wineId].exists == true, 'wine does not exist');\n        _;\n    }\n\n    modifier checkIfWineProducerIsNew(address wineProducer) {\n        require(wineProducersExists[wineProducer] == false, 'wine producer already exists');\n        _;\n    }\n\n    constructor() public {\n        owner = msg.sender;\n        admins[msg.sender] = true;\n    }\n\n    function addAdmin(address _a)\n        public\n        onlyAdmin()\n        stopInEmergency()\n        returns(bool)\n    {\n        admins[_a] = true;\n        return true;\n    }\n\n    function stopForEmergency()\n        public\n        onlyOwner()\n        returns(bool)\n    {\n        stopped = true;\n        return true;\n    }\n\n    function turnOffEmergency()\n        public\n        onlyOwner()\n        returns(bool)\n    {\n        stopped = false;\n        return true;\n    }\n\n    function kill()\n        public\n        onlyOwner()\n        onlyInEmergency()\n    {\n        selfdestruct(owner);\n    }\n\n    function changeBackend(address _newBackend) public\n        onlyOwner()\n        onlyInEmergency()\n        returns (bool)\n    {\n        if(_newBackend != backendContract) {\n            previousBackends.push(backendContract);\n            backendContract = _newBackend;\n            return true;\n        }\n        return false;\n    }\n\n    function checkIfAdmin()\n        public\n        view\n        returns(bool)\n    {\n        return admins[msg.sender];\n    }\n\n    function checkIfWineProducer()\n        public\n        view\n        returns(bool)\n    {\n        return wineProducersExists[msg.sender];\n    }\n\n    /*\n        Define a function called addEvent().\n        This function takes 3 parameters, an event description, a URL, and a number of tickets.\n        Only the contract owner should be able to call this function.\n        In the function:\n            - Set the description, URL and ticket number in a new event.\n            - set the event to open\n            - set an event ID\n            - increment the ID\n            - emit the appropriate event\n            - return the event's ID\n    */\n\n    function addWineProducer(string memory _name, string memory _website, address _wineProducer)\n        public\n        stopInEmergency()\n        onlyAdmin()\n        checkIfWineProducerIsNew(_wineProducer)\n        returns(uint)\n    {\n        uint newId = numWineProducers;\n        wineProducers[newId] = WineProducer({\n            name : _name,\n            website : _website,\n            wineProducer : _wineProducer,\n            numWines : 0,\n            exists : true\n        });\n        wineProducersExists[_wineProducer] = true;\n        wineProducerIdLookup[_wineProducer] = newId;\n        emit LogWineProducerAdded(_name, _wineProducer, newId);\n        numWineProducers++;\n        return newId;\n    }\n\n    function addWine(uint _wineProducerId, string memory _name,\n        string memory _description, string memory _sku, uint _vintage,\n        uint _totalSupply, uint _priceWei)\n        public\n        stopInEmergency()\n        onlyWineProducer()\n        returns(uint)\n    {\n        uint newId = wineProducers[_wineProducerId].numWines;\n        require(newId >= 0, \"newId is not greater than or equal to 0\");\n        wineProducers[_wineProducerId].wines[newId] = Wine({\n            name : _name,\n            description : _description,\n            sku : _sku,\n            vintage : _vintage,\n            totalSupply : _totalSupply,\n            priceWei : _priceWei,\n            totalSales : 0,\n            exists : true\n        });\n        emit LogWineAdded(_name, msg.sender, _sku, newId);\n        wineProducers[_wineProducerId].numWines++;\n        return newId;\n    }\n\n    /*\n        Define a function called readEvent().\n        This function takes one parameter, the event ID.\n        The function returns information about the event this order:\n            1. description\n            2. URL\n            3. ticket available\n            4. sales\n            5. isOpen\n    */\n    function readWineProducerById(uint _wineProducerId)\n        public\n        view\n        returns(string memory name, string memory website,\n        uint numWines)\n    {\n        return (\n            wineProducers[_wineProducerId].name,\n            wineProducers[_wineProducerId].website,\n            wineProducers[_wineProducerId].numWines\n        );\n    }\n\n    function readWineProducerByAccount(address _wineProducer)\n        public\n        view\n        returns(uint wineProducerId, string memory name, string memory website,\n        uint numWines)\n    {\n        return (\n            wineProducerIdLookup[_wineProducer],\n            wineProducers[wineProducerIdLookup[_wineProducer]].name,\n            wineProducers[wineProducerIdLookup[_wineProducer]].website,\n            wineProducers[wineProducerIdLookup[_wineProducer]].numWines\n        );\n    }\n    /*\n        Define a function called readEvent().\n        This function takes one parameter, the event ID.\n        The function returns information about the event this order:\n            1. description\n            2. URL\n            3. ticket available\n            4. sales\n            5. isOpen\n    */\n    function readWineDescription(uint _wineProducerId, uint _wineId)\n        public\n        view\n        checkIfWineProducerAndWineExists(_wineProducerId, _wineId)\n        returns(string memory name, string memory description,\n        string memory sku, uint vintage\n        )\n    {\n        return (\n            wineProducers[_wineProducerId].wines[_wineId].name,\n            wineProducers[_wineProducerId].wines[_wineId].description,\n            wineProducers[_wineProducerId].wines[_wineId].sku,\n            wineProducers[_wineProducerId].wines[_wineId].vintage\n        );\n    }\n\n    function readWineSalesRelated(uint _wineProducerId, uint _wineId)\n        public\n        view\n        checkIfWineProducerAndWineExists(_wineProducerId, _wineId)\n        returns(string memory name, uint totalSupply,\n        uint price, uint totalSales)\n    {\n        return (\n            wineProducers[_wineProducerId].wines[_wineId].name,\n            wineProducers[_wineProducerId].wines[_wineId].totalSupply,\n            wineProducers[_wineProducerId].wines[_wineId].priceWei,\n            wineProducers[_wineProducerId].wines[_wineId].totalSales\n        );\n    }\n\n    function checkIfWineIsOwned(uint _wineProducerId, uint _wineId)\n        public\n        view\n        checkIfWineProducerAndWineExists(_wineProducerId, _wineId)\n        returns(string memory name, uint totalAmountOwned)\n    {\n        return (\n            wineProducers[_wineProducerId].wines[_wineId].name,\n            wineProducers[_wineProducerId].wines[_wineId].owners[msg.sender]\n        );\n    }\n\n    \n    /*\n        Define a function called buyTickets().\n        This function allows users to buy tickets for a specific event.\n        This function takes 2 parameters, an event ID and a number of tickets.\n        The function checks:\n            - that the event sales are open\n            - that the transaction value is sufficient to purchase the number of tickets\n            - that there are enough tickets available to complete the purchase\n        The function:\n            - increments the purchasers ticket count\n            - increments the ticket sale count\n            - refunds any surplus value sent\n            - emits the appropriate event\n    */\n\n    function buyWine(uint _wineProducerId, uint _wineId, uint numberOfPurchasingWines)\n        public\n        payable\n        stopInEmergency()\n        checkIfWineProducerAndWineExists(_wineProducerId, _wineId)\n    {\n        uint winePrice = (wineProducers[_wineProducerId].wines[_wineId].priceWei) * ONE_WEI;\n        require(msg.value >=\n            winePrice * numberOfPurchasingWines,\n            'not enough value sent to buy wines');\n        require(wineProducers[_wineProducerId].wines[_wineId].totalSupply\n            >= numberOfPurchasingWines, 'Not enough wines left');\n        wineProducers[_wineProducerId].wines[_wineId].owners[msg.sender] += numberOfPurchasingWines;\n        wineProducers[_wineProducerId].wines[_wineId].totalSales += numberOfPurchasingWines;\n        wineProducers[_wineProducerId].wines[_wineId].totalSupply -= numberOfPurchasingWines;\n        emit LogBuyWine(msg.sender, _wineProducerId, _wineId, numberOfPurchasingWines);\n        if(msg.value -\n            winePrice*numberOfPurchasingWines > 0\n        ){\n            uint amountToRefund = msg.value - winePrice * numberOfPurchasingWines * numberOfPurchasingWines;\n            emit LogGetRefund(msg.sender, _wineProducerId, _wineId, amountToRefund);\n            msg.sender.transfer(amountToRefund);\n        }\n    }\n\n    // /*\n    //     Define a function called getRefund().\n    //     This function allows users to request a refund for a specific event.\n    //     This function takes one parameter, the event ID.\n    //     TODO:\n    //         - check that a user has purchased tickets for the event\n    //         - remove refunded tickets from the sold count\n    //         - send appropriate value to the refund requester\n    //         - emit the appropriate event\n    // */\n\n    function getRefund(uint _wineProducerId, uint _wineId)\n        public\n        checkIfWineProducerAndWineExists(_wineProducerId, _wineId)\n        returns(uint)\n    {\n        uint numberOfWines = wineProducers[_wineProducerId].wines[_wineId].owners[msg.sender];\n        uint winePrice = wineProducers[_wineProducerId].wines[_wineId].priceWei * ONE_WEI;\n        require(numberOfWines > 0, 'not enough wines');\n        uint amountToRefund = winePrice * numberOfWines;\n        wineProducers[_wineProducerId].wines[_wineId].owners[msg.sender] -= numberOfWines;\n        wineProducers[_wineProducerId].wines[_wineId].totalSales -= numberOfWines;\n        wineProducers[_wineProducerId].wines[_wineId].totalSupply += numberOfWines;\n        emit LogGetRefund(msg.sender, _wineProducerId, _wineId, amountToRefund);\n        msg.sender.transfer(amountToRefund);\n        return amountToRefund;\n    }\n\n    // /*\n    //     Define a function called getBuyerNumberTickets()\n    //     This function takes one parameter, an event ID\n    //     This function returns a uint, the number of tickets that the msg.sender has purchased.\n    // */\n    function getOwnersNumberOfWines(uint _wineProducerId, uint _wineId)\n        public\n        view\n        checkIfWineProducerAndWineExists(_wineProducerId, _wineId)\n        returns(uint purchasedWines)\n    {\n        return wineProducers[_wineProducerId].wines[_wineId].owners[msg.sender];\n    }\n}\n",
  "sourcePath": "/git/vintage-explorer/contracts/VintageExplorer.sol",
  "compiler": {
    "name": "solc",
    "version": "0.5.8+commit.23d335f2.Emscripten.clang"
  },
  "schemaVersion": "3.0.11",
  "updatedAt": "2019-07-23T15:48:55.438Z",
  "devdoc": {
    "methods": {}
  },
  "userdoc": {
    "methods": {}
  }
}