{
  "contractName": "VintageExplorer",
  "abi": [
    {
      "constant": true,
      "inputs": [],
      "name": "owner",
      "outputs": [
        {
          "name": "",
          "type": "address"
        }
      ],
      "payable": false,
      "stateMutability": "view",
      "type": "function"
    },
    {
      "constant": true,
      "inputs": [],
      "name": "idGenerator",
      "outputs": [
        {
          "name": "",
          "type": "uint256"
        }
      ],
      "payable": false,
      "stateMutability": "view",
      "type": "function"
    },
    {
      "anonymous": false,
      "inputs": [
        {
          "indexed": false,
          "name": "name",
          "type": "string"
        },
        {
          "indexed": false,
          "name": "wineProducerAddress",
          "type": "address"
        }
      ],
      "name": "LogWineProducerAdded",
      "type": "event"
    },
    {
      "anonymous": false,
      "inputs": [
        {
          "indexed": false,
          "name": "name",
          "type": "string"
        },
        {
          "indexed": false,
          "name": "wineProducerAddress",
          "type": "address"
        },
        {
          "indexed": false,
          "name": "sku",
          "type": "string"
        }
      ],
      "name": "LogWineAdded",
      "type": "event"
    },
    {
      "anonymous": false,
      "inputs": [
        {
          "indexed": false,
          "name": "buyer",
          "type": "address"
        },
        {
          "indexed": false,
          "name": "wineId",
          "type": "uint256"
        },
        {
          "indexed": false,
          "name": "numWInes",
          "type": "uint256"
        }
      ],
      "name": "LogBuyWine",
      "type": "event"
    }
  ],
  "bytecode": "0x6080604052606460015534801561001557600080fd5b5060f2806100246000396000f3fe6080604052348015600f57600080fd5b506004361060325760003560e01c80638da5cb5b146037578063e7bd92b914607f575b600080fd5b603d609b565b604051808273ffffffffffffffffffffffffffffffffffffffff1673ffffffffffffffffffffffffffffffffffffffff16815260200191505060405180910390f35b608560c0565b6040518082815260200191505060405180910390f35b6000809054906101000a900473ffffffffffffffffffffffffffffffffffffffff1681565b6002548156fea165627a7a723058200c30731d04967e451de94f00e74b4534da5812c3e911eeddeb2231b63184809e0029",
  "source": "pragma solidity ^0.5.0;\r\n\r\n    /*\r\n        The EventTicketsV2 contract keeps track of the details and ticket sales of multiple events.\r\n     */\r\ncontract VintageExplorer {\r\n\r\n    /*\r\n        Define an public owner variable. Set it to the creator of the contract when it is initialized.\r\n    */\r\n    address payable public owner;\r\n    uint   PRICE_TICKET = 100 wei;\r\n\r\n    /*\r\n        Create a variable to keep track of the wine ID numbers.\r\n    */\r\n    uint public idGenerator;\r\n    \r\n    /*\r\n        Define an Event struct, similar to the V1 of this contract.\r\n        The struct has 6 fields: description, website (URL), totalTickets, sales, buyers, and isOpen.\r\n        Choose the appropriate variable type for each field.\r\n        The \"buyers\" field should keep track of addresses and how many tickets each buyer purchases.\r\n    */\r\n\r\n    struct WineProducer {\r\n        string name;\r\n        string website;\r\n        address wineProducerAddress;\r\n        mapping (address => Wine) wines;\r\n        bool isOpen;\r\n    }\r\n\r\n    struct Wine {\r\n        string name;\r\n        WineProducer wineProducer;\r\n        string sku;\r\n        uint vintage;\r\n        uint totalSupply;\r\n        mapping (address => uint) owners;\r\n        bool isOpen;\r\n    }\r\n\r\n    /*\r\n        Create a mapping to keep track of the events.\r\n        The mapping key is an integer, the value is an Event struct.\r\n        Call the mapping \"events\".\r\n    */\r\n    mapping (address => WineProducer) wineProducers;\r\n\r\n    event LogWineProducerAdded(string name, address wineProducerAddress);\r\n    event LogWineAdded(string name, address wineProducerAddress, string sku);\r\n    event LogBuyWine(address buyer, uint wineId, uint numWInes);\r\n\r\n    /*\r\n        Create a modifier that throws an error if the msg.sender is not the owner.\r\n    */\r\n    // modifier isOwner { require(msg.sender == owner, 'msg.sender is not owner'); _; }\r\n\r\n    // modifier verifyCaller (address _address) { require (msg.sender == _address, 'msg sender is not address'); _;}\r\n\r\n    // modifier verifyWineProducer (address _address) { \r\n    //     require (msg.sender == _address, 'msg sender is not address');\r\n    //     require (wineProducers[_address], 'wine producer does not exist');\r\n    //     _;\r\n    // }\r\n\r\n    // modifier paidEnough(uint _price) { require(msg.value >= _price, 'msg value is not enough'); _;}\r\n\r\n    // constructor() public {\r\n    //     owner = msg.sender;\r\n    // }\r\n\r\n    // /*\r\n    //     Define a function called addEvent().\r\n    //     This function takes 3 parameters, an event description, a URL, and a number of tickets.\r\n    //     Only the contract owner should be able to call this function.\r\n    //     In the function:\r\n    //         - Set the description, URL and ticket number in a new event.\r\n    //         - set the event to open\r\n    //         - set an event ID\r\n    //         - increment the ID\r\n    //         - emit the appropriate event\r\n    //         - return the event's ID\r\n    // */\r\n\r\n    // function addWineProducer(string memory _name, string memory _website, address _wineProducerAddress)\r\n    //     public\r\n    //     isOwner()\r\n    // {\r\n    //     wineProducers[_wineProducerAddress] = WineProducer({\r\n    //         name : _name,\r\n    //         website : _website,\r\n    //         owner : _wineProducerAddress,\r\n    //         isOpen : true\r\n    //     });\r\n    //     emit LogWineProducerAdded(_name, _wineProducerAddress);\r\n    // }\r\n\r\n    // function addWine(address _wineProducerAddress, string memory _name, string memory _sku, uint _vintage, uint _totalSupply)\r\n    //     public\r\n    //     verifyWineProducer(_wineProducerAddress)\r\n    // {\r\n    //     wineProducers[_wineProducerAddress] = Wine({\r\n    //         name : _name,\r\n    //         sku : _sku,\r\n    //         vintage : _vintage,\r\n    //         totalSupply : _totalSupply,\r\n    //         isOpen : true\r\n    //     });\r\n    //     emit LogWineAdded(_name, _wineProducerAddress, _sku);\r\n    // }\r\n\r\n    // function removeWine(address _wineProducerAddress, string memory _name, string memory _sku, uint _vintage, uint _totalSupply)\r\n    //     public\r\n    //     verifyWineProducer(_wineProducerAddress)\r\n    // {\r\n    //     wineProducers[_wineProducerAddress] = Wine({\r\n    //         name : _name,\r\n    //         sku : _sku,\r\n    //         vintage : _vintage,\r\n    //         totalSupply : _totalSupply,\r\n    //         isOpen : true\r\n    //     });\r\n    //     emit LogWineAdded(_name, _wineProducerAddress, _sku);\r\n    // }\r\n\r\n    // /*\r\n    //     Define a function called readEvent().\r\n    //     This function takes one parameter, the event ID.\r\n    //     The function returns information about the event this order:\r\n    //         1. description\r\n    //         2. URL\r\n    //         3. ticket available\r\n    //         4. sales\r\n    //         5. isOpen\r\n    // */     \r\n    // function readEvent(uint eventId)\r\n    //     public\r\n    //     view \r\n    //     returns(string memory description, string memory website, uint totalTickets, uint sales, bool isOpen) \r\n    // {\r\n    //     return (\r\n    //         events[eventId].description,\r\n    //         events[eventId].website,\r\n    //         events[eventId].totalTickets,\r\n    //         events[eventId].sales,\r\n    //         events[eventId].isOpen\r\n    //     );\r\n    // }\r\n    // /*\r\n    //     Define a function called buyTickets().\r\n    //     This function allows users to buy tickets for a specific event.\r\n    //     This function takes 2 parameters, an event ID and a number of tickets.\r\n    //     The function checks:\r\n    //         - that the event sales are open\r\n    //         - that the transaction value is sufficient to purchase the number of tickets\r\n    //         - that there are enough tickets available to complete the purchase\r\n    //     The function:\r\n    //         - increments the purchasers ticket count\r\n    //         - increments the ticket sale count\r\n    //         - refunds any surplus value sent\r\n    //         - emits the appropriate event\r\n    // */\r\n\r\n    // function buyTickets(uint eventId, uint numberOfPurchasingTickets)\r\n    //     public\r\n    //     payable\r\n    // {\r\n        \r\n    //     require(events[eventId].isOpen == true, 'isOpen is false');\r\n    //     require(msg.value >= PRICE_TICKET * numberOfPurchasingTickets, 'not enough value sent to buy tickets');\r\n    //     require(events[eventId].totalTickets >= numberOfPurchasingTickets, 'Not enough tickets left');\r\n    //     events[eventId].buyers[msg.sender] += numberOfPurchasingTickets;\r\n    //     events[eventId].sales += numberOfPurchasingTickets;\r\n    //     events[eventId].totalTickets -= numberOfPurchasingTickets;\r\n    //     emit LogBuyTickets(msg.sender, eventId, numberOfPurchasingTickets);\r\n    //     if(msg.value - PRICE_TICKET*numberOfPurchasingTickets > 0){\r\n    //         uint amountToRefund = msg.value - PRICE_TICKET * numberOfPurchasingTickets;\r\n    //         msg.sender.transfer(amountToRefund);\r\n    //         emit LogGetRefund(msg.sender, eventId, amountToRefund);\r\n    //     }\r\n    // }\r\n\r\n    // /*\r\n    //     Define a function called getRefund().\r\n    //     This function allows users to request a refund for a specific event.\r\n    //     This function takes one parameter, the event ID.\r\n    //     TODO:\r\n    //         - check that a user has purchased tickets for the event\r\n    //         - remove refunded tickets from the sold count\r\n    //         - send appropriate value to the refund requester\r\n    //         - emit the appropriate event\r\n    // */\r\n\r\n    // function getRefund(uint eventId)\r\n    //     public\r\n    // {\r\n    //     uint numberOfTickets = events[eventId].buyers[msg.sender];\r\n    //     require(numberOfTickets > 0, 'not enough tickets');\r\n    //     uint amountToRefund = PRICE_TICKET * numberOfTickets;\r\n    //     msg.sender.transfer(amountToRefund);\r\n    //     emit LogGetRefund(msg.sender, eventId, amountToRefund);\r\n    //     events[eventId].buyers[msg.sender] -= numberOfTickets;\r\n    //     events[eventId].sales -= numberOfTickets;\r\n    //     events[eventId].totalTickets += numberOfTickets;\r\n    // }\r\n\r\n    // /*\r\n    //     Define a function called getBuyerNumberTickets()\r\n    //     This function takes one parameter, an event ID\r\n    //     This function returns a uint, the number of tickets that the msg.sender has purchased.\r\n    // */\r\n    // function getBuyerNumberTickets(uint eventId)\r\n    //     public\r\n    //     view \r\n    //     returns(uint purchasedTickets) \r\n    // {\r\n    //     return events[eventId].buyers[msg.sender];\r\n    // }\r\n    // /*\r\n    //     Define a function called endSale()\r\n    //     This function takes one parameter, the event ID\r\n    //     Only the contract owner can call this function\r\n    //     TODO:\r\n    //         - close event sales\r\n    //         - transfer the balance from those event sales to the contract owner\r\n    //         - emit the appropriate event\r\n    // */\r\n    // function endSale(uint eventId)\r\n    //     public\r\n    //     isOwner()\r\n    // {\r\n    //     events[eventId].isOpen = false;\r\n    //     uint balance = address(this).balance;\r\n    //     owner.transfer(balance);\r\n    //     emit LogEndSale(msg.sender, balance, eventId);\r\n    // }\r\n}\r\n",
  "sourcePath": "/git/vintage-explorer/contracts/VintageExplorer.sol",
  "compiler": {
    "name": "solc",
    "version": "0.5.8+commit.23d335f2.Emscripten.clang"
  },
  "schemaVersion": "3.0.11",
  "updatedAt": "2019-07-15T00:07:00.637Z",
  "devdoc": {
    "methods": {}
  },
  "userdoc": {
    "methods": {}
  }
}