{
  "contractName": "VintageExplorer",
  "abi": [
    {
      "constant": true,
      "inputs": [],
      "name": "numWineProducers",
      "outputs": [
        {
          "name": "",
          "type": "uint256"
        }
      ],
      "payable": false,
      "stateMutability": "view",
      "type": "function"
    },
    {
      "constant": true,
      "inputs": [],
      "name": "stopped",
      "outputs": [
        {
          "name": "",
          "type": "bool"
        }
      ],
      "payable": false,
      "stateMutability": "view",
      "type": "function"
    },
    {
      "constant": true,
      "inputs": [],
      "name": "owner",
      "outputs": [
        {
          "name": "",
          "type": "address"
        }
      ],
      "payable": false,
      "stateMutability": "view",
      "type": "function"
    },
    {
      "inputs": [],
      "payable": false,
      "stateMutability": "nonpayable",
      "type": "constructor"
    },
    {
      "anonymous": false,
      "inputs": [
        {
          "indexed": false,
          "name": "name",
          "type": "string"
        },
        {
          "indexed": false,
          "name": "wineProducer",
          "type": "address"
        },
        {
          "indexed": false,
          "name": "wineProducerId",
          "type": "uint256"
        }
      ],
      "name": "LogWineProducerAdded",
      "type": "event"
    },
    {
      "anonymous": false,
      "inputs": [
        {
          "indexed": false,
          "name": "name",
          "type": "string"
        },
        {
          "indexed": false,
          "name": "wineProducer",
          "type": "address"
        },
        {
          "indexed": false,
          "name": "sku",
          "type": "string"
        },
        {
          "indexed": false,
          "name": "wineId",
          "type": "uint256"
        }
      ],
      "name": "LogWineAdded",
      "type": "event"
    },
    {
      "anonymous": false,
      "inputs": [
        {
          "indexed": false,
          "name": "name",
          "type": "string"
        },
        {
          "indexed": false,
          "name": "wineProducer",
          "type": "address"
        },
        {
          "indexed": false,
          "name": "wineId",
          "type": "uint256"
        }
      ],
      "name": "LogWineReOpened",
      "type": "event"
    },
    {
      "anonymous": false,
      "inputs": [
        {
          "indexed": false,
          "name": "name",
          "type": "string"
        },
        {
          "indexed": false,
          "name": "wineProducer",
          "type": "address"
        },
        {
          "indexed": false,
          "name": "wineId",
          "type": "uint256"
        }
      ],
      "name": "LogWineClosed",
      "type": "event"
    },
    {
      "anonymous": false,
      "inputs": [
        {
          "indexed": false,
          "name": "buyer",
          "type": "address"
        },
        {
          "indexed": false,
          "name": "wineProducerId",
          "type": "uint256"
        },
        {
          "indexed": false,
          "name": "wineId",
          "type": "uint256"
        },
        {
          "indexed": false,
          "name": "numWInes",
          "type": "uint256"
        }
      ],
      "name": "LogBuyWine",
      "type": "event"
    },
    {
      "anonymous": false,
      "inputs": [
        {
          "indexed": false,
          "name": "buyer",
          "type": "address"
        },
        {
          "indexed": false,
          "name": "wineProducerId",
          "type": "uint256"
        },
        {
          "indexed": false,
          "name": "wineId",
          "type": "uint256"
        },
        {
          "indexed": false,
          "name": "amountToRefund",
          "type": "uint256"
        }
      ],
      "name": "LogGetRefund",
      "type": "event"
    },
    {
      "anonymous": false,
      "inputs": [
        {
          "indexed": false,
          "name": "wineProducer",
          "type": "address"
        },
        {
          "indexed": false,
          "name": "balance",
          "type": "uint256"
        },
        {
          "indexed": false,
          "name": "wineProducerId",
          "type": "uint256"
        },
        {
          "indexed": false,
          "name": "wineId",
          "type": "uint256"
        }
      ],
      "name": "LogEndSale",
      "type": "event"
    },
    {
      "constant": false,
      "inputs": [
        {
          "name": "_a",
          "type": "address"
        }
      ],
      "name": "addAdmin",
      "outputs": [
        {
          "name": "",
          "type": "bool"
        }
      ],
      "payable": false,
      "stateMutability": "nonpayable",
      "type": "function"
    },
    {
      "constant": false,
      "inputs": [],
      "name": "kill",
      "outputs": [],
      "payable": false,
      "stateMutability": "nonpayable",
      "type": "function"
    },
    {
      "constant": false,
      "inputs": [
        {
          "name": "newBackend",
          "type": "address"
        }
      ],
      "name": "changeBackend",
      "outputs": [
        {
          "name": "",
          "type": "bool"
        }
      ],
      "payable": false,
      "stateMutability": "nonpayable",
      "type": "function"
    },
    {
      "constant": false,
      "inputs": [
        {
          "name": "_name",
          "type": "string"
        },
        {
          "name": "_website",
          "type": "string"
        },
        {
          "name": "_wineProducer",
          "type": "address"
        }
      ],
      "name": "addWineProducer",
      "outputs": [
        {
          "name": "",
          "type": "uint256"
        }
      ],
      "payable": false,
      "stateMutability": "nonpayable",
      "type": "function"
    },
    {
      "constant": false,
      "inputs": [
        {
          "name": "wineProducerId",
          "type": "uint256"
        },
        {
          "name": "_name",
          "type": "string"
        },
        {
          "name": "_description",
          "type": "string"
        },
        {
          "name": "_sku",
          "type": "string"
        },
        {
          "name": "_vintage",
          "type": "uint256"
        },
        {
          "name": "_wineType",
          "type": "uint8"
        },
        {
          "name": "_totalSupply",
          "type": "uint256"
        },
        {
          "name": "_priceEth",
          "type": "uint256"
        }
      ],
      "name": "addWine",
      "outputs": [
        {
          "name": "",
          "type": "uint256"
        }
      ],
      "payable": false,
      "stateMutability": "nonpayable",
      "type": "function"
    },
    {
      "constant": false,
      "inputs": [
        {
          "name": "_wineProducerId",
          "type": "uint256"
        },
        {
          "name": "_wineId",
          "type": "uint256"
        }
      ],
      "name": "reOpenWine",
      "outputs": [],
      "payable": false,
      "stateMutability": "nonpayable",
      "type": "function"
    },
    {
      "constant": false,
      "inputs": [
        {
          "name": "_wineProducerId",
          "type": "uint256"
        },
        {
          "name": "_wineId",
          "type": "uint256"
        }
      ],
      "name": "closeWine",
      "outputs": [],
      "payable": false,
      "stateMutability": "nonpayable",
      "type": "function"
    },
    {
      "constant": true,
      "inputs": [
        {
          "name": "wineProducerId",
          "type": "uint256"
        }
      ],
      "name": "readWineProducer",
      "outputs": [
        {
          "name": "name",
          "type": "string"
        },
        {
          "name": "website",
          "type": "string"
        },
        {
          "name": "numWines",
          "type": "uint256"
        },
        {
          "name": "isOpen",
          "type": "bool"
        }
      ],
      "payable": false,
      "stateMutability": "view",
      "type": "function"
    },
    {
      "constant": true,
      "inputs": [
        {
          "name": "_wineProducerId",
          "type": "uint256"
        },
        {
          "name": "_wineId",
          "type": "uint256"
        }
      ],
      "name": "readWineDescription",
      "outputs": [
        {
          "name": "name",
          "type": "string"
        },
        {
          "name": "description",
          "type": "string"
        },
        {
          "name": "sku",
          "type": "string"
        },
        {
          "name": "vintage",
          "type": "uint256"
        },
        {
          "name": "wineType",
          "type": "uint8"
        }
      ],
      "payable": false,
      "stateMutability": "view",
      "type": "function"
    },
    {
      "constant": true,
      "inputs": [
        {
          "name": "_wineProducerId",
          "type": "uint256"
        },
        {
          "name": "_wineId",
          "type": "uint256"
        }
      ],
      "name": "readWineSalesRelated",
      "outputs": [
        {
          "name": "name",
          "type": "string"
        },
        {
          "name": "totalSupply",
          "type": "uint256"
        },
        {
          "name": "price",
          "type": "uint256"
        },
        {
          "name": "totalSales",
          "type": "uint256"
        }
      ],
      "payable": false,
      "stateMutability": "view",
      "type": "function"
    },
    {
      "constant": true,
      "inputs": [
        {
          "name": "_wineProducerId",
          "type": "uint256"
        },
        {
          "name": "_wineId",
          "type": "uint256"
        }
      ],
      "name": "checkIfWineIsOpen",
      "outputs": [
        {
          "name": "isOpen",
          "type": "bool"
        }
      ],
      "payable": false,
      "stateMutability": "view",
      "type": "function"
    },
    {
      "constant": false,
      "inputs": [
        {
          "name": "wineProducerId",
          "type": "uint256"
        },
        {
          "name": "wineId",
          "type": "uint256"
        },
        {
          "name": "numberOfPurchasingWines",
          "type": "uint256"
        }
      ],
      "name": "buyWine",
      "outputs": [],
      "payable": true,
      "stateMutability": "payable",
      "type": "function"
    },
    {
      "constant": false,
      "inputs": [
        {
          "name": "wineProducerId",
          "type": "uint256"
        },
        {
          "name": "wineId",
          "type": "uint256"
        }
      ],
      "name": "getRefund",
      "outputs": [],
      "payable": false,
      "stateMutability": "nonpayable",
      "type": "function"
    },
    {
      "constant": true,
      "inputs": [
        {
          "name": "wineProducerId",
          "type": "uint256"
        },
        {
          "name": "wineId",
          "type": "uint256"
        }
      ],
      "name": "getOwnersNumberOfWines",
      "outputs": [
        {
          "name": "purchasedWines",
          "type": "uint256"
        }
      ],
      "payable": false,
      "stateMutability": "view",
      "type": "function"
    },
    {
      "constant": false,
      "inputs": [
        {
          "name": "wineProducerId",
          "type": "uint256"
        },
        {
          "name": "wineId",
          "type": "uint256"
        }
      ],
      "name": "endSale",
      "outputs": [],
      "payable": false,
      "stateMutability": "nonpayable",
      "type": "function"
    }
  ],
  "bytecode": "0x608060405260008060146101000a81548160ff021916908315150217905550600160035534801561002f57600080fd5b50336000806101000a81548173ffffffffffffffffffffffffffffffffffffffff021916908373ffffffffffffffffffffffffffffffffffffffff1602179055506001600560003373ffffffffffffffffffffffffffffffffffffffff1673ffffffffffffffffffffffffffffffffffffffff16815260200190815260200160002060006101000a81548160ff021916908315150217905550613af0806100d76000396000f3fe6080604052600436106101095760003560e01c8063a961999111610095578063dc0eb96611610064578063dc0eb966146108e5578063e84a241d1461092a578063eaecfca7146109fd578063f3597bd014610a66578063f4350b9414610bf957610109565b8063a96199911461054b578063ab13f225146105a8578063b441a216146106da578063bc7be8531461073357610109565b806370480275116100dc57806370480275146103d557806370e82eb21461043e57806375f12b211461048057806385fa74bc146104af5780638da5cb5b146104f457610109565b8063230a37041461010e57806326e1e71b1461013957806341c0e1b51461017e57806344da751214610195575b600080fd5b34801561011a57600080fd5b50610123610c3e565b6040518082815260200191505060405180910390f35b34801561014557600080fd5b5061017c6004803603604081101561015c57600080fd5b810190808035906020019092919080359060200190929190505050610c44565b005b34801561018a57600080fd5b5061019361107f565b005b3480156101a157600080fd5b506103bf60048036036101008110156101b957600080fd5b8101908080359060200190929190803590602001906401000000008111156101e057600080fd5b8201836020820111156101f257600080fd5b8035906020019184600183028401116401000000008311171561021457600080fd5b91908080601f016020809104026020016040519081016040528093929190818152602001838380828437600081840152601f19601f8201169050808301925050505050505091929192908035906020019064010000000081111561027757600080fd5b82018360208201111561028957600080fd5b803590602001918460018302840111640100000000831117156102ab57600080fd5b91908080601f016020809104026020016040519081016040528093929190818152602001838380828437600081840152601f19601f8201169050808301925050505050505091929192908035906020019064010000000081111561030e57600080fd5b82018360208201111561032057600080fd5b8035906020019184600183028401116401000000008311171561034257600080fd5b91908080601f016020809104026020016040519081016040528093929190818152602001838380828437600081840152601f19601f82011690508083019250505050505050919291929080359060200190929190803560ff169060200190929190803590602001909291908035906020019092919050505061117b565b6040518082815260200191505060405180910390f35b3480156103e157600080fd5b50610424600480360360208110156103f857600080fd5b81019080803573ffffffffffffffffffffffffffffffffffffffff16906020019092919050505061162b565b604051808215151515815260200191505060405180910390f35b61047e6004803603606081101561045457600080fd5b81019080803590602001909291908035906020019092919080359060200190929190505050611754565b005b34801561048c57600080fd5b50610495611c16565b604051808215151515815260200191505060405180910390f35b3480156104bb57600080fd5b506104f2600480360360408110156104d257600080fd5b810190808035906020019092919080359060200190929190505050611c29565b005b34801561050057600080fd5b50610509612045565b604051808273ffffffffffffffffffffffffffffffffffffffff1673ffffffffffffffffffffffffffffffffffffffff16815260200191505060405180910390f35b34801561055757600080fd5b5061058e6004803603604081101561056e57600080fd5b81019080803590602001909291908035906020019092919050505061206a565b604051808215151515815260200191505060405180910390f35b3480156105b457600080fd5b506105e1600480360360208110156105cb57600080fd5b81019080803590602001909291905050506121fe565b60405180806020018060200185815260200184151515158152602001838103835287818151815260200191508051906020019080838360005b8381101561063557808201518184015260208101905061061a565b50505050905090810190601f1680156106625780820380516001836020036101000a031916815260200191505b50838103825286818151815260200191508051906020019080838360005b8381101561069b578082015181840152602081019050610680565b50505050905090810190601f1680156106c85780820380516001836020036101000a031916815260200191505b50965050505050505060405180910390f35b3480156106e657600080fd5b5061071d600480360360408110156106fd57600080fd5b8101908080359060200190929190803590602001909291905050506123b2565b6040518082815260200191505060405180910390f35b34801561073f57600080fd5b506107766004803603604081101561075657600080fd5b810190808035906020019092919080359060200190929190505050612576565b6040518080602001806020018060200186815260200185600381111561079857fe5b60ff168152602001848103845289818151815260200191508051906020019080838360005b838110156107d85780820151818401526020810190506107bd565b50505050905090810190601f1680156108055780820380516001836020036101000a031916815260200191505b50848103835288818151815260200191508051906020019080838360005b8381101561083e578082015181840152602081019050610823565b50505050905090810190601f16801561086b5780820380516001836020036101000a031916815260200191505b50848103825287818151815260200191508051906020019080838360005b838110156108a4578082015181840152602081019050610889565b50505050905090810190601f1680156108d15780820380516001836020036101000a031916815260200191505b509850505050505050505060405180910390f35b3480156108f157600080fd5b506109286004803603604081101561090857600080fd5b810190808035906020019092919080359060200190929190505050612999565b005b34801561093657600080fd5b5061096d6004803603604081101561094d57600080fd5b810190808035906020019092919080359060200190929190505050612dd4565b6040518080602001858152602001848152602001838152602001828103825286818151815260200191508051906020019080838360005b838110156109bf5780820151818401526020810190506109a4565b50505050905090810190601f1680156109ec5780820380516001836020036101000a031916815260200191505b509550505050505060405180910390f35b348015610a0957600080fd5b50610a4c60048036036020811015610a2057600080fd5b81019080803573ffffffffffffffffffffffffffffffffffffffff169060200190929190505050613085565b604051808215151515815260200191505060405180910390f35b348015610a7257600080fd5b50610be360048036036060811015610a8957600080fd5b8101908080359060200190640100000000811115610aa657600080fd5b820183602082011115610ab857600080fd5b80359060200191846001830284011164010000000083111715610ada57600080fd5b91908080601f016020809104026020016040519081016040528093929190818152602001838380828437600081840152601f19601f82011690508083019250505050505050919291929080359060200190640100000000811115610b3d57600080fd5b820183602082011115610b4f57600080fd5b80359060200191846001830284011164010000000083111715610b7157600080fd5b91908080601f016020809104026020016040519081016040528093929190818152602001838380828437600081840152601f19601f820116905080830192505050505050509192919290803573ffffffffffffffffffffffffffffffffffffffff16906020019092919050505061327a565b6040518082815260200191505060405180910390f35b348015610c0557600080fd5b50610c3c60048036036040811015610c1c57600080fd5b810190808035906020019092919080359060200190929190505050613569565b005b60045481565b816006600082815260200190815260200160002060050160009054906101000a900460ff16610cdb576040517f08c379a000000000000000000000000000000000000000000000000000000000815260040180806020018281038252601c8152602001807f77696e652070726f647563657220646f6573206e6f742065786973740000000081525060200191505060405180910390fd5b3373ffffffffffffffffffffffffffffffffffffffff166006600083815260200190815260200160002060020160009054906101000a900473ffffffffffffffffffffffffffffffffffffffff1673ffffffffffffffffffffffffffffffffffffffff1614610d95576040517f08c379a0000000000000000000000000000000000000000000000000000000008152600401808060200182810382526024815260200180613a306024913960400191505060405180910390fd5b8282600115156006600084815260200190815260200160002060050160009054906101000a900460ff16151514610e34576040517f08c379a000000000000000000000000000000000000000000000000000000000815260040180806020018281038252601c8152602001807f77696e652070726f647563657220646f6573206e6f742065786973740000000081525060200191505060405180910390fd5b6001151560066000848152602001908152602001600020600401600083815260200190815260200160002060090160009054906101000a900460ff16151514610ee5576040517f08c379a00000000000000000000000000000000000000000000000000000000081526004018080602001828103825260138152602001807f77696e6520646f6573206e6f742065786973740000000000000000000000000081525060200191505060405180910390fd5b6000841015610f3f576040517f08c379a0000000000000000000000000000000000000000000000000000000008152600401808060200182810382526028815260200180613a546028913960400191505060405180910390fd5b60006006600087815260200190815260200160002060050160016101000a81548160ff0219169083151502179055507f81cad14f899f0924e2450399fdfd7e71b0f142022f07e8b134060f5db77d8ffb60066000878152602001908152602001600020600001338660405180806020018473ffffffffffffffffffffffffffffffffffffffff1673ffffffffffffffffffffffffffffffffffffffff1681526020018381526020018281038252858181546001816001161561010002031660029004815260200191508054600181600116156101000203166002900480156110685780601f1061103d57610100808354040283529160200191611068565b820191906000526020600020905b81548152906001019060200180831161104b57829003601f168201915b505094505050505060405180910390a15050505050565b6000809054906101000a900473ffffffffffffffffffffffffffffffffffffffff1673ffffffffffffffffffffffffffffffffffffffff163373ffffffffffffffffffffffffffffffffffffffff1614611141576040517f08c379a00000000000000000000000000000000000000000000000000000000081526004018080602001828103825260178152602001807f6d73672e73656e646572206973206e6f74206f776e657200000000000000000081525060200191505060405180910390fd5b6000809054906101000a900473ffffffffffffffffffffffffffffffffffffffff1673ffffffffffffffffffffffffffffffffffffffff16ff5b6000886006600082815260200190815260200160002060050160009054906101000a900460ff16611214576040517f08c379a000000000000000000000000000000000000000000000000000000000815260040180806020018281038252601c8152602001807f77696e652070726f647563657220646f6573206e6f742065786973740000000081525060200191505060405180910390fd5b3373ffffffffffffffffffffffffffffffffffffffff166006600083815260200190815260200160002060020160009054906101000a900473ffffffffffffffffffffffffffffffffffffffff1673ffffffffffffffffffffffffffffffffffffffff16146112ce576040517f08c379a0000000000000000000000000000000000000000000000000000000008152600401808060200182810382526024815260200180613a306024913960400191505060405180910390fd5b6000600660008c81526020019081526020016000206003015490506000811015611343576040517f08c379a0000000000000000000000000000000000000000000000000000000008152600401808060200182810382526027815260200180613a9e6027913960400191505060405180910390fd5b6040518061014001604052808b81526020018a815260200189815260200188815260200186815260200187600381111561137957fe5b81526020018581526020016000815260200160011515815260200160011515815250600660008d8152602001908152602001600020600401600083815260200190815260200160002060008201518160000190805190602001906113de92919061398a565b5060208201518160010190805190602001906113fb92919061398a565b50604082015181600201908051906020019061141892919061398a565b50606082015181600301556080820151816004015560a08201518160050160006101000a81548160ff0219169083600381111561145157fe5b021790555060c0820151816007015560e082015181600801556101008201518160090160006101000a81548160ff0219169083151502179055506101208201518160090160016101000a81548160ff0219169083151502179055509050507f070aa1bb7e0e9a57005aa19310dc9c99e1fd3c956b5fdb1ceb59038ea442faf98a338a8460405180806020018573ffffffffffffffffffffffffffffffffffffffff1673ffffffffffffffffffffffffffffffffffffffff16815260200180602001848152602001838103835287818151815260200191508051906020019080838360005b83811015611550578082015181840152602081019050611535565b50505050905090810190601f16801561157d5780820380516001836020036101000a031916815260200191505b50838103825285818151815260200191508051906020019080838360005b838110156115b657808201518184015260208101905061159b565b50505050905090810190601f1680156115e35780820380516001836020036101000a031916815260200191505b50965050505050505060405180910390a1600660008c815260200190815260200160002060030160008154809291906001019190505550809250505098975050505050505050565b600060011515600560003373ffffffffffffffffffffffffffffffffffffffff1673ffffffffffffffffffffffffffffffffffffffff16815260200190815260200160002060009054906101000a900460ff161515146116f3576040517f08c379a00000000000000000000000000000000000000000000000000000000081526004018080602001828103825260178152602001807f6d73672e73656e646572206973206e6f742061646d696e00000000000000000081525060200191505060405180910390fd5b6001600560008473ffffffffffffffffffffffffffffffffffffffff1673ffffffffffffffffffffffffffffffffffffffff16815260200190815260200160002060006101000a81548160ff02191690831515021790555060019050919050565b8282600115156006600084815260200190815260200160002060050160009054906101000a900460ff161515146117f3576040517f08c379a000000000000000000000000000000000000000000000000000000000815260040180806020018281038252601c8152602001807f77696e652070726f647563657220646f6573206e6f742065786973740000000081525060200191505060405180910390fd5b6001151560066000848152602001908152602001600020600401600083815260200190815260200160002060090160009054906101000a900460ff161515146118a4576040517f08c379a00000000000000000000000000000000000000000000000000000000081526004018080602001828103825260138152602001807f77696e6520646f6573206e6f742065786973740000000000000000000000000081525060200191505060405180910390fd5b600060035460066000888152602001908152602001600020600401600087815260200190815260200160002060070154029050838102341015611932576040517f08c379a0000000000000000000000000000000000000000000000000000000008152600401808060200182810382526022815260200180613a7c6022913960400191505060405180910390fd5b836006600088815260200190815260200160002060040160008781526020019081526020016000206004015410156119d2576040517f08c379a00000000000000000000000000000000000000000000000000000000081526004018080602001828103825260158152602001807f4e6f7420656e6f7567682077696e6573206c656674000000000000000000000081525060200191505060405180910390fd5b8360066000888152602001908152602001600020600401600087815260200190815260200160002060060160003373ffffffffffffffffffffffffffffffffffffffff1673ffffffffffffffffffffffffffffffffffffffff16815260200190815260200160002060008282540192505081905550836006600088815260200190815260200160002060040160008781526020019081526020016000206008016000828254019250508190555083600660008881526020019081526020016000206004016000878152602001908152602001600020600401600082825403925050819055507f5c5c2946757aaf59d0000ba51c306e71293522310ec8a9f9ae431ecaebf57cca33878787604051808573ffffffffffffffffffffffffffffffffffffffff1673ffffffffffffffffffffffffffffffffffffffff16815260200184815260200183815260200182815260200194505050505060405180910390a1600084820234031115611c0e5760008485830202340390503373ffffffffffffffffffffffffffffffffffffffff166108fc829081150290604051600060405180830381858888f19350505050158015611b90573d6000803e3d6000fd5b507f3790b07ee11214e4d6cc672680fe583532064e0ee21446cbf0af0c3fe640eee133888884604051808573ffffffffffffffffffffffffffffffffffffffff1673ffffffffffffffffffffffffffffffffffffffff16815260200184815260200183815260200182815260200194505050505060405180910390a1505b505050505050565b600060149054906101000a900460ff1681565b8181600115156006600084815260200190815260200160002060050160009054906101000a900460ff16151514611cc8576040517f08c379a000000000000000000000000000000000000000000000000000000000815260040180806020018281038252601c8152602001807f77696e652070726f647563657220646f6573206e6f742065786973740000000081525060200191505060405180910390fd5b6001151560066000848152602001908152602001600020600401600083815260200190815260200160002060090160009054906101000a900460ff16151514611d79576040517f08c379a00000000000000000000000000000000000000000000000000000000081526004018080602001828103825260138152602001807f77696e6520646f6573206e6f742065786973740000000000000000000000000081525060200191505060405180910390fd5b600060066000868152602001908152602001600020600401600085815260200190815260200160002060060160003373ffffffffffffffffffffffffffffffffffffffff1673ffffffffffffffffffffffffffffffffffffffff16815260200190815260200160002054905060006003546006600088815260200190815260200160002060040160008781526020019081526020016000206007015402905060008211611e8e576040517f08c379a00000000000000000000000000000000000000000000000000000000081526004018080602001828103825260108152602001807f6e6f7420656e6f7567682077696e65730000000000000000000000000000000081525060200191505060405180910390fd5b600082820290503373ffffffffffffffffffffffffffffffffffffffff166108fc829081150290604051600060405180830381858888f19350505050158015611edb573d6000803e3d6000fd5b507f3790b07ee11214e4d6cc672680fe583532064e0ee21446cbf0af0c3fe640eee133888884604051808573ffffffffffffffffffffffffffffffffffffffff1673ffffffffffffffffffffffffffffffffffffffff16815260200184815260200183815260200182815260200194505050505060405180910390a18260066000898152602001908152602001600020600401600088815260200190815260200160002060060160003373ffffffffffffffffffffffffffffffffffffffff1673ffffffffffffffffffffffffffffffffffffffff168152602001908152602001600020600082825403925050819055508260066000898152602001908152602001600020600401600088815260200190815260200160002060080160008282540392505081905550826006600089815260200190815260200160002060040160008881526020019081526020016000206004016000828254019250508190555050505050505050565b6000809054906101000a900473ffffffffffffffffffffffffffffffffffffffff1681565b60008282600115156006600084815260200190815260200160002060050160009054906101000a900460ff1615151461210b576040517f08c379a000000000000000000000000000000000000000000000000000000000815260040180806020018281038252601c8152602001807f77696e652070726f647563657220646f6573206e6f742065786973740000000081525060200191505060405180910390fd5b6001151560066000848152602001908152602001600020600401600083815260200190815260200160002060090160009054906101000a900460ff161515146121bc576040517f08c379a00000000000000000000000000000000000000000000000000000000081526004018080602001828103825260138152602001807f77696e6520646f6573206e6f742065786973740000000000000000000000000081525060200191505060405180910390fd5b60066000868152602001908152602001600020600401600085815260200190815260200160002060090160019054906101000a900460ff169250505092915050565b606080600080600660008681526020019081526020016000206000016006600087815260200190815260200160002060010160066000888152602001908152602001600020600301546006600089815260200190815260200160002060050160019054906101000a900460ff16838054600181600116156101000203166002900480601f0160208091040260200160405190810160405280929190818152602001828054600181600116156101000203166002900480156123005780601f106122d557610100808354040283529160200191612300565b820191906000526020600020905b8154815290600101906020018083116122e357829003601f168201915b50505050509350828054600181600116156101000203166002900480601f01602080910402602001604051908101604052809291908181526020018280546001816001161561010002031660029004801561239c5780601f106123715761010080835404028352916020019161239c565b820191906000526020600020905b81548152906001019060200180831161237f57829003601f168201915b5050505050925093509350935093509193509193565b60008282600115156006600084815260200190815260200160002060050160009054906101000a900460ff16151514612453576040517f08c379a000000000000000000000000000000000000000000000000000000000815260040180806020018281038252601c8152602001807f77696e652070726f647563657220646f6573206e6f742065786973740000000081525060200191505060405180910390fd5b6001151560066000848152602001908152602001600020600401600083815260200190815260200160002060090160009054906101000a900460ff16151514612504576040517f08c379a00000000000000000000000000000000000000000000000000000000081526004018080602001828103825260138152602001807f77696e6520646f6573206e6f742065786973740000000000000000000000000081525060200191505060405180910390fd5b60066000868152602001908152602001600020600401600085815260200190815260200160002060060160003373ffffffffffffffffffffffffffffffffffffffff1673ffffffffffffffffffffffffffffffffffffffff168152602001908152602001600020549250505092915050565b60608060606000808686600115156006600084815260200190815260200160002060050160009054906101000a900460ff1615151461261d576040517f08c379a000000000000000000000000000000000000000000000000000000000815260040180806020018281038252601c8152602001807f77696e652070726f647563657220646f6573206e6f742065786973740000000081525060200191505060405180910390fd5b6001151560066000848152602001908152602001600020600401600083815260200190815260200160002060090160009054906101000a900460ff161515146126ce576040517f08c379a00000000000000000000000000000000000000000000000000000000081526004018080602001828103825260138152602001807f77696e6520646f6573206e6f742065786973740000000000000000000000000081525060200191505060405180910390fd5b600660008a81526020019081526020016000206004016000898152602001908152602001600020600001600660008b815260200190815260200160002060040160008a8152602001908152602001600020600101600660008c815260200190815260200160002060040160008b8152602001908152602001600020600201600660008d815260200190815260200160002060040160008c815260200190815260200160002060030154600660008e815260200190815260200160002060040160008d815260200190815260200160002060050160009054906101000a900460ff16848054600181600116156101000203166002900480601f0160208091040260200160405190810160405280929190818152602001828054600181600116156101000203166002900480156128445780601f1061281957610100808354040283529160200191612844565b820191906000526020600020905b81548152906001019060200180831161282757829003601f168201915b50505050509450838054600181600116156101000203166002900480601f0160208091040260200160405190810160405280929190818152602001828054600181600116156101000203166002900480156128e05780601f106128b5576101008083540402835291602001916128e0565b820191906000526020600020905b8154815290600101906020018083116128c357829003601f168201915b50505050509350828054600181600116156101000203166002900480601f01602080910402602001604051908101604052809291908181526020018280546001816001161561010002031660029004801561297c5780601f106129515761010080835404028352916020019161297c565b820191906000526020600020905b81548152906001019060200180831161295f57829003601f168201915b505050505092509650965096509650965050509295509295909350565b816006600082815260200190815260200160002060050160009054906101000a900460ff16612a30576040517f08c379a000000000000000000000000000000000000000000000000000000000815260040180806020018281038252601c8152602001807f77696e652070726f647563657220646f6573206e6f742065786973740000000081525060200191505060405180910390fd5b3373ffffffffffffffffffffffffffffffffffffffff166006600083815260200190815260200160002060020160009054906101000a900473ffffffffffffffffffffffffffffffffffffffff1673ffffffffffffffffffffffffffffffffffffffff1614612aea576040517f08c379a0000000000000000000000000000000000000000000000000000000008152600401808060200182810382526024815260200180613a306024913960400191505060405180910390fd5b8282600115156006600084815260200190815260200160002060050160009054906101000a900460ff16151514612b89576040517f08c379a000000000000000000000000000000000000000000000000000000000815260040180806020018281038252601c8152602001807f77696e652070726f647563657220646f6573206e6f742065786973740000000081525060200191505060405180910390fd5b6001151560066000848152602001908152602001600020600401600083815260200190815260200160002060090160009054906101000a900460ff16151514612c3a576040517f08c379a00000000000000000000000000000000000000000000000000000000081526004018080602001828103825260138152602001807f77696e6520646f6573206e6f742065786973740000000000000000000000000081525060200191505060405180910390fd5b6000841015612c94576040517f08c379a0000000000000000000000000000000000000000000000000000000008152600401808060200182810382526028815260200180613a546028913960400191505060405180910390fd5b60016006600087815260200190815260200160002060050160016101000a81548160ff0219169083151502179055507f81cad14f899f0924e2450399fdfd7e71b0f142022f07e8b134060f5db77d8ffb60066000878152602001908152602001600020600001338660405180806020018473ffffffffffffffffffffffffffffffffffffffff1673ffffffffffffffffffffffffffffffffffffffff168152602001838152602001828103825285818154600181600116156101000203166002900481526020019150805460018160011615610100020316600290048015612dbd5780601f10612d9257610100808354040283529160200191612dbd565b820191906000526020600020905b815481529060010190602001808311612da057829003601f168201915b505094505050505060405180910390a15050505050565b606060008060008585600115156006600084815260200190815260200160002060050160009054906101000a900460ff16151514612e7a576040517f08c379a000000000000000000000000000000000000000000000000000000000815260040180806020018281038252601c8152602001807f77696e652070726f647563657220646f6573206e6f742065786973740000000081525060200191505060405180910390fd5b6001151560066000848152602001908152602001600020600401600083815260200190815260200160002060090160009054906101000a900460ff16151514612f2b576040517f08c379a00000000000000000000000000000000000000000000000000000000081526004018080602001828103825260138152602001807f77696e6520646f6573206e6f742065786973740000000000000000000000000081525060200191505060405180910390fd5b600660008981526020019081526020016000206004016000888152602001908152602001600020600001600660008a8152602001908152602001600020600401600089815260200190815260200160002060040154600660008b815260200190815260200160002060040160008a815260200190815260200160002060070154600660008c815260200190815260200160002060040160008b815260200190815260200160002060080154838054600181600116156101000203166002900480601f01602080910402602001604051908101604052809291908181526020018280546001816001161561010002031660029004801561306b5780601f106130405761010080835404028352916020019161306b565b820191906000526020600020905b81548152906001019060200180831161304e57829003601f168201915b505050505093509550955095509550505092959194509250565b60008060009054906101000a900473ffffffffffffffffffffffffffffffffffffffff1673ffffffffffffffffffffffffffffffffffffffff163373ffffffffffffffffffffffffffffffffffffffff1614613149576040517f08c379a00000000000000000000000000000000000000000000000000000000081526004018080602001828103825260178152602001807f6d73672e73656e646572206973206e6f74206f776e657200000000000000000081525060200191505060405180910390fd5b600160009054906101000a900473ffffffffffffffffffffffffffffffffffffffff1673ffffffffffffffffffffffffffffffffffffffff168273ffffffffffffffffffffffffffffffffffffffff1614613270576002600160009054906101000a900473ffffffffffffffffffffffffffffffffffffffff1690806001815401808255809150509060018203906000526020600020016000909192909190916101000a81548173ffffffffffffffffffffffffffffffffffffffff021916908373ffffffffffffffffffffffffffffffffffffffff1602179055505081600160006101000a81548173ffffffffffffffffffffffffffffffffffffffff021916908373ffffffffffffffffffffffffffffffffffffffff16021790555060019050613275565b600090505b919050565b600060011515600560003373ffffffffffffffffffffffffffffffffffffffff1673ffffffffffffffffffffffffffffffffffffffff16815260200190815260200160002060009054906101000a900460ff16151514613342576040517f08c379a00000000000000000000000000000000000000000000000000000000081526004018080602001828103825260178152602001807f6d73672e73656e646572206973206e6f742061646d696e00000000000000000081525060200191505060405180910390fd5b600060045490506040518060c001604052808681526020018581526020018473ffffffffffffffffffffffffffffffffffffffff16815260200160008152602001600115158152602001600115158152506006600083815260200190815260200160002060008201518160000190805190602001906133c292919061398a565b5060208201518160010190805190602001906133df92919061398a565b5060408201518160020160006101000a81548173ffffffffffffffffffffffffffffffffffffffff021916908373ffffffffffffffffffffffffffffffffffffffff1602179055506060820151816003015560808201518160050160006101000a81548160ff02191690831515021790555060a08201518160050160016101000a81548160ff0219169083151502179055509050507f723993f718abf27619ef9f2f67f244d1cb5df0839150c449e0f95bce94b64c5d85848360405180806020018473ffffffffffffffffffffffffffffffffffffffff1673ffffffffffffffffffffffffffffffffffffffff168152602001838152602001828103825285818151815260200191508051906020019080838360005b838110156135105780820151818401526020810190506134f5565b50505050905090810190601f16801561353d5780820380516001836020036101000a031916815260200191505b5094505050505060405180910390a1600460008154809291906001019190505550809150509392505050565b816006600082815260200190815260200160002060050160009054906101000a900460ff16613600576040517f08c379a000000000000000000000000000000000000000000000000000000000815260040180806020018281038252601c8152602001807f77696e652070726f647563657220646f6573206e6f742065786973740000000081525060200191505060405180910390fd5b3373ffffffffffffffffffffffffffffffffffffffff166006600083815260200190815260200160002060020160009054906101000a900473ffffffffffffffffffffffffffffffffffffffff1673ffffffffffffffffffffffffffffffffffffffff16146136ba576040517f08c379a0000000000000000000000000000000000000000000000000000000008152600401808060200182810382526024815260200180613a306024913960400191505060405180910390fd5b8282600115156006600084815260200190815260200160002060050160009054906101000a900460ff16151514613759576040517f08c379a000000000000000000000000000000000000000000000000000000000815260040180806020018281038252601c8152602001807f77696e652070726f647563657220646f6573206e6f742065786973740000000081525060200191505060405180910390fd5b6001151560066000848152602001908152602001600020600401600083815260200190815260200160002060090160009054906101000a900460ff1615151461380a576040517f08c379a00000000000000000000000000000000000000000000000000000000081526004018080602001828103825260138152602001807f77696e6520646f6573206e6f742065786973740000000000000000000000000081525060200191505060405180910390fd5b600060066000878152602001908152602001600020600401600086815260200190815260200160002060090160016101000a81548160ff02191690831515021790555060006006600087815260200190815260200160002060020160009054906101000a900473ffffffffffffffffffffffffffffffffffffffff1673ffffffffffffffffffffffffffffffffffffffff163190506000809054906101000a900473ffffffffffffffffffffffffffffffffffffffff1673ffffffffffffffffffffffffffffffffffffffff166108fc829081150290604051600060405180830381858888f19350505050158015613906573d6000803e3d6000fd5b507f44b9736b00c182e52df2a3c058a074be7a17d58dc0d93182cd3368dc2287a4e233828888604051808573ffffffffffffffffffffffffffffffffffffffff1673ffffffffffffffffffffffffffffffffffffffff16815260200184815260200183815260200182815260200194505050505060405180910390a1505050505050565b828054600181600116156101000203166002900490600052602060002090601f016020900481019282601f106139cb57805160ff19168380011785556139f9565b828001600101855582156139f9579182015b828111156139f85782518255916020019190600101906139dd565b5b509050613a069190613a0a565b5090565b613a2c91905b80821115613a28576000816000905550600101613a10565b5090565b9056fe77696e652070726f6475636572206164647265737320646f6573206e6f74206d6174636877696e654964206973206e6f742067726561746572207468616e206f7220657175616c20746f20306e6f7420656e6f7567682076616c75652073656e7420746f206275792077696e65736e65774964206973206e6f742067726561746572207468616e206f7220657175616c20746f2030a165627a7a72305820e3b761d7643453ca601e8ddc71e55519afbb6992fd185fef18455b04a5e2b8cc0029",
  "source": "pragma solidity ^0.5.0;\n\n    /*\n        The EventTicketsV2 contract keeps track of the details and ticket sales of multiple events.\n     */\ncontract VintageExplorer{\n    enum WineTypes {\n        Red,\n        White,\n        Rose,\n        Sparkling\n    }\n    /*\n        Define an public owner variable. Set it to the creator of the contract when it is initialized.\n    */\n    address payable public owner;\n    bool public stopped = false;\n    address backendContract;\n    address[] previousBackends;\n\n    uint ONE_WEI = 1 wei;\n\n    /*\n        Create a variable to keep track of the wine ID numbers.\n    */\n    uint public numWineProducers;\n\n    \n    /*\n        Define an Event struct, similar to the V1 of this contract.\n        The struct has 6 fields: description, website (URL), totalTickets, sales, buyers, and isOpen.\n        Choose the appropriate variable type for each field.\n        The \"buyers\" field should keep track of addresses and how many tickets each buyer purchases.\n    */\n\n    struct WineProducer {\n        string name;\n        string website;\n        address wineProducer;\n        uint numWines;\n        mapping (uint => Wine) wines;\n        bool exists;\n        bool isOpen;\n    }\n\n    struct Wine {\n        string name;\n        string description;\n        string sku;\n        uint vintage;\n        uint totalSupply;\n        WineTypes wineType;\n        mapping (address => uint) owners;\n        uint price;\n        uint totalSales;\n        bool exists;\n        bool isOpen;\n    }\n\n    mapping (address => bool) admins;\n    /*\n        Create a mapping to keep track of the events.\n        The mapping key is an integer, the value is an Event struct.\n        Call the mapping \"events\".\n    */\n    mapping (uint => WineProducer) wineProducers;\n\n    event LogWineProducerAdded(string name, address wineProducer, uint wineProducerId);\n    event LogWineAdded(string name, address wineProducer, string sku, uint wineId);\n    event LogWineReOpened(string name, address wineProducer, uint wineId);\n    event LogWineClosed(string name, address wineProducer, uint wineId);\n    event LogBuyWine(address buyer,uint wineProducerId, uint wineId, uint numWInes);\n    event LogGetRefund(address buyer,uint wineProducerId, uint wineId, uint amountToRefund);\n    event LogEndSale(address wineProducer,uint balance, uint wineProducerId, uint wineId);\n\n    /*\n        Create a modifier that throws an error if the msg.sender is not the owner.\n    */\n    modifier onlyOwner { require(msg.sender == owner, 'msg.sender is not owner'); _; }\n    modifier onlyAdmin { require(admins[msg.sender] == true, 'msg.sender is not admin'); _; }\n    modifier stopInEmergency { require(!stopped); _;}\n    modifier onlyInEmergency { require(stopped); _;}\n\n    modifier verifyCaller (address _address) { require (msg.sender == _address, 'msg sender is not address'); _;}\n\n    modifier onlyWineProducer (uint _wineProducerId) {\n        require (wineProducers[_wineProducerId].exists, 'wine producer does not exist');\n        require (wineProducers[_wineProducerId].wineProducer == msg.sender, 'wine producer address does not match');\n        _;\n    }\n\n    modifier checkIfWineProducerAndWineExists(uint _wineProducerId, uint _wineId) {\n        require(wineProducers[_wineProducerId].exists == true, 'wine producer does not exist');\n        require(wineProducers[_wineProducerId].wines[_wineId].exists == true, 'wine does not exist');\n        _;\n    }\n\n    modifier paidEnough(uint _price) { require(msg.value >= _price, 'msg value is not enough'); _;}\n\n    constructor() public {\n        owner = msg.sender;\n        admins[msg.sender] = true;\n    }\n\n    function addAdmin(address _a)\n        public\n        onlyAdmin\n        returns(bool)\n    {\n        admins[_a] = true;\n        return true;\n    }\n\n    function kill()\n        public\n        onlyOwner\n    {\n        selfdestruct(owner);\n    }\n\n    function changeBackend(address newBackend) public\n        onlyOwner()\n        returns (bool)\n    {\n        if(newBackend != backendContract) {\n            previousBackends.push(backendContract);\n            backendContract = newBackend;\n            return true;\n        }\n        return false;\n    }\n\n    /*\n        Define a function called addEvent().\n        This function takes 3 parameters, an event description, a URL, and a number of tickets.\n        Only the contract owner should be able to call this function.\n        In the function:\n            - Set the description, URL and ticket number in a new event.\n            - set the event to open\n            - set an event ID\n            - increment the ID\n            - emit the appropriate event\n            - return the event's ID\n    */\n\n    function addWineProducer(string memory _name, string memory _website, address _wineProducer)\n        public\n        onlyAdmin()\n        returns(uint)\n    {\n        uint newId = numWineProducers;\n        wineProducers[newId] = WineProducer({\n            name : _name,\n            website : _website,\n            wineProducer : _wineProducer,\n            numWines : 0,\n            exists : true,\n            isOpen : true\n        });\n        emit LogWineProducerAdded(_name, _wineProducer, newId);\n        numWineProducers++;\n        return newId;\n    }\n\n    function addWine(uint wineProducerId, string memory _name,\n        string memory _description, string memory _sku, uint _vintage,\n        WineTypes _wineType, uint _totalSupply, uint _priceEth)\n        public\n        onlyWineProducer(wineProducerId)\n        returns(uint)\n    {\n        uint newId = wineProducers[wineProducerId].numWines;\n        require(newId >= 0, \"newId is not greater than or equal to 0\");\n        wineProducers[wineProducerId].wines[newId] = Wine({\n            name : _name,\n            description : _description,\n            sku : _sku,\n            vintage : _vintage,\n            totalSupply : _totalSupply,\n            wineType : _wineType,\n            price : _priceEth,\n            totalSales : 0,\n            exists : true,\n            isOpen : true\n        });\n        emit LogWineAdded(_name, msg.sender, _sku, newId);\n        wineProducers[wineProducerId].numWines++;\n        return newId;\n    }\n\n    function reOpenWine(uint _wineProducerId, uint _wineId)\n        public\n        onlyWineProducer(_wineProducerId)\n        checkIfWineProducerAndWineExists(_wineProducerId, _wineId)\n    {\n        require(_wineId >= 0, \"wineId is not greater than or equal to 0\");\n        wineProducers[_wineProducerId].isOpen = false;\n        emit LogWineReOpened(wineProducers[_wineProducerId].name, msg.sender, _wineId);\n    }\n\n    function closeWine(uint _wineProducerId, uint _wineId)\n        public\n        onlyWineProducer( _wineProducerId)\n        checkIfWineProducerAndWineExists(_wineProducerId, _wineId)\n    {\n        require(_wineId >= 0, \"wineId is not greater than or equal to 0\");\n        wineProducers[_wineProducerId].isOpen = true;\n        emit LogWineReOpened(wineProducers[_wineProducerId].name, msg.sender, _wineId);\n    }\n\n    /*\n        Define a function called readEvent().\n        This function takes one parameter, the event ID.\n        The function returns information about the event this order:\n            1. description\n            2. URL\n            3. ticket available\n            4. sales\n            5. isOpen\n    */\n    function readWineProducer(uint wineProducerId)\n        public\n        view\n        returns(string memory name, string memory website,\n        uint numWines, bool isOpen)\n    {\n        return (\n            wineProducers[wineProducerId].name,\n            wineProducers[wineProducerId].website,\n            wineProducers[wineProducerId].numWines,\n            wineProducers[wineProducerId].isOpen\n        );\n    }\n    /*\n        Define a function called readEvent().\n        This function takes one parameter, the event ID.\n        The function returns information about the event this order:\n            1. description\n            2. URL\n            3. ticket available\n            4. sales\n            5. isOpen\n    */\n    function readWineDescription(uint _wineProducerId, uint _wineId)\n        public\n        view\n        checkIfWineProducerAndWineExists(_wineProducerId, _wineId)\n        returns(string memory name, string memory description,\n        string memory sku, uint vintage, WineTypes wineType\n        )\n    {\n        return (\n            wineProducers[_wineProducerId].wines[_wineId].name,\n            wineProducers[_wineProducerId].wines[_wineId].description,\n            wineProducers[_wineProducerId].wines[_wineId].sku,\n            wineProducers[_wineProducerId].wines[_wineId].vintage,\n            wineProducers[_wineProducerId].wines[_wineId].wineType\n        );\n    }\n\n    function readWineSalesRelated(uint _wineProducerId, uint _wineId)\n        public\n        view\n        checkIfWineProducerAndWineExists(_wineProducerId, _wineId)\n        returns(string memory name, uint totalSupply,\n        uint price, uint totalSales)\n    {\n        return (\n            wineProducers[_wineProducerId].wines[_wineId].name,\n            wineProducers[_wineProducerId].wines[_wineId].totalSupply,\n            wineProducers[_wineProducerId].wines[_wineId].price,\n            wineProducers[_wineProducerId].wines[_wineId].totalSales\n        );\n    }\n\n    function checkIfWineIsOpen(uint _wineProducerId, uint _wineId)\n        public\n        view\n        checkIfWineProducerAndWineExists(_wineProducerId, _wineId)\n        returns(bool isOpen)\n    {\n        return (\n            wineProducers[_wineProducerId].wines[_wineId].isOpen\n        );\n    }\n\n    \n    /*\n        Define a function called buyTickets().\n        This function allows users to buy tickets for a specific event.\n        This function takes 2 parameters, an event ID and a number of tickets.\n        The function checks:\n            - that the event sales are open\n            - that the transaction value is sufficient to purchase the number of tickets\n            - that there are enough tickets available to complete the purchase\n        The function:\n            - increments the purchasers ticket count\n            - increments the ticket sale count\n            - refunds any surplus value sent\n            - emits the appropriate event\n    */\n\n    function buyWine(uint wineProducerId, uint wineId, uint numberOfPurchasingWines)\n        public\n        payable\n        checkIfWineProducerAndWineExists(wineProducerId, wineId)\n    {\n        uint winePrice = (wineProducers[wineProducerId].wines[wineId].price) * ONE_WEI;\n        require(msg.value >=\n            winePrice * numberOfPurchasingWines,\n            'not enough value sent to buy wines');\n        require(wineProducers[wineProducerId].wines[wineId].totalSupply\n            >= numberOfPurchasingWines, 'Not enough wines left');\n        wineProducers[wineProducerId].wines[wineId].owners[msg.sender] += numberOfPurchasingWines;\n        wineProducers[wineProducerId].wines[wineId].totalSales += numberOfPurchasingWines;\n        wineProducers[wineProducerId].wines[wineId].totalSupply -= numberOfPurchasingWines;\n        emit LogBuyWine(msg.sender, wineProducerId, wineId, numberOfPurchasingWines);\n        if(msg.value -\n            winePrice*numberOfPurchasingWines > 0\n        ){\n            uint amountToRefund = msg.value - winePrice * numberOfPurchasingWines * numberOfPurchasingWines;\n            msg.sender.transfer(amountToRefund);\n            emit LogGetRefund(msg.sender, wineProducerId, wineId, amountToRefund);\n        }\n    }\n\n    // /*\n    //     Define a function called getRefund().\n    //     This function allows users to request a refund for a specific event.\n    //     This function takes one parameter, the event ID.\n    //     TODO:\n    //         - check that a user has purchased tickets for the event\n    //         - remove refunded tickets from the sold count\n    //         - send appropriate value to the refund requester\n    //         - emit the appropriate event\n    // */\n\n    function getRefund(uint wineProducerId, uint wineId)\n        public\n        checkIfWineProducerAndWineExists(wineProducerId, wineId)\n    {\n        uint numberOfWines = wineProducers[wineProducerId].wines[wineId].owners[msg.sender];\n        uint winePrice = wineProducers[wineProducerId].wines[wineId].price * ONE_WEI;\n        require(numberOfWines > 0, 'not enough wines');\n        uint amountToRefund = winePrice * numberOfWines;\n        msg.sender.transfer(amountToRefund);\n        emit LogGetRefund(msg.sender, wineProducerId, wineId, amountToRefund);\n        wineProducers[wineProducerId].wines[wineId].owners[msg.sender] -= numberOfWines;\n        wineProducers[wineProducerId].wines[wineId].totalSales -= numberOfWines;\n        wineProducers[wineProducerId].wines[wineId].totalSupply += numberOfWines;\n    }\n\n    // /*\n    //     Define a function called getBuyerNumberTickets()\n    //     This function takes one parameter, an event ID\n    //     This function returns a uint, the number of tickets that the msg.sender has purchased.\n    // */\n    function getOwnersNumberOfWines(uint wineProducerId, uint wineId)\n        public\n        view\n        checkIfWineProducerAndWineExists(wineProducerId, wineId)\n        returns(uint purchasedWines)\n    {\n        return wineProducers[wineProducerId].wines[wineId].owners[msg.sender];\n    }\n    // /*\n    //     Define a function called endSale()\n    //     This function takes one parameter, the event ID\n    //     Only the contract owner can call this function\n    //     TODO:\n    //         - close event sales\n    //         - transfer the balance from those event sales to the contract owner\n    //         - emit the appropriate event\n    // */\n    function endSale(uint wineProducerId, uint wineId)\n        public\n        onlyWineProducer(wineProducerId)\n        checkIfWineProducerAndWineExists(wineProducerId, wineId)\n    {\n        wineProducers[wineProducerId].wines[wineId].isOpen = false;\n        uint balance = address(wineProducers[wineProducerId].wineProducer).balance;\n        owner.transfer(balance);\n        emit LogEndSale(msg.sender, balance, wineProducerId, wineId);\n    }\n}\n",
  "sourcePath": "/git/vintage-explorer/contracts/VintageExplorer.sol",
  "compiler": {
    "name": "solc",
    "version": "0.5.8+commit.23d335f2.Emscripten.clang"
  },
  "schemaVersion": "3.0.11",
  "updatedAt": "2019-07-19T07:41:28.788Z",
  "devdoc": {
    "methods": {}
  },
  "userdoc": {
    "methods": {}
  }
}