{
  "contractName": "VintageExplorer",
  "abi": [
    {
      "constant": true,
      "inputs": [],
      "name": "numWineProducers",
      "outputs": [
        {
          "name": "",
          "type": "uint256"
        }
      ],
      "payable": false,
      "stateMutability": "view",
      "type": "function"
    },
    {
      "constant": true,
      "inputs": [],
      "name": "stopped",
      "outputs": [
        {
          "name": "",
          "type": "bool"
        }
      ],
      "payable": false,
      "stateMutability": "view",
      "type": "function"
    },
    {
      "constant": true,
      "inputs": [],
      "name": "owner",
      "outputs": [
        {
          "name": "",
          "type": "address"
        }
      ],
      "payable": false,
      "stateMutability": "view",
      "type": "function"
    },
    {
      "inputs": [],
      "payable": false,
      "stateMutability": "nonpayable",
      "type": "constructor"
    },
    {
      "anonymous": false,
      "inputs": [
        {
          "indexed": false,
          "name": "name",
          "type": "string"
        },
        {
          "indexed": false,
          "name": "wineProducerAddress",
          "type": "address"
        },
        {
          "indexed": false,
          "name": "wineProducerId",
          "type": "uint256"
        }
      ],
      "name": "LogWineProducerAdded",
      "type": "event"
    },
    {
      "anonymous": false,
      "inputs": [
        {
          "indexed": false,
          "name": "name",
          "type": "string"
        },
        {
          "indexed": false,
          "name": "wineProducerAddress",
          "type": "address"
        },
        {
          "indexed": false,
          "name": "sku",
          "type": "string"
        },
        {
          "indexed": false,
          "name": "wineId",
          "type": "uint256"
        }
      ],
      "name": "LogWineAdded",
      "type": "event"
    },
    {
      "anonymous": false,
      "inputs": [
        {
          "indexed": false,
          "name": "name",
          "type": "string"
        },
        {
          "indexed": false,
          "name": "wineProducerAddress",
          "type": "address"
        },
        {
          "indexed": false,
          "name": "wineId",
          "type": "uint256"
        }
      ],
      "name": "LogWineReOpened",
      "type": "event"
    },
    {
      "anonymous": false,
      "inputs": [
        {
          "indexed": false,
          "name": "name",
          "type": "string"
        },
        {
          "indexed": false,
          "name": "wineProducerAddress",
          "type": "address"
        },
        {
          "indexed": false,
          "name": "wineId",
          "type": "uint256"
        }
      ],
      "name": "LogWineClosed",
      "type": "event"
    },
    {
      "anonymous": false,
      "inputs": [
        {
          "indexed": false,
          "name": "buyer",
          "type": "address"
        },
        {
          "indexed": false,
          "name": "wineId",
          "type": "uint256"
        },
        {
          "indexed": false,
          "name": "numWInes",
          "type": "uint256"
        }
      ],
      "name": "LogBuyWine",
      "type": "event"
    },
    {
      "constant": false,
      "inputs": [
        {
          "name": "_a",
          "type": "address"
        }
      ],
      "name": "addAdmin",
      "outputs": [
        {
          "name": "",
          "type": "bool"
        }
      ],
      "payable": false,
      "stateMutability": "nonpayable",
      "type": "function"
    },
    {
      "constant": false,
      "inputs": [],
      "name": "kill",
      "outputs": [],
      "payable": false,
      "stateMutability": "nonpayable",
      "type": "function"
    },
    {
      "constant": false,
      "inputs": [
        {
          "name": "newBackend",
          "type": "address"
        }
      ],
      "name": "changeBackend",
      "outputs": [
        {
          "name": "",
          "type": "bool"
        }
      ],
      "payable": false,
      "stateMutability": "nonpayable",
      "type": "function"
    },
    {
      "constant": false,
      "inputs": [
        {
          "name": "_name",
          "type": "string"
        },
        {
          "name": "_website",
          "type": "string"
        },
        {
          "name": "_wineProducerAddress",
          "type": "address"
        }
      ],
      "name": "addWineProducer",
      "outputs": [
        {
          "name": "",
          "type": "uint256"
        }
      ],
      "payable": false,
      "stateMutability": "nonpayable",
      "type": "function"
    },
    {
      "constant": false,
      "inputs": [
        {
          "name": "_wineProducerAddress",
          "type": "address"
        },
        {
          "name": "wineProducerId",
          "type": "uint256"
        },
        {
          "name": "_name",
          "type": "string"
        },
        {
          "name": "_description",
          "type": "string"
        },
        {
          "name": "_sku",
          "type": "string"
        },
        {
          "name": "_vintage",
          "type": "uint256"
        },
        {
          "name": "_totalSupply",
          "type": "uint256"
        }
      ],
      "name": "addWine",
      "outputs": [
        {
          "name": "",
          "type": "uint256"
        }
      ],
      "payable": false,
      "stateMutability": "nonpayable",
      "type": "function"
    },
    {
      "constant": false,
      "inputs": [
        {
          "name": "_wineProducerAddress",
          "type": "address"
        },
        {
          "name": "_wineProducerId",
          "type": "uint256"
        },
        {
          "name": "_wineId",
          "type": "uint256"
        }
      ],
      "name": "reOpenWine",
      "outputs": [],
      "payable": false,
      "stateMutability": "nonpayable",
      "type": "function"
    },
    {
      "constant": false,
      "inputs": [
        {
          "name": "_wineProducerAddress",
          "type": "address"
        },
        {
          "name": "_wineProducerId",
          "type": "uint256"
        },
        {
          "name": "_wineId",
          "type": "uint256"
        }
      ],
      "name": "closeWine",
      "outputs": [],
      "payable": false,
      "stateMutability": "nonpayable",
      "type": "function"
    },
    {
      "constant": true,
      "inputs": [
        {
          "name": "wineProducerId",
          "type": "uint256"
        }
      ],
      "name": "readWineProducer",
      "outputs": [
        {
          "name": "name",
          "type": "string"
        },
        {
          "name": "website",
          "type": "string"
        },
        {
          "name": "wineProducerAddress",
          "type": "address"
        },
        {
          "name": "numWines",
          "type": "uint256"
        },
        {
          "name": "isOpen",
          "type": "bool"
        }
      ],
      "payable": false,
      "stateMutability": "view",
      "type": "function"
    },
    {
      "constant": true,
      "inputs": [
        {
          "name": "wineProducerId",
          "type": "uint256"
        },
        {
          "name": "wineId",
          "type": "uint256"
        }
      ],
      "name": "readWine",
      "outputs": [
        {
          "name": "name",
          "type": "string"
        },
        {
          "name": "description",
          "type": "string"
        },
        {
          "name": "sku",
          "type": "string"
        },
        {
          "name": "vintage",
          "type": "uint256"
        },
        {
          "name": "totalSupply",
          "type": "uint256"
        },
        {
          "name": "isOpen",
          "type": "bool"
        }
      ],
      "payable": false,
      "stateMutability": "view",
      "type": "function"
    }
  ],
  "bytecode": "0x608060405260008060146101000a81548160ff021916908315150217905550606460035534801561002f57600080fd5b50336000806101000a81548173ffffffffffffffffffffffffffffffffffffffff021916908373ffffffffffffffffffffffffffffffffffffffff16021790555061229e8061007f6000396000f3fe608060405234801561001057600080fd5b50600436106100b45760003560e01c80638da5cb5b116100715780638da5cb5b146103f2578063ab13f2251461043c578063bd194b6314610594578063d9b61565146105ec578063eaecfca71461078e578063f3597bd0146107ea576100b4565b8063230a3704146100b957806341c0e1b5146100d75780634b915eb9146100e15780634fca51e61461031c578063704802751461037457806375f12b21146103d0575b600080fd5b6100c1610970565b6040518082815260200191505060405180910390f35b6100df610976565b005b610306600480360360e08110156100f757600080fd5b81019080803573ffffffffffffffffffffffffffffffffffffffff169060200190929190803590602001909291908035906020019064010000000081111561013e57600080fd5b82018360208201111561015057600080fd5b8035906020019184600183028401116401000000008311171561017257600080fd5b91908080601f016020809104026020016040519081016040528093929190818152602001838380828437600081840152601f19601f820116905080830192505050505050509192919290803590602001906401000000008111156101d557600080fd5b8201836020820111156101e757600080fd5b8035906020019184600183028401116401000000008311171561020957600080fd5b91908080601f016020809104026020016040519081016040528093929190818152602001838380828437600081840152601f19601f8201169050808301925050505050505091929192908035906020019064010000000081111561026c57600080fd5b82018360208201111561027e57600080fd5b803590602001918460018302840111640100000000831117156102a057600080fd5b91908080601f016020809104026020016040519081016040528093929190818152602001838380828437600081840152601f19601f8201169050808301925050505050505091929192908035906020019092919080359060200190929190505050610a72565b6040518082815260200191505060405180910390f35b6103726004803603606081101561033257600080fd5b81019080803573ffffffffffffffffffffffffffffffffffffffff1690602001909291908035906020019092919080359060200190929190505050610f66565b005b6103b66004803603602081101561038a57600080fd5b81019080803573ffffffffffffffffffffffffffffffffffffffff1690602001909291905050506112f3565b604051808215151515815260200191505060405180910390f35b6103d86113c0565b604051808215151515815260200191505060405180910390f35b6103fa6113d3565b604051808273ffffffffffffffffffffffffffffffffffffffff1673ffffffffffffffffffffffffffffffffffffffff16815260200191505060405180910390f35b6104686004803603602081101561045257600080fd5b81019080803590602001909291905050506113f8565b6040518080602001806020018673ffffffffffffffffffffffffffffffffffffffff1673ffffffffffffffffffffffffffffffffffffffff16815260200185815260200184151515158152602001838103835288818151815260200191508051906020019080838360005b838110156104ee5780820151818401526020810190506104d3565b50505050905090810190601f16801561051b5780820380516001836020036101000a031916815260200191505b50838103825287818151815260200191508051906020019080838360005b83811015610554578082015181840152602081019050610539565b50505050905090810190601f1680156105815780820380516001836020036101000a031916815260200191505b5097505050505050505060405180910390f35b6105ea600480360360608110156105aa57600080fd5b81019080803573ffffffffffffffffffffffffffffffffffffffff16906020019092919080359060200190929190803590602001909291905050506115e9565b005b6106226004803603604081101561060257600080fd5b810190808035906020019092919080359060200190929190505050611976565b604051808060200180602001806020018781526020018681526020018515151515815260200184810384528a818151815260200191508051906020019080838360005b83811015610680578082015181840152602081019050610665565b50505050905090810190601f1680156106ad5780820380516001836020036101000a031916815260200191505b50848103835289818151815260200191508051906020019080838360005b838110156106e65780820151818401526020810190506106cb565b50505050905090810190601f1680156107135780820380516001836020036101000a031916815260200191505b50848103825288818151815260200191508051906020019080838360005b8381101561074c578082015181840152602081019050610731565b50505050905090810190601f1680156107795780820380516001836020036101000a031916815260200191505b50995050505050505050505060405180910390f35b6107d0600480360360208110156107a457600080fd5b81019080803573ffffffffffffffffffffffffffffffffffffffff169060200190929190505050611c76565b604051808215151515815260200191505060405180910390f35b61095a6004803603606081101561080057600080fd5b810190808035906020019064010000000081111561081d57600080fd5b82018360208201111561082f57600080fd5b8035906020019184600183028401116401000000008311171561085157600080fd5b91908080601f016020809104026020016040519081016040528093929190818152602001838380828437600081840152601f19601f820116905080830192505050505050509192919290803590602001906401000000008111156108b457600080fd5b8201836020820111156108c657600080fd5b803590602001918460018302840111640100000000831117156108e857600080fd5b91908080601f016020809104026020016040519081016040528093929190818152602001838380828437600081840152601f19601f820116905080830192505050505050509192919290803573ffffffffffffffffffffffffffffffffffffffff169060200190929190505050611e6b565b6040518082815260200191505060405180910390f35b60045481565b6000809054906101000a900473ffffffffffffffffffffffffffffffffffffffff1673ffffffffffffffffffffffffffffffffffffffff163373ffffffffffffffffffffffffffffffffffffffff1614610a38576040517f08c379a00000000000000000000000000000000000000000000000000000000081526004018080602001828103825260178152602001807f6d73672e73656e646572206973206e6f74206f776e657200000000000000000081525060200191505060405180910390fd5b6000809054906101000a900473ffffffffffffffffffffffffffffffffffffffff1673ffffffffffffffffffffffffffffffffffffffff16ff5b600087878173ffffffffffffffffffffffffffffffffffffffff163373ffffffffffffffffffffffffffffffffffffffff1614610b17576040517f08c379a00000000000000000000000000000000000000000000000000000000081526004018080602001828103825260198152602001807f6d73672073656e646572206973206e6f7420616464726573730000000000000081525060200191505060405180910390fd5b6006600082815260200190815260200160002060050160009054906101000a900460ff16610bad576040517f08c379a000000000000000000000000000000000000000000000000000000000815260040180806020018281038252601c8152602001807f77696e652070726f647563657220646f6573206e6f742065786973740000000081525060200191505060405180910390fd5b8173ffffffffffffffffffffffffffffffffffffffff166006600083815260200190815260200160002060020160009054906101000a900473ffffffffffffffffffffffffffffffffffffffff1673ffffffffffffffffffffffffffffffffffffffff1614610c67576040517f08c379a00000000000000000000000000000000000000000000000000000000081526004018080602001828103825260248152602001806122006024913960400191505060405180910390fd5b6000600660008b81526020019081526020016000206003015490506000811015610cdc576040517f08c379a000000000000000000000000000000000000000000000000000000000815260040180806020018281038252602781526020018061224c6027913960400191505060405180910390fd5b6040518060e001604052808a815260200189815260200188815260200187815260200186815260200160011515815260200160011515815250600660008c815260200190815260200160002060040160008381526020019081526020016000206000820151816000019080519060200190610d5892919061215a565b506020820151816001019080519060200190610d7592919061215a565b506040820151816002019080519060200190610d9292919061215a565b50606082015181600301556080820151816004015560a08201518160060160006101000a81548160ff02191690831515021790555060c08201518160060160016101000a81548160ff0219169083151502179055509050507f070aa1bb7e0e9a57005aa19310dc9c99e1fd3c956b5fdb1ceb59038ea442faf9898c898460405180806020018573ffffffffffffffffffffffffffffffffffffffff1673ffffffffffffffffffffffffffffffffffffffff16815260200180602001848152602001838103835287818151815260200191508051906020019080838360005b83811015610e8b578082015181840152602081019050610e70565b50505050905090810190601f168015610eb85780820380516001836020036101000a031916815260200191505b50838103825285818151815260200191508051906020019080838360005b83811015610ef1578082015181840152602081019050610ed6565b50505050905090810190601f168015610f1e5780820380516001836020036101000a031916815260200191505b50965050505050505060405180910390a1600660008b815260200190815260200160002060030160008154809291906001019190505550809350505050979650505050505050565b82828173ffffffffffffffffffffffffffffffffffffffff163373ffffffffffffffffffffffffffffffffffffffff1614611009576040517f08c379a00000000000000000000000000000000000000000000000000000000081526004018080602001828103825260198152602001807f6d73672073656e646572206973206e6f7420616464726573730000000000000081525060200191505060405180910390fd5b6006600082815260200190815260200160002060050160009054906101000a900460ff1661109f576040517f08c379a000000000000000000000000000000000000000000000000000000000815260040180806020018281038252601c8152602001807f77696e652070726f647563657220646f6573206e6f742065786973740000000081525060200191505060405180910390fd5b8173ffffffffffffffffffffffffffffffffffffffff166006600083815260200190815260200160002060020160009054906101000a900473ffffffffffffffffffffffffffffffffffffffff1673ffffffffffffffffffffffffffffffffffffffff1614611159576040517f08c379a00000000000000000000000000000000000000000000000000000000081526004018080602001828103825260248152602001806122006024913960400191505060405180910390fd5b60008310156111b3576040517f08c379a00000000000000000000000000000000000000000000000000000000081526004018080602001828103825260288152602001806122246028913960400191505060405180910390fd5b60016006600086815260200190815260200160002060050160016101000a81548160ff0219169083151502179055507f81cad14f899f0924e2450399fdfd7e71b0f142022f07e8b134060f5db77d8ffb60066000868152602001908152602001600020600001868560405180806020018473ffffffffffffffffffffffffffffffffffffffff1673ffffffffffffffffffffffffffffffffffffffff1681526020018381526020018281038252858181546001816001161561010002031660029004815260200191508054600181600116156101000203166002900480156112dc5780601f106112b1576101008083540402835291602001916112dc565b820191906000526020600020905b8154815290600101906020018083116112bf57829003601f168201915b505094505050505060405180910390a15050505050565b600060011515600560003373ffffffffffffffffffffffffffffffffffffffff1673ffffffffffffffffffffffffffffffffffffffff16815260200190815260200160002060009054906101000a900460ff161515146113bb576040517f08c379a00000000000000000000000000000000000000000000000000000000081526004018080602001828103825260178152602001807f6d73672e73656e646572206973206e6f742061646d696e00000000000000000081525060200191505060405180910390fd5b919050565b600060149054906101000a900460ff1681565b6000809054906101000a900473ffffffffffffffffffffffffffffffffffffffff1681565b606080600080600060066000878152602001908152602001600020600001600660008881526020019081526020016000206001016006600089815260200190815260200160002060020160009054906101000a900473ffffffffffffffffffffffffffffffffffffffff16600660008a815260200190815260200160002060030154600660008b815260200190815260200160002060050160019054906101000a900460ff16848054600181600116156101000203166002900480601f0160208091040260200160405190810160405280929190818152602001828054600181600116156101000203166002900480156115335780601f1061150857610100808354040283529160200191611533565b820191906000526020600020905b81548152906001019060200180831161151657829003601f168201915b50505050509450838054600181600116156101000203166002900480601f0160208091040260200160405190810160405280929190818152602001828054600181600116156101000203166002900480156115cf5780601f106115a4576101008083540402835291602001916115cf565b820191906000526020600020905b8154815290600101906020018083116115b257829003601f168201915b505050505093509450945094509450945091939590929450565b82828173ffffffffffffffffffffffffffffffffffffffff163373ffffffffffffffffffffffffffffffffffffffff161461168c576040517f08c379a00000000000000000000000000000000000000000000000000000000081526004018080602001828103825260198152602001807f6d73672073656e646572206973206e6f7420616464726573730000000000000081525060200191505060405180910390fd5b6006600082815260200190815260200160002060050160009054906101000a900460ff16611722576040517f08c379a000000000000000000000000000000000000000000000000000000000815260040180806020018281038252601c8152602001807f77696e652070726f647563657220646f6573206e6f742065786973740000000081525060200191505060405180910390fd5b8173ffffffffffffffffffffffffffffffffffffffff166006600083815260200190815260200160002060020160009054906101000a900473ffffffffffffffffffffffffffffffffffffffff1673ffffffffffffffffffffffffffffffffffffffff16146117dc576040517f08c379a00000000000000000000000000000000000000000000000000000000081526004018080602001828103825260248152602001806122006024913960400191505060405180910390fd5b6000831015611836576040517f08c379a00000000000000000000000000000000000000000000000000000000081526004018080602001828103825260288152602001806122246028913960400191505060405180910390fd5b60006006600086815260200190815260200160002060050160016101000a81548160ff0219169083151502179055507f81cad14f899f0924e2450399fdfd7e71b0f142022f07e8b134060f5db77d8ffb60066000868152602001908152602001600020600001868560405180806020018473ffffffffffffffffffffffffffffffffffffffff1673ffffffffffffffffffffffffffffffffffffffff16815260200183815260200182810382528581815460018160011615610100020316600290048152602001915080546001816001161561010002031660029004801561195f5780601f106119345761010080835404028352916020019161195f565b820191906000526020600020905b81548152906001019060200180831161194257829003601f168201915b505094505050505060405180910390a15050505050565b60608060606000806000600660008981526020019081526020016000206004016000888152602001908152602001600020600001600660008a81526020019081526020016000206004016000898152602001908152602001600020600101600660008b815260200190815260200160002060040160008a8152602001908152602001600020600201600660008c815260200190815260200160002060040160008b815260200190815260200160002060030154600660008d815260200190815260200160002060040160008c815260200190815260200160002060040154600660008e815260200190815260200160002060040160008d815260200190815260200160002060060160019054906101000a900460ff16858054600181600116156101000203166002900480601f016020809104026020016040519081016040528092919081815260200182805460018160011615610100020316600290048015611b215780601f10611af657610100808354040283529160200191611b21565b820191906000526020600020905b815481529060010190602001808311611b0457829003601f168201915b50505050509550848054600181600116156101000203166002900480601f016020809104026020016040519081016040528092919081815260200182805460018160011615610100020316600290048015611bbd5780601f10611b9257610100808354040283529160200191611bbd565b820191906000526020600020905b815481529060010190602001808311611ba057829003601f168201915b50505050509450838054600181600116156101000203166002900480601f016020809104026020016040519081016040528092919081815260200182805460018160011615610100020316600290048015611c595780601f10611c2e57610100808354040283529160200191611c59565b820191906000526020600020905b815481529060010190602001808311611c3c57829003601f168201915b505050505093509550955095509550955095509295509295509295565b60008060009054906101000a900473ffffffffffffffffffffffffffffffffffffffff1673ffffffffffffffffffffffffffffffffffffffff163373ffffffffffffffffffffffffffffffffffffffff1614611d3a576040517f08c379a00000000000000000000000000000000000000000000000000000000081526004018080602001828103825260178152602001807f6d73672e73656e646572206973206e6f74206f776e657200000000000000000081525060200191505060405180910390fd5b600160009054906101000a900473ffffffffffffffffffffffffffffffffffffffff1673ffffffffffffffffffffffffffffffffffffffff168273ffffffffffffffffffffffffffffffffffffffff1614611e61576002600160009054906101000a900473ffffffffffffffffffffffffffffffffffffffff1690806001815401808255809150509060018203906000526020600020016000909192909190916101000a81548173ffffffffffffffffffffffffffffffffffffffff021916908373ffffffffffffffffffffffffffffffffffffffff1602179055505081600160006101000a81548173ffffffffffffffffffffffffffffffffffffffff021916908373ffffffffffffffffffffffffffffffffffffffff16021790555060019050611e66565b600090505b919050565b600060011515600560003373ffffffffffffffffffffffffffffffffffffffff1673ffffffffffffffffffffffffffffffffffffffff16815260200190815260200160002060009054906101000a900460ff16151514611f33576040517f08c379a00000000000000000000000000000000000000000000000000000000081526004018080602001828103825260178152602001807f6d73672e73656e646572206973206e6f742061646d696e00000000000000000081525060200191505060405180910390fd5b600060045490506040518060c001604052808681526020018581526020018473ffffffffffffffffffffffffffffffffffffffff1681526020016000815260200160011515815260200160011515815250600660008381526020019081526020016000206000820151816000019080519060200190611fb392919061215a565b506020820151816001019080519060200190611fd092919061215a565b5060408201518160020160006101000a81548173ffffffffffffffffffffffffffffffffffffffff021916908373ffffffffffffffffffffffffffffffffffffffff1602179055506060820151816003015560808201518160050160006101000a81548160ff02191690831515021790555060a08201518160050160016101000a81548160ff0219169083151502179055509050507f723993f718abf27619ef9f2f67f244d1cb5df0839150c449e0f95bce94b64c5d85848360405180806020018473ffffffffffffffffffffffffffffffffffffffff1673ffffffffffffffffffffffffffffffffffffffff168152602001838152602001828103825285818151815260200191508051906020019080838360005b838110156121015780820151818401526020810190506120e6565b50505050905090810190601f16801561212e5780820380516001836020036101000a031916815260200191505b5094505050505060405180910390a1600460008154809291906001019190505550809150509392505050565b828054600181600116156101000203166002900490600052602060002090601f016020900481019282601f1061219b57805160ff19168380011785556121c9565b828001600101855582156121c9579182015b828111156121c85782518255916020019190600101906121ad565b5b5090506121d691906121da565b5090565b6121fc91905b808211156121f85760008160009055506001016121e0565b5090565b9056fe77696e652070726f6475636572206164647265737320646f6573206e6f74206d6174636877696e654964206973206e6f742067726561746572207468616e206f7220657175616c20746f20306e65774964206973206e6f742067726561746572207468616e206f7220657175616c20746f2030a165627a7a72305820aeb2154c9e40e1035db2da51fa74b948c29a6ecbde05855b3fd5f19604eb45650029",
  "source": "pragma solidity ^0.5.0;\n\n    /*\n        The EventTicketsV2 contract keeps track of the details and ticket sales of multiple events.\n     */\ncontract VintageExplorer{\n\n    /*\n        Define an public owner variable. Set it to the creator of the contract when it is initialized.\n    */\n    address payable public owner;\n    bool public stopped = false;\n    address backendContract;\n    address[] previousBackends;\n\n    uint   PRICE_TICKET = 100 wei;\n\n    /*\n        Create a variable to keep track of the wine ID numbers.\n    */\n    uint public numWineProducers;\n\n    \n    /*\n        Define an Event struct, similar to the V1 of this contract.\n        The struct has 6 fields: description, website (URL), totalTickets, sales, buyers, and isOpen.\n        Choose the appropriate variable type for each field.\n        The \"buyers\" field should keep track of addresses and how many tickets each buyer purchases.\n    */\n\n    struct WineProducer {\n        string name;\n        string website;\n        address wineProducerAddress;\n        uint numWines;\n        mapping (uint => Wine) wines;\n        bool exists;\n        bool isOpen;\n    }\n\n    struct Wine {\n        string name;\n        string description;\n        string sku;\n        uint vintage;\n        uint totalSupply;\n        mapping (address => uint) owners;\n        bool exists;\n        bool isOpen;\n    }\n\n    mapping (address => bool) admins;\n    /*\n        Create a mapping to keep track of the events.\n        The mapping key is an integer, the value is an Event struct.\n        Call the mapping \"events\".\n    */\n    mapping (uint => WineProducer) wineProducers;\n\n    event LogWineProducerAdded(string name, address wineProducerAddress, uint wineProducerId);\n    event LogWineAdded(string name, address wineProducerAddress, string sku, uint wineId);\n    event LogWineReOpened(string name, address wineProducerAddress, uint wineId);\n    event LogWineClosed(string name, address wineProducerAddress, uint wineId);\n    event LogBuyWine(address buyer, uint wineId, uint numWInes);\n    \n\n    /*\n        Create a modifier that throws an error if the msg.sender is not the owner.\n    */\n    modifier onlyOwner { require(msg.sender == owner, 'msg.sender is not owner'); _; }\n    modifier onlyAdmin { require(admins[msg.sender] == true, 'msg.sender is not admin'); _; }\n    modifier stopInEmergency { require(!stopped); _;}\n    modifier onlyInEmergency { require(stopped); _;}\n\n\n    modifier verifyCaller (address _address) { require (msg.sender == _address, 'msg sender is not address'); _;}\n\n    modifier verifyWineProducer (address _address, uint _wineProducerId) { \n        require (msg.sender == _address, 'msg sender is not address');\n        require (wineProducers[_wineProducerId].exists, 'wine producer does not exist');\n        require (wineProducers[_wineProducerId].wineProducerAddress == _address, 'wine producer address does not match');\n        _;\n    }\n\n    modifier paidEnough(uint _price) { require(msg.value >= _price, 'msg value is not enough'); _;}\n\n    constructor() public {\n        owner = msg.sender;\n    }\n\n    function addAdmin(address _a) \n        public\n        onlyAdmin\n        returns(bool)\n    {\n\n    }\n\n    function kill()\n        public\n        onlyOwner\n    {\n        selfdestruct(owner);\n    }\n\n    function changeBackend(address newBackend) public\n        onlyOwner()\n        returns (bool)\n    {\n        if(newBackend != backendContract) {\n            previousBackends.push(backendContract);\n            backendContract = newBackend;\n            return true;\n        }\n        return false;\n    }\n\n    /*\n        Define a function called addEvent().\n        This function takes 3 parameters, an event description, a URL, and a number of tickets.\n        Only the contract owner should be able to call this function.\n        In the function:\n            - Set the description, URL and ticket number in a new event.\n            - set the event to open\n            - set an event ID\n            - increment the ID\n            - emit the appropriate event\n            - return the event's ID\n    */\n\n    function addWineProducer(string memory _name, string memory _website, address _wineProducerAddress)\n        public\n        onlyAdmin()\n        returns(uint)\n    {\n        uint newId = numWineProducers;\n        wineProducers[newId] = WineProducer({\n            name : _name,\n            website : _website,\n            wineProducerAddress : _wineProducerAddress,\n            numWines : 0,\n            exists : true,\n            isOpen : true\n        });\n        emit LogWineProducerAdded(_name, _wineProducerAddress, newId);\n        numWineProducers++;\n        return newId;\n    }\n\n    function addWine(address _wineProducerAddress, uint wineProducerId, string memory _name,\n        string memory _description, string memory _sku, uint _vintage, uint _totalSupply)\n        public\n        verifyWineProducer(_wineProducerAddress, wineProducerId)\n        returns(uint)\n    {\n        uint newId = wineProducers[wineProducerId].numWines;\n        require(newId >= 0, \"newId is not greater than or equal to 0\");\n        wineProducers[wineProducerId].wines[newId] = Wine({\n            name : _name,\n            description : _description,\n            sku : _sku,\n            vintage : _vintage,\n            totalSupply : _totalSupply,\n            exists : true,\n            isOpen : true\n        });\n        emit LogWineAdded(_name, _wineProducerAddress, _sku, newId);\n        wineProducers[wineProducerId].numWines++;\n        return newId;\n    }\n\n    function reOpenWine(address _wineProducerAddress, uint _wineProducerId, uint _wineId)\n        public\n        verifyWineProducer(_wineProducerAddress, _wineProducerId)\n    {\n        require(_wineId >= 0, \"wineId is not greater than or equal to 0\");\n        wineProducers[_wineProducerId].isOpen = false;\n        emit LogWineReOpened(wineProducers[_wineProducerId].name, _wineProducerAddress, _wineId);\n    }\n\n    function closeWine(address _wineProducerAddress, uint _wineProducerId, uint _wineId)\n        public\n        verifyWineProducer(_wineProducerAddress, _wineProducerId)\n    {\n        require(_wineId >= 0, \"wineId is not greater than or equal to 0\");\n        wineProducers[_wineProducerId].isOpen = true;\n        emit LogWineReOpened(wineProducers[_wineProducerId].name, _wineProducerAddress, _wineId);\n    }\n\n    /*\n        Define a function called readEvent().\n        This function takes one parameter, the event ID.\n        The function returns information about the event this order:\n            1. description\n            2. URL\n            3. ticket available\n            4. sales\n            5. isOpen\n    */     \n    function readWineProducer(uint wineProducerId)\n        public\n        view\n        returns(string memory name, string memory website,\n        address wineProducerAddress, uint numWines, bool isOpen)\n    {\n        return (\n            wineProducers[wineProducerId].name,\n            wineProducers[wineProducerId].website,\n            wineProducers[wineProducerId].wineProducerAddress,\n            wineProducers[wineProducerId].numWines,\n            wineProducers[wineProducerId].isOpen\n        );\n    }\n    /*\n        Define a function called readEvent().\n        This function takes one parameter, the event ID.\n        The function returns information about the event this order:\n            1. description\n            2. URL\n            3. ticket available\n            4. sales\n            5. isOpen\n    */     \n    function readWine(uint wineProducerId, uint wineId)\n        public\n        view\n        returns(string memory name, string memory description,\n        string memory sku, uint vintage, uint totalSupply, bool isOpen)\n    {\n        return (\n            wineProducers[wineProducerId].wines[wineId].name,\n            wineProducers[wineProducerId].wines[wineId].description,\n            wineProducers[wineProducerId].wines[wineId].sku,\n            wineProducers[wineProducerId].wines[wineId].vintage,\n            wineProducers[wineProducerId].wines[wineId].totalSupply,\n            wineProducers[wineProducerId].wines[wineId].isOpen\n        );\n    }\n    /*\n        Define a function called buyTickets().\n        This function allows users to buy tickets for a specific event.\n        This function takes 2 parameters, an event ID and a number of tickets.\n        The function checks:\n            - that the event sales are open\n            - that the transaction value is sufficient to purchase the number of tickets\n            - that there are enough tickets available to complete the purchase\n        The function:\n            - increments the purchasers ticket count\n            - increments the ticket sale count\n            - refunds any surplus value sent\n            - emits the appropriate event\n    */\n\n    // function buyTickets(uint eventId, uint numberOfPurchasingTickets)\n    //     public\n    //     payable\n    // {\n        \n    //     require(events[eventId].isOpen == true, 'isOpen is false');\n    //     require(msg.value >= PRICE_TICKET * numberOfPurchasingTickets, 'not enough value sent to buy tickets');\n    //     require(events[eventId].totalTickets >= numberOfPurchasingTickets, 'Not enough tickets left');\n    //     events[eventId].buyers[msg.sender] += numberOfPurchasingTickets;\n    //     events[eventId].sales += numberOfPurchasingTickets;\n    //     events[eventId].totalTickets -= numberOfPurchasingTickets;\n    //     emit LogBuyTickets(msg.sender, eventId, numberOfPurchasingTickets);\n    //     if(msg.value - PRICE_TICKET*numberOfPurchasingTickets > 0){\n    //         uint amountToRefund = msg.value - PRICE_TICKET * numberOfPurchasingTickets;\n    //         msg.sender.transfer(amountToRefund);\n    //         emit LogGetRefund(msg.sender, eventId, amountToRefund);\n    //     }\n    // }\n\n    // /*\n    //     Define a function called getRefund().\n    //     This function allows users to request a refund for a specific event.\n    //     This function takes one parameter, the event ID.\n    //     TODO:\n    //         - check that a user has purchased tickets for the event\n    //         - remove refunded tickets from the sold count\n    //         - send appropriate value to the refund requester\n    //         - emit the appropriate event\n    // */\n\n    // function getRefund(uint eventId)\n    //     public\n    // {\n    //     uint numberOfTickets = events[eventId].buyers[msg.sender];\n    //     require(numberOfTickets > 0, 'not enough tickets');\n    //     uint amountToRefund = PRICE_TICKET * numberOfTickets;\n    //     msg.sender.transfer(amountToRefund);\n    //     emit LogGetRefund(msg.sender, eventId, amountToRefund);\n    //     events[eventId].buyers[msg.sender] -= numberOfTickets;\n    //     events[eventId].sales -= numberOfTickets;\n    //     events[eventId].totalTickets += numberOfTickets;\n    // }\n\n    // /*\n    //     Define a function called getBuyerNumberTickets()\n    //     This function takes one parameter, an event ID\n    //     This function returns a uint, the number of tickets that the msg.sender has purchased.\n    // */\n    // function getBuyerNumberTickets(uint eventId)\n    //     public\n    //     view \n    //     returns(uint purchasedTickets) \n    // {\n    //     return events[eventId].buyers[msg.sender];\n    // }\n    // /*\n    //     Define a function called endSale()\n    //     This function takes one parameter, the event ID\n    //     Only the contract owner can call this function\n    //     TODO:\n    //         - close event sales\n    //         - transfer the balance from those event sales to the contract owner\n    //         - emit the appropriate event\n    // */\n    // function endSale(uint eventId)\n    //     public\n    //     onlyAdmin()\n    // {\n    //     events[eventId].isOpen = false;\n    //     uint balance = address(this).balance;\n    //     owner.transfer(balance);\n    //     emit LogEndSale(msg.sender, balance, eventId);\n    // }\n}\n",
  "sourcePath": "/git/vintage-explorer/contracts/VintageExplorer.sol",
  "compiler": {
    "name": "solc",
    "version": "0.5.8+commit.23d335f2.Emscripten.clang"
  },
  "schemaVersion": "3.0.11",
  "updatedAt": "2019-07-15T07:46:59.797Z",
  "devdoc": {
    "methods": {}
  },
  "userdoc": {
    "methods": {}
  }
}