{
  "contractName": "VintageExplorer",
  "abi": [
    {
      "constant": true,
      "inputs": [],
      "name": "numWineProducers",
      "outputs": [
        {
          "name": "",
          "type": "uint256"
        }
      ],
      "payable": false,
      "stateMutability": "view",
      "type": "function"
    },
    {
      "constant": true,
      "inputs": [],
      "name": "stopped",
      "outputs": [
        {
          "name": "",
          "type": "bool"
        }
      ],
      "payable": false,
      "stateMutability": "view",
      "type": "function"
    },
    {
      "constant": true,
      "inputs": [],
      "name": "owner",
      "outputs": [
        {
          "name": "",
          "type": "address"
        }
      ],
      "payable": false,
      "stateMutability": "view",
      "type": "function"
    },
    {
      "inputs": [],
      "payable": false,
      "stateMutability": "nonpayable",
      "type": "constructor"
    },
    {
      "anonymous": false,
      "inputs": [
        {
          "indexed": false,
          "name": "name",
          "type": "string"
        },
        {
          "indexed": false,
          "name": "wineProducer",
          "type": "address"
        },
        {
          "indexed": false,
          "name": "wineProducerId",
          "type": "uint256"
        }
      ],
      "name": "LogWineProducerAdded",
      "type": "event"
    },
    {
      "anonymous": false,
      "inputs": [
        {
          "indexed": false,
          "name": "name",
          "type": "string"
        },
        {
          "indexed": false,
          "name": "wineProducer",
          "type": "address"
        },
        {
          "indexed": false,
          "name": "sku",
          "type": "string"
        },
        {
          "indexed": false,
          "name": "wineId",
          "type": "uint256"
        }
      ],
      "name": "LogWineAdded",
      "type": "event"
    },
    {
      "anonymous": false,
      "inputs": [
        {
          "indexed": false,
          "name": "name",
          "type": "string"
        },
        {
          "indexed": false,
          "name": "wineProducer",
          "type": "address"
        },
        {
          "indexed": false,
          "name": "wineId",
          "type": "uint256"
        }
      ],
      "name": "LogWineReOpened",
      "type": "event"
    },
    {
      "anonymous": false,
      "inputs": [
        {
          "indexed": false,
          "name": "name",
          "type": "string"
        },
        {
          "indexed": false,
          "name": "wineProducer",
          "type": "address"
        },
        {
          "indexed": false,
          "name": "wineId",
          "type": "uint256"
        }
      ],
      "name": "LogWineClosed",
      "type": "event"
    },
    {
      "anonymous": false,
      "inputs": [
        {
          "indexed": false,
          "name": "buyer",
          "type": "address"
        },
        {
          "indexed": false,
          "name": "wineProducerId",
          "type": "uint256"
        },
        {
          "indexed": false,
          "name": "wineId",
          "type": "uint256"
        },
        {
          "indexed": false,
          "name": "numWInes",
          "type": "uint256"
        }
      ],
      "name": "LogBuyWine",
      "type": "event"
    },
    {
      "anonymous": false,
      "inputs": [
        {
          "indexed": false,
          "name": "buyer",
          "type": "address"
        },
        {
          "indexed": false,
          "name": "wineProducerId",
          "type": "uint256"
        },
        {
          "indexed": false,
          "name": "wineId",
          "type": "uint256"
        },
        {
          "indexed": false,
          "name": "amountToRefund",
          "type": "uint256"
        }
      ],
      "name": "LogGetRefund",
      "type": "event"
    },
    {
      "anonymous": false,
      "inputs": [
        {
          "indexed": false,
          "name": "wineProducer",
          "type": "address"
        },
        {
          "indexed": false,
          "name": "balance",
          "type": "uint256"
        },
        {
          "indexed": false,
          "name": "wineProducerId",
          "type": "uint256"
        },
        {
          "indexed": false,
          "name": "wineId",
          "type": "uint256"
        }
      ],
      "name": "LogEndSale",
      "type": "event"
    },
    {
      "constant": false,
      "inputs": [
        {
          "name": "_a",
          "type": "address"
        }
      ],
      "name": "addAdmin",
      "outputs": [
        {
          "name": "",
          "type": "bool"
        }
      ],
      "payable": false,
      "stateMutability": "nonpayable",
      "type": "function"
    },
    {
      "constant": false,
      "inputs": [],
      "name": "kill",
      "outputs": [],
      "payable": false,
      "stateMutability": "nonpayable",
      "type": "function"
    },
    {
      "constant": false,
      "inputs": [
        {
          "name": "newBackend",
          "type": "address"
        }
      ],
      "name": "changeBackend",
      "outputs": [
        {
          "name": "",
          "type": "bool"
        }
      ],
      "payable": false,
      "stateMutability": "nonpayable",
      "type": "function"
    },
    {
      "constant": false,
      "inputs": [
        {
          "name": "_name",
          "type": "string"
        },
        {
          "name": "_website",
          "type": "string"
        },
        {
          "name": "_wineProducer",
          "type": "address"
        }
      ],
      "name": "addWineProducer",
      "outputs": [
        {
          "name": "",
          "type": "uint256"
        }
      ],
      "payable": false,
      "stateMutability": "nonpayable",
      "type": "function"
    },
    {
      "constant": false,
      "inputs": [
        {
          "name": "wineProducerId",
          "type": "uint256"
        },
        {
          "name": "_name",
          "type": "string"
        },
        {
          "name": "_description",
          "type": "string"
        },
        {
          "name": "_sku",
          "type": "string"
        },
        {
          "name": "_vintage",
          "type": "uint256"
        },
        {
          "name": "_wineType",
          "type": "uint8"
        },
        {
          "name": "_totalSupply",
          "type": "uint256"
        },
        {
          "name": "_priceEth",
          "type": "uint256"
        }
      ],
      "name": "addWine",
      "outputs": [
        {
          "name": "",
          "type": "uint256"
        }
      ],
      "payable": false,
      "stateMutability": "nonpayable",
      "type": "function"
    },
    {
      "constant": false,
      "inputs": [
        {
          "name": "_wineProducerId",
          "type": "uint256"
        },
        {
          "name": "_wineId",
          "type": "uint256"
        }
      ],
      "name": "reOpenWine",
      "outputs": [],
      "payable": false,
      "stateMutability": "nonpayable",
      "type": "function"
    },
    {
      "constant": false,
      "inputs": [
        {
          "name": "_wineProducerId",
          "type": "uint256"
        },
        {
          "name": "_wineId",
          "type": "uint256"
        }
      ],
      "name": "closeWine",
      "outputs": [],
      "payable": false,
      "stateMutability": "nonpayable",
      "type": "function"
    },
    {
      "constant": true,
      "inputs": [],
      "name": "readTotalNumberOfWineProducers",
      "outputs": [
        {
          "name": "",
          "type": "uint256"
        }
      ],
      "payable": false,
      "stateMutability": "view",
      "type": "function"
    },
    {
      "constant": true,
      "inputs": [
        {
          "name": "wineProducerId",
          "type": "uint256"
        }
      ],
      "name": "readWineProducer",
      "outputs": [
        {
          "name": "name",
          "type": "string"
        },
        {
          "name": "website",
          "type": "string"
        },
        {
          "name": "numWines",
          "type": "uint256"
        },
        {
          "name": "isOpen",
          "type": "bool"
        }
      ],
      "payable": false,
      "stateMutability": "view",
      "type": "function"
    },
    {
      "constant": true,
      "inputs": [
        {
          "name": "_wineProducerId",
          "type": "uint256"
        },
        {
          "name": "_wineId",
          "type": "uint256"
        }
      ],
      "name": "readWineDescription",
      "outputs": [
        {
          "name": "name",
          "type": "string"
        },
        {
          "name": "description",
          "type": "string"
        },
        {
          "name": "sku",
          "type": "string"
        },
        {
          "name": "vintage",
          "type": "uint256"
        },
        {
          "name": "wineType",
          "type": "uint8"
        }
      ],
      "payable": false,
      "stateMutability": "view",
      "type": "function"
    },
    {
      "constant": true,
      "inputs": [
        {
          "name": "_wineProducerId",
          "type": "uint256"
        },
        {
          "name": "_wineId",
          "type": "uint256"
        }
      ],
      "name": "readWineSalesRelated",
      "outputs": [
        {
          "name": "name",
          "type": "string"
        },
        {
          "name": "totalSupply",
          "type": "uint256"
        },
        {
          "name": "price",
          "type": "uint256"
        },
        {
          "name": "totalSales",
          "type": "uint256"
        }
      ],
      "payable": false,
      "stateMutability": "view",
      "type": "function"
    },
    {
      "constant": true,
      "inputs": [
        {
          "name": "_wineProducerId",
          "type": "uint256"
        },
        {
          "name": "_wineId",
          "type": "uint256"
        }
      ],
      "name": "checkIfWineIsOpen",
      "outputs": [
        {
          "name": "isOpen",
          "type": "bool"
        }
      ],
      "payable": false,
      "stateMutability": "view",
      "type": "function"
    },
    {
      "constant": false,
      "inputs": [
        {
          "name": "wineProducerId",
          "type": "uint256"
        },
        {
          "name": "wineId",
          "type": "uint256"
        },
        {
          "name": "numberOfPurchasingWines",
          "type": "uint256"
        }
      ],
      "name": "buyWine",
      "outputs": [],
      "payable": true,
      "stateMutability": "payable",
      "type": "function"
    },
    {
      "constant": false,
      "inputs": [
        {
          "name": "wineProducerId",
          "type": "uint256"
        },
        {
          "name": "wineId",
          "type": "uint256"
        }
      ],
      "name": "getRefund",
      "outputs": [],
      "payable": false,
      "stateMutability": "nonpayable",
      "type": "function"
    },
    {
      "constant": true,
      "inputs": [
        {
          "name": "wineProducerId",
          "type": "uint256"
        },
        {
          "name": "wineId",
          "type": "uint256"
        }
      ],
      "name": "getOwnersNumberOfWines",
      "outputs": [
        {
          "name": "purchasedWines",
          "type": "uint256"
        }
      ],
      "payable": false,
      "stateMutability": "view",
      "type": "function"
    },
    {
      "constant": false,
      "inputs": [
        {
          "name": "wineProducerId",
          "type": "uint256"
        },
        {
          "name": "wineId",
          "type": "uint256"
        }
      ],
      "name": "endSale",
      "outputs": [],
      "payable": false,
      "stateMutability": "nonpayable",
      "type": "function"
    }
  ],
  "bytecode": "0x608060405260008060146101000a81548160ff021916908315150217905550600160035534801561002f57600080fd5b50336000806101000a81548173ffffffffffffffffffffffffffffffffffffffff021916908373ffffffffffffffffffffffffffffffffffffffff1602179055506001600560003373ffffffffffffffffffffffffffffffffffffffff1673ffffffffffffffffffffffffffffffffffffffff16815260200190815260200160002060006101000a81548160ff021916908315150217905550613b30806100d76000396000f3fe6080604052600436106101145760003560e01c80638da5cb5b116100a0578063dc0eb96611610064578063dc0eb9661461091b578063e84a241d14610960578063eaecfca714610a33578063f3597bd014610a9c578063f4350b9414610c2f57610114565b80638da5cb5b1461052a578063a961999114610581578063ab13f225146105de578063b441a21614610710578063bc7be8531461076957610114565b806344da7512116100e757806344da7512146101cb578063704802751461040b57806370e82eb21461047457806375f12b21146104b657806385fa74bc146104e557610114565b80630f8a64c014610119578063230a37041461014457806326e1e71b1461016f57806341c0e1b5146101b4575b600080fd5b34801561012557600080fd5b5061012e610c74565b6040518082815260200191505060405180910390f35b34801561015057600080fd5b50610159610c7e565b6040518082815260200191505060405180910390f35b34801561017b57600080fd5b506101b26004803603604081101561019257600080fd5b810190808035906020019092919080359060200190929190505050610c84565b005b3480156101c057600080fd5b506101c96110bf565b005b3480156101d757600080fd5b506103f560048036036101008110156101ef57600080fd5b81019080803590602001909291908035906020019064010000000081111561021657600080fd5b82018360208201111561022857600080fd5b8035906020019184600183028401116401000000008311171561024a57600080fd5b91908080601f016020809104026020016040519081016040528093929190818152602001838380828437600081840152601f19601f820116905080830192505050505050509192919290803590602001906401000000008111156102ad57600080fd5b8201836020820111156102bf57600080fd5b803590602001918460018302840111640100000000831117156102e157600080fd5b91908080601f016020809104026020016040519081016040528093929190818152602001838380828437600081840152601f19601f8201169050808301925050505050505091929192908035906020019064010000000081111561034457600080fd5b82018360208201111561035657600080fd5b8035906020019184600183028401116401000000008311171561037857600080fd5b91908080601f016020809104026020016040519081016040528093929190818152602001838380828437600081840152601f19601f82011690508083019250505050505050919291929080359060200190929190803560ff16906020019092919080359060200190929190803590602001909291905050506111bb565b6040518082815260200191505060405180910390f35b34801561041757600080fd5b5061045a6004803603602081101561042e57600080fd5b81019080803573ffffffffffffffffffffffffffffffffffffffff16906020019092919050505061166b565b604051808215151515815260200191505060405180910390f35b6104b46004803603606081101561048a57600080fd5b81019080803590602001909291908035906020019092919080359060200190929190505050611794565b005b3480156104c257600080fd5b506104cb611c56565b604051808215151515815260200191505060405180910390f35b3480156104f157600080fd5b506105286004803603604081101561050857600080fd5b810190808035906020019092919080359060200190929190505050611c69565b005b34801561053657600080fd5b5061053f612085565b604051808273ffffffffffffffffffffffffffffffffffffffff1673ffffffffffffffffffffffffffffffffffffffff16815260200191505060405180910390f35b34801561058d57600080fd5b506105c4600480360360408110156105a457600080fd5b8101908080359060200190929190803590602001909291905050506120aa565b604051808215151515815260200191505060405180910390f35b3480156105ea57600080fd5b506106176004803603602081101561060157600080fd5b810190808035906020019092919050505061223e565b60405180806020018060200185815260200184151515158152602001838103835287818151815260200191508051906020019080838360005b8381101561066b578082015181840152602081019050610650565b50505050905090810190601f1680156106985780820380516001836020036101000a031916815260200191505b50838103825286818151815260200191508051906020019080838360005b838110156106d15780820151818401526020810190506106b6565b50505050905090810190601f1680156106fe5780820380516001836020036101000a031916815260200191505b50965050505050505060405180910390f35b34801561071c57600080fd5b506107536004803603604081101561073357600080fd5b8101908080359060200190929190803590602001909291905050506123f2565b6040518082815260200191505060405180910390f35b34801561077557600080fd5b506107ac6004803603604081101561078c57600080fd5b8101908080359060200190929190803590602001909291905050506125b6565b604051808060200180602001806020018681526020018560038111156107ce57fe5b60ff168152602001848103845289818151815260200191508051906020019080838360005b8381101561080e5780820151818401526020810190506107f3565b50505050905090810190601f16801561083b5780820380516001836020036101000a031916815260200191505b50848103835288818151815260200191508051906020019080838360005b83811015610874578082015181840152602081019050610859565b50505050905090810190601f1680156108a15780820380516001836020036101000a031916815260200191505b50848103825287818151815260200191508051906020019080838360005b838110156108da5780820151818401526020810190506108bf565b50505050905090810190601f1680156109075780820380516001836020036101000a031916815260200191505b509850505050505050505060405180910390f35b34801561092757600080fd5b5061095e6004803603604081101561093e57600080fd5b8101908080359060200190929190803590602001909291905050506129d9565b005b34801561096c57600080fd5b506109a36004803603604081101561098357600080fd5b810190808035906020019092919080359060200190929190505050612e14565b6040518080602001858152602001848152602001838152602001828103825286818151815260200191508051906020019080838360005b838110156109f55780820151818401526020810190506109da565b50505050905090810190601f168015610a225780820380516001836020036101000a031916815260200191505b509550505050505060405180910390f35b348015610a3f57600080fd5b50610a8260048036036020811015610a5657600080fd5b81019080803573ffffffffffffffffffffffffffffffffffffffff1690602001909291905050506130c5565b604051808215151515815260200191505060405180910390f35b348015610aa857600080fd5b50610c1960048036036060811015610abf57600080fd5b8101908080359060200190640100000000811115610adc57600080fd5b820183602082011115610aee57600080fd5b80359060200191846001830284011164010000000083111715610b1057600080fd5b91908080601f016020809104026020016040519081016040528093929190818152602001838380828437600081840152601f19601f82011690508083019250505050505050919291929080359060200190640100000000811115610b7357600080fd5b820183602082011115610b8557600080fd5b80359060200191846001830284011164010000000083111715610ba757600080fd5b91908080601f016020809104026020016040519081016040528093929190818152602001838380828437600081840152601f19601f820116905080830192505050505050509192919290803573ffffffffffffffffffffffffffffffffffffffff1690602001909291905050506132ba565b6040518082815260200191505060405180910390f35b348015610c3b57600080fd5b50610c7260048036036040811015610c5257600080fd5b8101908080359060200190929190803590602001909291905050506135a9565b005b6000600454905090565b60045481565b816006600082815260200190815260200160002060050160009054906101000a900460ff16610d1b576040517f08c379a000000000000000000000000000000000000000000000000000000000815260040180806020018281038252601c8152602001807f77696e652070726f647563657220646f6573206e6f742065786973740000000081525060200191505060405180910390fd5b3373ffffffffffffffffffffffffffffffffffffffff166006600083815260200190815260200160002060020160009054906101000a900473ffffffffffffffffffffffffffffffffffffffff1673ffffffffffffffffffffffffffffffffffffffff1614610dd5576040517f08c379a0000000000000000000000000000000000000000000000000000000008152600401808060200182810382526024815260200180613a706024913960400191505060405180910390fd5b8282600115156006600084815260200190815260200160002060050160009054906101000a900460ff16151514610e74576040517f08c379a000000000000000000000000000000000000000000000000000000000815260040180806020018281038252601c8152602001807f77696e652070726f647563657220646f6573206e6f742065786973740000000081525060200191505060405180910390fd5b6001151560066000848152602001908152602001600020600401600083815260200190815260200160002060090160009054906101000a900460ff16151514610f25576040517f08c379a00000000000000000000000000000000000000000000000000000000081526004018080602001828103825260138152602001807f77696e6520646f6573206e6f742065786973740000000000000000000000000081525060200191505060405180910390fd5b6000841015610f7f576040517f08c379a0000000000000000000000000000000000000000000000000000000008152600401808060200182810382526028815260200180613a946028913960400191505060405180910390fd5b60006006600087815260200190815260200160002060050160016101000a81548160ff0219169083151502179055507f81cad14f899f0924e2450399fdfd7e71b0f142022f07e8b134060f5db77d8ffb60066000878152602001908152602001600020600001338660405180806020018473ffffffffffffffffffffffffffffffffffffffff1673ffffffffffffffffffffffffffffffffffffffff1681526020018381526020018281038252858181546001816001161561010002031660029004815260200191508054600181600116156101000203166002900480156110a85780601f1061107d576101008083540402835291602001916110a8565b820191906000526020600020905b81548152906001019060200180831161108b57829003601f168201915b505094505050505060405180910390a15050505050565b6000809054906101000a900473ffffffffffffffffffffffffffffffffffffffff1673ffffffffffffffffffffffffffffffffffffffff163373ffffffffffffffffffffffffffffffffffffffff1614611181576040517f08c379a00000000000000000000000000000000000000000000000000000000081526004018080602001828103825260178152602001807f6d73672e73656e646572206973206e6f74206f776e657200000000000000000081525060200191505060405180910390fd5b6000809054906101000a900473ffffffffffffffffffffffffffffffffffffffff1673ffffffffffffffffffffffffffffffffffffffff16ff5b6000886006600082815260200190815260200160002060050160009054906101000a900460ff16611254576040517f08c379a000000000000000000000000000000000000000000000000000000000815260040180806020018281038252601c8152602001807f77696e652070726f647563657220646f6573206e6f742065786973740000000081525060200191505060405180910390fd5b3373ffffffffffffffffffffffffffffffffffffffff166006600083815260200190815260200160002060020160009054906101000a900473ffffffffffffffffffffffffffffffffffffffff1673ffffffffffffffffffffffffffffffffffffffff161461130e576040517f08c379a0000000000000000000000000000000000000000000000000000000008152600401808060200182810382526024815260200180613a706024913960400191505060405180910390fd5b6000600660008c81526020019081526020016000206003015490506000811015611383576040517f08c379a0000000000000000000000000000000000000000000000000000000008152600401808060200182810382526027815260200180613ade6027913960400191505060405180910390fd5b6040518061014001604052808b81526020018a81526020018981526020018881526020018681526020018760038111156113b957fe5b81526020018581526020016000815260200160011515815260200160011515815250600660008d81526020019081526020016000206004016000838152602001908152602001600020600082015181600001908051906020019061141e9291906139ca565b50602082015181600101908051906020019061143b9291906139ca565b5060408201518160020190805190602001906114589291906139ca565b50606082015181600301556080820151816004015560a08201518160050160006101000a81548160ff0219169083600381111561149157fe5b021790555060c0820151816007015560e082015181600801556101008201518160090160006101000a81548160ff0219169083151502179055506101208201518160090160016101000a81548160ff0219169083151502179055509050507f070aa1bb7e0e9a57005aa19310dc9c99e1fd3c956b5fdb1ceb59038ea442faf98a338a8460405180806020018573ffffffffffffffffffffffffffffffffffffffff1673ffffffffffffffffffffffffffffffffffffffff16815260200180602001848152602001838103835287818151815260200191508051906020019080838360005b83811015611590578082015181840152602081019050611575565b50505050905090810190601f1680156115bd5780820380516001836020036101000a031916815260200191505b50838103825285818151815260200191508051906020019080838360005b838110156115f65780820151818401526020810190506115db565b50505050905090810190601f1680156116235780820380516001836020036101000a031916815260200191505b50965050505050505060405180910390a1600660008c815260200190815260200160002060030160008154809291906001019190505550809250505098975050505050505050565b600060011515600560003373ffffffffffffffffffffffffffffffffffffffff1673ffffffffffffffffffffffffffffffffffffffff16815260200190815260200160002060009054906101000a900460ff16151514611733576040517f08c379a00000000000000000000000000000000000000000000000000000000081526004018080602001828103825260178152602001807f6d73672e73656e646572206973206e6f742061646d696e00000000000000000081525060200191505060405180910390fd5b6001600560008473ffffffffffffffffffffffffffffffffffffffff1673ffffffffffffffffffffffffffffffffffffffff16815260200190815260200160002060006101000a81548160ff02191690831515021790555060019050919050565b8282600115156006600084815260200190815260200160002060050160009054906101000a900460ff16151514611833576040517f08c379a000000000000000000000000000000000000000000000000000000000815260040180806020018281038252601c8152602001807f77696e652070726f647563657220646f6573206e6f742065786973740000000081525060200191505060405180910390fd5b6001151560066000848152602001908152602001600020600401600083815260200190815260200160002060090160009054906101000a900460ff161515146118e4576040517f08c379a00000000000000000000000000000000000000000000000000000000081526004018080602001828103825260138152602001807f77696e6520646f6573206e6f742065786973740000000000000000000000000081525060200191505060405180910390fd5b600060035460066000888152602001908152602001600020600401600087815260200190815260200160002060070154029050838102341015611972576040517f08c379a0000000000000000000000000000000000000000000000000000000008152600401808060200182810382526022815260200180613abc6022913960400191505060405180910390fd5b83600660008881526020019081526020016000206004016000878152602001908152602001600020600401541015611a12576040517f08c379a00000000000000000000000000000000000000000000000000000000081526004018080602001828103825260158152602001807f4e6f7420656e6f7567682077696e6573206c656674000000000000000000000081525060200191505060405180910390fd5b8360066000888152602001908152602001600020600401600087815260200190815260200160002060060160003373ffffffffffffffffffffffffffffffffffffffff1673ffffffffffffffffffffffffffffffffffffffff16815260200190815260200160002060008282540192505081905550836006600088815260200190815260200160002060040160008781526020019081526020016000206008016000828254019250508190555083600660008881526020019081526020016000206004016000878152602001908152602001600020600401600082825403925050819055507f5c5c2946757aaf59d0000ba51c306e71293522310ec8a9f9ae431ecaebf57cca33878787604051808573ffffffffffffffffffffffffffffffffffffffff1673ffffffffffffffffffffffffffffffffffffffff16815260200184815260200183815260200182815260200194505050505060405180910390a1600084820234031115611c4e5760008485830202340390503373ffffffffffffffffffffffffffffffffffffffff166108fc829081150290604051600060405180830381858888f19350505050158015611bd0573d6000803e3d6000fd5b507f3790b07ee11214e4d6cc672680fe583532064e0ee21446cbf0af0c3fe640eee133888884604051808573ffffffffffffffffffffffffffffffffffffffff1673ffffffffffffffffffffffffffffffffffffffff16815260200184815260200183815260200182815260200194505050505060405180910390a1505b505050505050565b600060149054906101000a900460ff1681565b8181600115156006600084815260200190815260200160002060050160009054906101000a900460ff16151514611d08576040517f08c379a000000000000000000000000000000000000000000000000000000000815260040180806020018281038252601c8152602001807f77696e652070726f647563657220646f6573206e6f742065786973740000000081525060200191505060405180910390fd5b6001151560066000848152602001908152602001600020600401600083815260200190815260200160002060090160009054906101000a900460ff16151514611db9576040517f08c379a00000000000000000000000000000000000000000000000000000000081526004018080602001828103825260138152602001807f77696e6520646f6573206e6f742065786973740000000000000000000000000081525060200191505060405180910390fd5b600060066000868152602001908152602001600020600401600085815260200190815260200160002060060160003373ffffffffffffffffffffffffffffffffffffffff1673ffffffffffffffffffffffffffffffffffffffff16815260200190815260200160002054905060006003546006600088815260200190815260200160002060040160008781526020019081526020016000206007015402905060008211611ece576040517f08c379a00000000000000000000000000000000000000000000000000000000081526004018080602001828103825260108152602001807f6e6f7420656e6f7567682077696e65730000000000000000000000000000000081525060200191505060405180910390fd5b600082820290503373ffffffffffffffffffffffffffffffffffffffff166108fc829081150290604051600060405180830381858888f19350505050158015611f1b573d6000803e3d6000fd5b507f3790b07ee11214e4d6cc672680fe583532064e0ee21446cbf0af0c3fe640eee133888884604051808573ffffffffffffffffffffffffffffffffffffffff1673ffffffffffffffffffffffffffffffffffffffff16815260200184815260200183815260200182815260200194505050505060405180910390a18260066000898152602001908152602001600020600401600088815260200190815260200160002060060160003373ffffffffffffffffffffffffffffffffffffffff1673ffffffffffffffffffffffffffffffffffffffff168152602001908152602001600020600082825403925050819055508260066000898152602001908152602001600020600401600088815260200190815260200160002060080160008282540392505081905550826006600089815260200190815260200160002060040160008881526020019081526020016000206004016000828254019250508190555050505050505050565b6000809054906101000a900473ffffffffffffffffffffffffffffffffffffffff1681565b60008282600115156006600084815260200190815260200160002060050160009054906101000a900460ff1615151461214b576040517f08c379a000000000000000000000000000000000000000000000000000000000815260040180806020018281038252601c8152602001807f77696e652070726f647563657220646f6573206e6f742065786973740000000081525060200191505060405180910390fd5b6001151560066000848152602001908152602001600020600401600083815260200190815260200160002060090160009054906101000a900460ff161515146121fc576040517f08c379a00000000000000000000000000000000000000000000000000000000081526004018080602001828103825260138152602001807f77696e6520646f6573206e6f742065786973740000000000000000000000000081525060200191505060405180910390fd5b60066000868152602001908152602001600020600401600085815260200190815260200160002060090160019054906101000a900460ff169250505092915050565b606080600080600660008681526020019081526020016000206000016006600087815260200190815260200160002060010160066000888152602001908152602001600020600301546006600089815260200190815260200160002060050160019054906101000a900460ff16838054600181600116156101000203166002900480601f0160208091040260200160405190810160405280929190818152602001828054600181600116156101000203166002900480156123405780601f1061231557610100808354040283529160200191612340565b820191906000526020600020905b81548152906001019060200180831161232357829003601f168201915b50505050509350828054600181600116156101000203166002900480601f0160208091040260200160405190810160405280929190818152602001828054600181600116156101000203166002900480156123dc5780601f106123b1576101008083540402835291602001916123dc565b820191906000526020600020905b8154815290600101906020018083116123bf57829003601f168201915b5050505050925093509350935093509193509193565b60008282600115156006600084815260200190815260200160002060050160009054906101000a900460ff16151514612493576040517f08c379a000000000000000000000000000000000000000000000000000000000815260040180806020018281038252601c8152602001807f77696e652070726f647563657220646f6573206e6f742065786973740000000081525060200191505060405180910390fd5b6001151560066000848152602001908152602001600020600401600083815260200190815260200160002060090160009054906101000a900460ff16151514612544576040517f08c379a00000000000000000000000000000000000000000000000000000000081526004018080602001828103825260138152602001807f77696e6520646f6573206e6f742065786973740000000000000000000000000081525060200191505060405180910390fd5b60066000868152602001908152602001600020600401600085815260200190815260200160002060060160003373ffffffffffffffffffffffffffffffffffffffff1673ffffffffffffffffffffffffffffffffffffffff168152602001908152602001600020549250505092915050565b60608060606000808686600115156006600084815260200190815260200160002060050160009054906101000a900460ff1615151461265d576040517f08c379a000000000000000000000000000000000000000000000000000000000815260040180806020018281038252601c8152602001807f77696e652070726f647563657220646f6573206e6f742065786973740000000081525060200191505060405180910390fd5b6001151560066000848152602001908152602001600020600401600083815260200190815260200160002060090160009054906101000a900460ff1615151461270e576040517f08c379a00000000000000000000000000000000000000000000000000000000081526004018080602001828103825260138152602001807f77696e6520646f6573206e6f742065786973740000000000000000000000000081525060200191505060405180910390fd5b600660008a81526020019081526020016000206004016000898152602001908152602001600020600001600660008b815260200190815260200160002060040160008a8152602001908152602001600020600101600660008c815260200190815260200160002060040160008b8152602001908152602001600020600201600660008d815260200190815260200160002060040160008c815260200190815260200160002060030154600660008e815260200190815260200160002060040160008d815260200190815260200160002060050160009054906101000a900460ff16848054600181600116156101000203166002900480601f0160208091040260200160405190810160405280929190818152602001828054600181600116156101000203166002900480156128845780601f1061285957610100808354040283529160200191612884565b820191906000526020600020905b81548152906001019060200180831161286757829003601f168201915b50505050509450838054600181600116156101000203166002900480601f0160208091040260200160405190810160405280929190818152602001828054600181600116156101000203166002900480156129205780601f106128f557610100808354040283529160200191612920565b820191906000526020600020905b81548152906001019060200180831161290357829003601f168201915b50505050509350828054600181600116156101000203166002900480601f0160208091040260200160405190810160405280929190818152602001828054600181600116156101000203166002900480156129bc5780601f10612991576101008083540402835291602001916129bc565b820191906000526020600020905b81548152906001019060200180831161299f57829003601f168201915b505050505092509650965096509650965050509295509295909350565b816006600082815260200190815260200160002060050160009054906101000a900460ff16612a70576040517f08c379a000000000000000000000000000000000000000000000000000000000815260040180806020018281038252601c8152602001807f77696e652070726f647563657220646f6573206e6f742065786973740000000081525060200191505060405180910390fd5b3373ffffffffffffffffffffffffffffffffffffffff166006600083815260200190815260200160002060020160009054906101000a900473ffffffffffffffffffffffffffffffffffffffff1673ffffffffffffffffffffffffffffffffffffffff1614612b2a576040517f08c379a0000000000000000000000000000000000000000000000000000000008152600401808060200182810382526024815260200180613a706024913960400191505060405180910390fd5b8282600115156006600084815260200190815260200160002060050160009054906101000a900460ff16151514612bc9576040517f08c379a000000000000000000000000000000000000000000000000000000000815260040180806020018281038252601c8152602001807f77696e652070726f647563657220646f6573206e6f742065786973740000000081525060200191505060405180910390fd5b6001151560066000848152602001908152602001600020600401600083815260200190815260200160002060090160009054906101000a900460ff16151514612c7a576040517f08c379a00000000000000000000000000000000000000000000000000000000081526004018080602001828103825260138152602001807f77696e6520646f6573206e6f742065786973740000000000000000000000000081525060200191505060405180910390fd5b6000841015612cd4576040517f08c379a0000000000000000000000000000000000000000000000000000000008152600401808060200182810382526028815260200180613a946028913960400191505060405180910390fd5b60016006600087815260200190815260200160002060050160016101000a81548160ff0219169083151502179055507f81cad14f899f0924e2450399fdfd7e71b0f142022f07e8b134060f5db77d8ffb60066000878152602001908152602001600020600001338660405180806020018473ffffffffffffffffffffffffffffffffffffffff1673ffffffffffffffffffffffffffffffffffffffff168152602001838152602001828103825285818154600181600116156101000203166002900481526020019150805460018160011615610100020316600290048015612dfd5780601f10612dd257610100808354040283529160200191612dfd565b820191906000526020600020905b815481529060010190602001808311612de057829003601f168201915b505094505050505060405180910390a15050505050565b606060008060008585600115156006600084815260200190815260200160002060050160009054906101000a900460ff16151514612eba576040517f08c379a000000000000000000000000000000000000000000000000000000000815260040180806020018281038252601c8152602001807f77696e652070726f647563657220646f6573206e6f742065786973740000000081525060200191505060405180910390fd5b6001151560066000848152602001908152602001600020600401600083815260200190815260200160002060090160009054906101000a900460ff16151514612f6b576040517f08c379a00000000000000000000000000000000000000000000000000000000081526004018080602001828103825260138152602001807f77696e6520646f6573206e6f742065786973740000000000000000000000000081525060200191505060405180910390fd5b600660008981526020019081526020016000206004016000888152602001908152602001600020600001600660008a8152602001908152602001600020600401600089815260200190815260200160002060040154600660008b815260200190815260200160002060040160008a815260200190815260200160002060070154600660008c815260200190815260200160002060040160008b815260200190815260200160002060080154838054600181600116156101000203166002900480601f0160208091040260200160405190810160405280929190818152602001828054600181600116156101000203166002900480156130ab5780601f10613080576101008083540402835291602001916130ab565b820191906000526020600020905b81548152906001019060200180831161308e57829003601f168201915b505050505093509550955095509550505092959194509250565b60008060009054906101000a900473ffffffffffffffffffffffffffffffffffffffff1673ffffffffffffffffffffffffffffffffffffffff163373ffffffffffffffffffffffffffffffffffffffff1614613189576040517f08c379a00000000000000000000000000000000000000000000000000000000081526004018080602001828103825260178152602001807f6d73672e73656e646572206973206e6f74206f776e657200000000000000000081525060200191505060405180910390fd5b600160009054906101000a900473ffffffffffffffffffffffffffffffffffffffff1673ffffffffffffffffffffffffffffffffffffffff168273ffffffffffffffffffffffffffffffffffffffff16146132b0576002600160009054906101000a900473ffffffffffffffffffffffffffffffffffffffff1690806001815401808255809150509060018203906000526020600020016000909192909190916101000a81548173ffffffffffffffffffffffffffffffffffffffff021916908373ffffffffffffffffffffffffffffffffffffffff1602179055505081600160006101000a81548173ffffffffffffffffffffffffffffffffffffffff021916908373ffffffffffffffffffffffffffffffffffffffff160217905550600190506132b5565b600090505b919050565b600060011515600560003373ffffffffffffffffffffffffffffffffffffffff1673ffffffffffffffffffffffffffffffffffffffff16815260200190815260200160002060009054906101000a900460ff16151514613382576040517f08c379a00000000000000000000000000000000000000000000000000000000081526004018080602001828103825260178152602001807f6d73672e73656e646572206973206e6f742061646d696e00000000000000000081525060200191505060405180910390fd5b600060045490506040518060c001604052808681526020018581526020018473ffffffffffffffffffffffffffffffffffffffff16815260200160008152602001600115158152602001600115158152506006600083815260200190815260200160002060008201518160000190805190602001906134029291906139ca565b50602082015181600101908051906020019061341f9291906139ca565b5060408201518160020160006101000a81548173ffffffffffffffffffffffffffffffffffffffff021916908373ffffffffffffffffffffffffffffffffffffffff1602179055506060820151816003015560808201518160050160006101000a81548160ff02191690831515021790555060a08201518160050160016101000a81548160ff0219169083151502179055509050507f723993f718abf27619ef9f2f67f244d1cb5df0839150c449e0f95bce94b64c5d85848360405180806020018473ffffffffffffffffffffffffffffffffffffffff1673ffffffffffffffffffffffffffffffffffffffff168152602001838152602001828103825285818151815260200191508051906020019080838360005b83811015613550578082015181840152602081019050613535565b50505050905090810190601f16801561357d5780820380516001836020036101000a031916815260200191505b5094505050505060405180910390a1600460008154809291906001019190505550809150509392505050565b816006600082815260200190815260200160002060050160009054906101000a900460ff16613640576040517f08c379a000000000000000000000000000000000000000000000000000000000815260040180806020018281038252601c8152602001807f77696e652070726f647563657220646f6573206e6f742065786973740000000081525060200191505060405180910390fd5b3373ffffffffffffffffffffffffffffffffffffffff166006600083815260200190815260200160002060020160009054906101000a900473ffffffffffffffffffffffffffffffffffffffff1673ffffffffffffffffffffffffffffffffffffffff16146136fa576040517f08c379a0000000000000000000000000000000000000000000000000000000008152600401808060200182810382526024815260200180613a706024913960400191505060405180910390fd5b8282600115156006600084815260200190815260200160002060050160009054906101000a900460ff16151514613799576040517f08c379a000000000000000000000000000000000000000000000000000000000815260040180806020018281038252601c8152602001807f77696e652070726f647563657220646f6573206e6f742065786973740000000081525060200191505060405180910390fd5b6001151560066000848152602001908152602001600020600401600083815260200190815260200160002060090160009054906101000a900460ff1615151461384a576040517f08c379a00000000000000000000000000000000000000000000000000000000081526004018080602001828103825260138152602001807f77696e6520646f6573206e6f742065786973740000000000000000000000000081525060200191505060405180910390fd5b600060066000878152602001908152602001600020600401600086815260200190815260200160002060090160016101000a81548160ff02191690831515021790555060006006600087815260200190815260200160002060020160009054906101000a900473ffffffffffffffffffffffffffffffffffffffff1673ffffffffffffffffffffffffffffffffffffffff163190506000809054906101000a900473ffffffffffffffffffffffffffffffffffffffff1673ffffffffffffffffffffffffffffffffffffffff166108fc829081150290604051600060405180830381858888f19350505050158015613946573d6000803e3d6000fd5b507f44b9736b00c182e52df2a3c058a074be7a17d58dc0d93182cd3368dc2287a4e233828888604051808573ffffffffffffffffffffffffffffffffffffffff1673ffffffffffffffffffffffffffffffffffffffff16815260200184815260200183815260200182815260200194505050505060405180910390a1505050505050565b828054600181600116156101000203166002900490600052602060002090601f016020900481019282601f10613a0b57805160ff1916838001178555613a39565b82800160010185558215613a39579182015b82811115613a38578251825591602001919060010190613a1d565b5b509050613a469190613a4a565b5090565b613a6c91905b80821115613a68576000816000905550600101613a50565b5090565b9056fe77696e652070726f6475636572206164647265737320646f6573206e6f74206d6174636877696e654964206973206e6f742067726561746572207468616e206f7220657175616c20746f20306e6f7420656e6f7567682076616c75652073656e7420746f206275792077696e65736e65774964206973206e6f742067726561746572207468616e206f7220657175616c20746f2030a165627a7a72305820b975cb308e6362671f60bd5e9890a17036937e5acb0089ce4d7bacb2fece62e80029",
  "source": "pragma solidity ^0.5.0;\r\n\r\n    /*\r\n        The EventTicketsV2 contract keeps track of the details and ticket sales of multiple events.\r\n     */\r\ncontract VintageExplorer{\r\n    enum WineTypes {\r\n        Red,\r\n        White,\r\n        Rose,\r\n        Sparkling\r\n    }\r\n    /*\r\n        Define an public owner variable. Set it to the creator of the contract when it is initialized.\r\n    */\r\n    address payable public owner;\r\n    bool public stopped = false;\r\n    address backendContract;\r\n    address[] previousBackends;\r\n\r\n    uint ONE_WEI = 1 wei;\r\n\r\n    /*\r\n        Create a variable to keep track of the wine ID numbers.\r\n    */\r\n    uint public numWineProducers;\r\n\r\n    \r\n    /*\r\n        Define an Event struct, similar to the V1 of this contract.\r\n        The struct has 6 fields: description, website (URL), totalTickets, sales, buyers, and isOpen.\r\n        Choose the appropriate variable type for each field.\r\n        The \"buyers\" field should keep track of addresses and how many tickets each buyer purchases.\r\n    */\r\n\r\n    struct WineProducer {\r\n        string name;\r\n        string website;\r\n        address wineProducer;\r\n        uint numWines;\r\n        mapping (uint => Wine) wines;\r\n        bool exists;\r\n        bool isOpen;\r\n    }\r\n\r\n    struct Wine {\r\n        string name;\r\n        string description;\r\n        string sku;\r\n        uint vintage;\r\n        uint totalSupply;\r\n        WineTypes wineType;\r\n        mapping (address => uint) owners;\r\n        uint price;\r\n        uint totalSales;\r\n        bool exists;\r\n        bool isOpen;\r\n    }\r\n\r\n    mapping (address => bool) admins;\r\n    /*\r\n        Create a mapping to keep track of the events.\r\n        The mapping key is an integer, the value is an Event struct.\r\n        Call the mapping \"events\".\r\n    */\r\n    mapping (uint => WineProducer) wineProducers;\r\n\r\n    event LogWineProducerAdded(string name, address wineProducer, uint wineProducerId);\r\n    event LogWineAdded(string name, address wineProducer, string sku, uint wineId);\r\n    event LogWineReOpened(string name, address wineProducer, uint wineId);\r\n    event LogWineClosed(string name, address wineProducer, uint wineId);\r\n    event LogBuyWine(address buyer,uint wineProducerId, uint wineId, uint numWInes);\r\n    event LogGetRefund(address buyer,uint wineProducerId, uint wineId, uint amountToRefund);\r\n    event LogEndSale(address wineProducer,uint balance, uint wineProducerId, uint wineId);\r\n\r\n    /*\r\n        Create a modifier that throws an error if the msg.sender is not the owner.\r\n    */\r\n    modifier onlyOwner { require(msg.sender == owner, 'msg.sender is not owner'); _; }\r\n    modifier onlyAdmin { require(admins[msg.sender] == true, 'msg.sender is not admin'); _; }\r\n    modifier stopInEmergency { require(!stopped); _;}\r\n    modifier onlyInEmergency { require(stopped); _;}\r\n\r\n    modifier verifyCaller (address _address) { require (msg.sender == _address, 'msg sender is not address'); _;}\r\n\r\n    modifier onlyWineProducer (uint _wineProducerId) {\r\n        require (wineProducers[_wineProducerId].exists, 'wine producer does not exist');\r\n        require (wineProducers[_wineProducerId].wineProducer == msg.sender, 'wine producer address does not match');\r\n        _;\r\n    }\r\n\r\n    modifier checkIfWineProducerAndWineExists(uint _wineProducerId, uint _wineId) {\r\n        require(wineProducers[_wineProducerId].exists == true, 'wine producer does not exist');\r\n        require(wineProducers[_wineProducerId].wines[_wineId].exists == true, 'wine does not exist');\r\n        _;\r\n    }\r\n\r\n    modifier paidEnough(uint _price) { require(msg.value >= _price, 'msg value is not enough'); _;}\r\n\r\n    constructor() public {\r\n        owner = msg.sender;\r\n        admins[msg.sender] = true;\r\n    }\r\n\r\n    function addAdmin(address _a)\r\n        public\r\n        onlyAdmin\r\n        returns(bool)\r\n    {\r\n        admins[_a] = true;\r\n        return true;\r\n    }\r\n\r\n    function kill()\r\n        public\r\n        onlyOwner\r\n    {\r\n        selfdestruct(owner);\r\n    }\r\n\r\n    function changeBackend(address newBackend) public\r\n        onlyOwner()\r\n        returns (bool)\r\n    {\r\n        if(newBackend != backendContract) {\r\n            previousBackends.push(backendContract);\r\n            backendContract = newBackend;\r\n            return true;\r\n        }\r\n        return false;\r\n    }\r\n\r\n    /*\r\n        Define a function called addEvent().\r\n        This function takes 3 parameters, an event description, a URL, and a number of tickets.\r\n        Only the contract owner should be able to call this function.\r\n        In the function:\r\n            - Set the description, URL and ticket number in a new event.\r\n            - set the event to open\r\n            - set an event ID\r\n            - increment the ID\r\n            - emit the appropriate event\r\n            - return the event's ID\r\n    */\r\n\r\n    function addWineProducer(string memory _name, string memory _website, address _wineProducer)\r\n        public\r\n        onlyAdmin()\r\n        returns(uint)\r\n    {\r\n        uint newId = numWineProducers;\r\n        wineProducers[newId] = WineProducer({\r\n            name : _name,\r\n            website : _website,\r\n            wineProducer : _wineProducer,\r\n            numWines : 0,\r\n            exists : true,\r\n            isOpen : true\r\n        });\r\n        emit LogWineProducerAdded(_name, _wineProducer, newId);\r\n        numWineProducers++;\r\n        return newId;\r\n    }\r\n\r\n    function addWine(uint wineProducerId, string memory _name,\r\n        string memory _description, string memory _sku, uint _vintage,\r\n        WineTypes _wineType, uint _totalSupply, uint _priceEth)\r\n        public\r\n        onlyWineProducer(wineProducerId)\r\n        returns(uint)\r\n    {\r\n        uint newId = wineProducers[wineProducerId].numWines;\r\n        require(newId >= 0, \"newId is not greater than or equal to 0\");\r\n        wineProducers[wineProducerId].wines[newId] = Wine({\r\n            name : _name,\r\n            description : _description,\r\n            sku : _sku,\r\n            vintage : _vintage,\r\n            totalSupply : _totalSupply,\r\n            wineType : _wineType,\r\n            price : _priceEth,\r\n            totalSales : 0,\r\n            exists : true,\r\n            isOpen : true\r\n        });\r\n        emit LogWineAdded(_name, msg.sender, _sku, newId);\r\n        wineProducers[wineProducerId].numWines++;\r\n        return newId;\r\n    }\r\n\r\n    function reOpenWine(uint _wineProducerId, uint _wineId)\r\n        public\r\n        onlyWineProducer(_wineProducerId)\r\n        checkIfWineProducerAndWineExists(_wineProducerId, _wineId)\r\n    {\r\n        require(_wineId >= 0, \"wineId is not greater than or equal to 0\");\r\n        wineProducers[_wineProducerId].isOpen = false;\r\n        emit LogWineReOpened(wineProducers[_wineProducerId].name, msg.sender, _wineId);\r\n    }\r\n\r\n    function closeWine(uint _wineProducerId, uint _wineId)\r\n        public\r\n        onlyWineProducer( _wineProducerId)\r\n        checkIfWineProducerAndWineExists(_wineProducerId, _wineId)\r\n    {\r\n        require(_wineId >= 0, \"wineId is not greater than or equal to 0\");\r\n        wineProducers[_wineProducerId].isOpen = true;\r\n        emit LogWineReOpened(wineProducers[_wineProducerId].name, msg.sender, _wineId);\r\n    }\r\n\r\n    function readTotalNumberOfWineProducers()\r\n        public\r\n        view\r\n        returns(uint)\r\n    {\r\n        return numWineProducers;\r\n    }\r\n    /*\r\n        Define a function called readEvent().\r\n        This function takes one parameter, the event ID.\r\n        The function returns information about the event this order:\r\n            1. description\r\n            2. URL\r\n            3. ticket available\r\n            4. sales\r\n            5. isOpen\r\n    */\r\n    function readWineProducer(uint wineProducerId)\r\n        public\r\n        view\r\n        returns(string memory name, string memory website,\r\n        uint numWines, bool isOpen)\r\n    {\r\n        return (\r\n            wineProducers[wineProducerId].name,\r\n            wineProducers[wineProducerId].website,\r\n            wineProducers[wineProducerId].numWines,\r\n            wineProducers[wineProducerId].isOpen\r\n        );\r\n    }\r\n    /*\r\n        Define a function called readEvent().\r\n        This function takes one parameter, the event ID.\r\n        The function returns information about the event this order:\r\n            1. description\r\n            2. URL\r\n            3. ticket available\r\n            4. sales\r\n            5. isOpen\r\n    */\r\n    function readWineDescription(uint _wineProducerId, uint _wineId)\r\n        public\r\n        view\r\n        checkIfWineProducerAndWineExists(_wineProducerId, _wineId)\r\n        returns(string memory name, string memory description,\r\n        string memory sku, uint vintage, WineTypes wineType\r\n        )\r\n    {\r\n        return (\r\n            wineProducers[_wineProducerId].wines[_wineId].name,\r\n            wineProducers[_wineProducerId].wines[_wineId].description,\r\n            wineProducers[_wineProducerId].wines[_wineId].sku,\r\n            wineProducers[_wineProducerId].wines[_wineId].vintage,\r\n            wineProducers[_wineProducerId].wines[_wineId].wineType\r\n        );\r\n    }\r\n\r\n    function readWineSalesRelated(uint _wineProducerId, uint _wineId)\r\n        public\r\n        view\r\n        checkIfWineProducerAndWineExists(_wineProducerId, _wineId)\r\n        returns(string memory name, uint totalSupply,\r\n        uint price, uint totalSales)\r\n    {\r\n        return (\r\n            wineProducers[_wineProducerId].wines[_wineId].name,\r\n            wineProducers[_wineProducerId].wines[_wineId].totalSupply,\r\n            wineProducers[_wineProducerId].wines[_wineId].price,\r\n            wineProducers[_wineProducerId].wines[_wineId].totalSales\r\n        );\r\n    }\r\n\r\n    function checkIfWineIsOpen(uint _wineProducerId, uint _wineId)\r\n        public\r\n        view\r\n        checkIfWineProducerAndWineExists(_wineProducerId, _wineId)\r\n        returns(bool isOpen)\r\n    {\r\n        return (\r\n            wineProducers[_wineProducerId].wines[_wineId].isOpen\r\n        );\r\n    }\r\n\r\n    \r\n    /*\r\n        Define a function called buyTickets().\r\n        This function allows users to buy tickets for a specific event.\r\n        This function takes 2 parameters, an event ID and a number of tickets.\r\n        The function checks:\r\n            - that the event sales are open\r\n            - that the transaction value is sufficient to purchase the number of tickets\r\n            - that there are enough tickets available to complete the purchase\r\n        The function:\r\n            - increments the purchasers ticket count\r\n            - increments the ticket sale count\r\n            - refunds any surplus value sent\r\n            - emits the appropriate event\r\n    */\r\n\r\n    function buyWine(uint wineProducerId, uint wineId, uint numberOfPurchasingWines)\r\n        public\r\n        payable\r\n        checkIfWineProducerAndWineExists(wineProducerId, wineId)\r\n    {\r\n        uint winePrice = (wineProducers[wineProducerId].wines[wineId].price) * ONE_WEI;\r\n        require(msg.value >=\r\n            winePrice * numberOfPurchasingWines,\r\n            'not enough value sent to buy wines');\r\n        require(wineProducers[wineProducerId].wines[wineId].totalSupply\r\n            >= numberOfPurchasingWines, 'Not enough wines left');\r\n        wineProducers[wineProducerId].wines[wineId].owners[msg.sender] += numberOfPurchasingWines;\r\n        wineProducers[wineProducerId].wines[wineId].totalSales += numberOfPurchasingWines;\r\n        wineProducers[wineProducerId].wines[wineId].totalSupply -= numberOfPurchasingWines;\r\n        emit LogBuyWine(msg.sender, wineProducerId, wineId, numberOfPurchasingWines);\r\n        if(msg.value -\r\n            winePrice*numberOfPurchasingWines > 0\r\n        ){\r\n            uint amountToRefund = msg.value - winePrice * numberOfPurchasingWines * numberOfPurchasingWines;\r\n            msg.sender.transfer(amountToRefund);\r\n            emit LogGetRefund(msg.sender, wineProducerId, wineId, amountToRefund);\r\n        }\r\n    }\r\n\r\n    // /*\r\n    //     Define a function called getRefund().\r\n    //     This function allows users to request a refund for a specific event.\r\n    //     This function takes one parameter, the event ID.\r\n    //     TODO:\r\n    //         - check that a user has purchased tickets for the event\r\n    //         - remove refunded tickets from the sold count\r\n    //         - send appropriate value to the refund requester\r\n    //         - emit the appropriate event\r\n    // */\r\n\r\n    function getRefund(uint wineProducerId, uint wineId)\r\n        public\r\n        checkIfWineProducerAndWineExists(wineProducerId, wineId)\r\n    {\r\n        uint numberOfWines = wineProducers[wineProducerId].wines[wineId].owners[msg.sender];\r\n        uint winePrice = wineProducers[wineProducerId].wines[wineId].price * ONE_WEI;\r\n        require(numberOfWines > 0, 'not enough wines');\r\n        uint amountToRefund = winePrice * numberOfWines;\r\n        msg.sender.transfer(amountToRefund);\r\n        emit LogGetRefund(msg.sender, wineProducerId, wineId, amountToRefund);\r\n        wineProducers[wineProducerId].wines[wineId].owners[msg.sender] -= numberOfWines;\r\n        wineProducers[wineProducerId].wines[wineId].totalSales -= numberOfWines;\r\n        wineProducers[wineProducerId].wines[wineId].totalSupply += numberOfWines;\r\n    }\r\n\r\n    // /*\r\n    //     Define a function called getBuyerNumberTickets()\r\n    //     This function takes one parameter, an event ID\r\n    //     This function returns a uint, the number of tickets that the msg.sender has purchased.\r\n    // */\r\n    function getOwnersNumberOfWines(uint wineProducerId, uint wineId)\r\n        public\r\n        view\r\n        checkIfWineProducerAndWineExists(wineProducerId, wineId)\r\n        returns(uint purchasedWines)\r\n    {\r\n        return wineProducers[wineProducerId].wines[wineId].owners[msg.sender];\r\n    }\r\n    // /*\r\n    //     Define a function called endSale()\r\n    //     This function takes one parameter, the event ID\r\n    //     Only the contract owner can call this function\r\n    //     TODO:\r\n    //         - close event sales\r\n    //         - transfer the balance from those event sales to the contract owner\r\n    //         - emit the appropriate event\r\n    // */\r\n    function endSale(uint wineProducerId, uint wineId)\r\n        public\r\n        onlyWineProducer(wineProducerId)\r\n        checkIfWineProducerAndWineExists(wineProducerId, wineId)\r\n    {\r\n        wineProducers[wineProducerId].wines[wineId].isOpen = false;\r\n        uint balance = address(wineProducers[wineProducerId].wineProducer).balance;\r\n        owner.transfer(balance);\r\n        emit LogEndSale(msg.sender, balance, wineProducerId, wineId);\r\n    }\r\n}\r\n",
  "sourcePath": "F:/git/vintage-explorer/contracts/VintageExplorer.sol",
  "compiler": {
    "name": "solc",
    "version": "0.5.8+commit.23d335f2.Emscripten.clang"
  },
  "schemaVersion": "3.0.11",
  "updatedAt": "2019-07-20T23:17:38.470Z",
  "devdoc": {
    "methods": {}
  },
  "userdoc": {
    "methods": {}
  }
}