{
  "contractName": "VintageExplorer",
  "abi": [
    {
      "constant": true,
      "inputs": [],
      "name": "numWineProducers",
      "outputs": [
        {
          "name": "",
          "type": "uint256"
        }
      ],
      "payable": false,
      "stateMutability": "view",
      "type": "function"
    },
    {
      "constant": true,
      "inputs": [],
      "name": "stopped",
      "outputs": [
        {
          "name": "",
          "type": "bool"
        }
      ],
      "payable": false,
      "stateMutability": "view",
      "type": "function"
    },
    {
      "constant": true,
      "inputs": [],
      "name": "owner",
      "outputs": [
        {
          "name": "",
          "type": "address"
        }
      ],
      "payable": false,
      "stateMutability": "view",
      "type": "function"
    },
    {
      "inputs": [],
      "payable": false,
      "stateMutability": "nonpayable",
      "type": "constructor"
    },
    {
      "anonymous": false,
      "inputs": [
        {
          "indexed": false,
          "name": "name",
          "type": "string"
        },
        {
          "indexed": false,
          "name": "wineProducer",
          "type": "address"
        },
        {
          "indexed": false,
          "name": "wineProducerId",
          "type": "uint256"
        }
      ],
      "name": "LogWineProducerAdded",
      "type": "event"
    },
    {
      "anonymous": false,
      "inputs": [
        {
          "indexed": false,
          "name": "name",
          "type": "string"
        },
        {
          "indexed": false,
          "name": "wineProducer",
          "type": "address"
        },
        {
          "indexed": false,
          "name": "sku",
          "type": "string"
        },
        {
          "indexed": false,
          "name": "wineId",
          "type": "uint256"
        }
      ],
      "name": "LogWineAdded",
      "type": "event"
    },
    {
      "anonymous": false,
      "inputs": [
        {
          "indexed": false,
          "name": "name",
          "type": "string"
        },
        {
          "indexed": false,
          "name": "wineProducer",
          "type": "address"
        },
        {
          "indexed": false,
          "name": "wineId",
          "type": "uint256"
        }
      ],
      "name": "LogWineReOpened",
      "type": "event"
    },
    {
      "anonymous": false,
      "inputs": [
        {
          "indexed": false,
          "name": "name",
          "type": "string"
        },
        {
          "indexed": false,
          "name": "wineProducer",
          "type": "address"
        },
        {
          "indexed": false,
          "name": "wineId",
          "type": "uint256"
        }
      ],
      "name": "LogWineClosed",
      "type": "event"
    },
    {
      "anonymous": false,
      "inputs": [
        {
          "indexed": false,
          "name": "buyer",
          "type": "address"
        },
        {
          "indexed": false,
          "name": "wineProducerId",
          "type": "uint256"
        },
        {
          "indexed": false,
          "name": "wineId",
          "type": "uint256"
        },
        {
          "indexed": false,
          "name": "numWInes",
          "type": "uint256"
        }
      ],
      "name": "LogBuyWine",
      "type": "event"
    },
    {
      "anonymous": false,
      "inputs": [
        {
          "indexed": false,
          "name": "buyer",
          "type": "address"
        },
        {
          "indexed": false,
          "name": "wineProducerId",
          "type": "uint256"
        },
        {
          "indexed": false,
          "name": "wineId",
          "type": "uint256"
        },
        {
          "indexed": false,
          "name": "amountToRefund",
          "type": "uint256"
        }
      ],
      "name": "LogGetRefund",
      "type": "event"
    },
    {
      "anonymous": false,
      "inputs": [
        {
          "indexed": false,
          "name": "wineProducer",
          "type": "address"
        },
        {
          "indexed": false,
          "name": "balance",
          "type": "uint256"
        },
        {
          "indexed": false,
          "name": "wineProducerId",
          "type": "uint256"
        },
        {
          "indexed": false,
          "name": "wineId",
          "type": "uint256"
        }
      ],
      "name": "LogEndSale",
      "type": "event"
    },
    {
      "constant": false,
      "inputs": [
        {
          "name": "_a",
          "type": "address"
        }
      ],
      "name": "addAdmin",
      "outputs": [
        {
          "name": "",
          "type": "bool"
        }
      ],
      "payable": false,
      "stateMutability": "nonpayable",
      "type": "function"
    },
    {
      "constant": false,
      "inputs": [],
      "name": "kill",
      "outputs": [],
      "payable": false,
      "stateMutability": "nonpayable",
      "type": "function"
    },
    {
      "constant": false,
      "inputs": [
        {
          "name": "newBackend",
          "type": "address"
        }
      ],
      "name": "changeBackend",
      "outputs": [
        {
          "name": "",
          "type": "bool"
        }
      ],
      "payable": false,
      "stateMutability": "nonpayable",
      "type": "function"
    },
    {
      "constant": false,
      "inputs": [
        {
          "name": "_name",
          "type": "string"
        },
        {
          "name": "_website",
          "type": "string"
        },
        {
          "name": "_wineProducer",
          "type": "address"
        }
      ],
      "name": "addWineProducer",
      "outputs": [
        {
          "name": "",
          "type": "uint256"
        }
      ],
      "payable": false,
      "stateMutability": "nonpayable",
      "type": "function"
    },
    {
      "constant": false,
      "inputs": [
        {
          "name": "wineProducerId",
          "type": "uint256"
        },
        {
          "name": "_name",
          "type": "string"
        },
        {
          "name": "_description",
          "type": "string"
        },
        {
          "name": "_sku",
          "type": "string"
        },
        {
          "name": "_vintage",
          "type": "uint256"
        },
        {
          "name": "_totalSupply",
          "type": "uint256"
        },
        {
          "name": "_priceEth",
          "type": "uint256"
        }
      ],
      "name": "addWine",
      "outputs": [
        {
          "name": "",
          "type": "uint256"
        }
      ],
      "payable": false,
      "stateMutability": "nonpayable",
      "type": "function"
    },
    {
      "constant": false,
      "inputs": [
        {
          "name": "_wineProducerId",
          "type": "uint256"
        },
        {
          "name": "_wineId",
          "type": "uint256"
        }
      ],
      "name": "reOpenWine",
      "outputs": [],
      "payable": false,
      "stateMutability": "nonpayable",
      "type": "function"
    },
    {
      "constant": false,
      "inputs": [
        {
          "name": "_wineProducerId",
          "type": "uint256"
        },
        {
          "name": "_wineId",
          "type": "uint256"
        }
      ],
      "name": "closeWine",
      "outputs": [],
      "payable": false,
      "stateMutability": "nonpayable",
      "type": "function"
    },
    {
      "constant": true,
      "inputs": [
        {
          "name": "wineProducerId",
          "type": "uint256"
        }
      ],
      "name": "readWineProducer",
      "outputs": [
        {
          "name": "name",
          "type": "string"
        },
        {
          "name": "website",
          "type": "string"
        },
        {
          "name": "numWines",
          "type": "uint256"
        },
        {
          "name": "isOpen",
          "type": "bool"
        }
      ],
      "payable": false,
      "stateMutability": "view",
      "type": "function"
    },
    {
      "constant": true,
      "inputs": [
        {
          "name": "_wineProducerId",
          "type": "uint256"
        },
        {
          "name": "_wineId",
          "type": "uint256"
        }
      ],
      "name": "readWineDescription",
      "outputs": [
        {
          "name": "name",
          "type": "string"
        },
        {
          "name": "description",
          "type": "string"
        },
        {
          "name": "sku",
          "type": "string"
        },
        {
          "name": "vintage",
          "type": "uint256"
        },
        {
          "name": "isOpen",
          "type": "bool"
        }
      ],
      "payable": false,
      "stateMutability": "view",
      "type": "function"
    },
    {
      "constant": true,
      "inputs": [
        {
          "name": "_wineProducerId",
          "type": "uint256"
        },
        {
          "name": "_wineId",
          "type": "uint256"
        }
      ],
      "name": "readWineSalesRelated",
      "outputs": [
        {
          "name": "name",
          "type": "string"
        },
        {
          "name": "totalSupply",
          "type": "uint256"
        },
        {
          "name": "price",
          "type": "uint256"
        },
        {
          "name": "totalSales",
          "type": "uint256"
        }
      ],
      "payable": false,
      "stateMutability": "view",
      "type": "function"
    },
    {
      "constant": false,
      "inputs": [
        {
          "name": "wineProducerId",
          "type": "uint256"
        },
        {
          "name": "wineId",
          "type": "uint256"
        },
        {
          "name": "numberOfPurchasingWines",
          "type": "uint256"
        }
      ],
      "name": "buyWine",
      "outputs": [],
      "payable": true,
      "stateMutability": "payable",
      "type": "function"
    },
    {
      "constant": false,
      "inputs": [
        {
          "name": "wineProducerId",
          "type": "uint256"
        },
        {
          "name": "wineId",
          "type": "uint256"
        }
      ],
      "name": "getRefund",
      "outputs": [],
      "payable": false,
      "stateMutability": "nonpayable",
      "type": "function"
    },
    {
      "constant": true,
      "inputs": [
        {
          "name": "wineProducerId",
          "type": "uint256"
        },
        {
          "name": "wineId",
          "type": "uint256"
        }
      ],
      "name": "getOwnersNumberOfWines",
      "outputs": [
        {
          "name": "purchasedWines",
          "type": "uint256"
        }
      ],
      "payable": false,
      "stateMutability": "view",
      "type": "function"
    },
    {
      "constant": false,
      "inputs": [
        {
          "name": "wineProducerId",
          "type": "uint256"
        },
        {
          "name": "wineId",
          "type": "uint256"
        }
      ],
      "name": "endSale",
      "outputs": [],
      "payable": false,
      "stateMutability": "nonpayable",
      "type": "function"
    }
  ],
  "bytecode": "0x608060405260008060146101000a81548160ff021916908315150217905550600160035534801561002f57600080fd5b50336000806101000a81548173ffffffffffffffffffffffffffffffffffffffff021916908373ffffffffffffffffffffffffffffffffffffffff1602179055506001600560003373ffffffffffffffffffffffffffffffffffffffff1673ffffffffffffffffffffffffffffffffffffffff16815260200190815260200160002060006101000a81548160ff0219169083151502179055506138a0806100d76000396000f3fe6080604052600436106100fe5760003560e01c80638da5cb5b11610095578063dc0eb96611610064578063dc0eb96614610865578063e84a241d146108aa578063eaecfca71461097d578063f3597bd0146109e6578063f4350b9414610b79576100fe565b80638da5cb5b146104db578063ab13f22514610532578063b441a21614610664578063bc7be853146106bd576100fe565b806370480275116100d157806370480275146103bc57806370e82eb21461042557806375f12b211461046757806385fa74bc14610496576100fe565b8063230a37041461010357806326e1e71b1461012e57806337c7df5c1461017357806341c0e1b5146103a5575b600080fd5b34801561010f57600080fd5b50610118610bbe565b6040518082815260200191505060405180910390f35b34801561013a57600080fd5b506101716004803603604081101561015157600080fd5b810190808035906020019092919080359060200190929190505050610bc4565b005b34801561017f57600080fd5b5061038f600480360360e081101561019657600080fd5b8101908080359060200190929190803590602001906401000000008111156101bd57600080fd5b8201836020820111156101cf57600080fd5b803590602001918460018302840111640100000000831117156101f157600080fd5b91908080601f016020809104026020016040519081016040528093929190818152602001838380828437600081840152601f19601f8201169050808301925050505050505091929192908035906020019064010000000081111561025457600080fd5b82018360208201111561026657600080fd5b8035906020019184600183028401116401000000008311171561028857600080fd5b91908080601f016020809104026020016040519081016040528093929190818152602001838380828437600081840152601f19601f820116905080830192505050505050509192919290803590602001906401000000008111156102eb57600080fd5b8201836020820111156102fd57600080fd5b8035906020019184600183028401116401000000008311171561031f57600080fd5b91908080601f016020809104026020016040519081016040528093929190818152602001838380828437600081840152601f19601f820116905080830192505050505050509192919290803590602001909291908035906020019092919080359060200190929190505050610fff565b6040518082815260200191505060405180910390f35b3480156103b157600080fd5b506103ba611473565b005b3480156103c857600080fd5b5061040b600480360360208110156103df57600080fd5b81019080803573ffffffffffffffffffffffffffffffffffffffff16906020019092919050505061156f565b604051808215151515815260200191505060405180910390f35b6104656004803603606081101561043b57600080fd5b81019080803590602001909291908035906020019092919080359060200190929190505050611698565b005b34801561047357600080fd5b5061047c611b5a565b604051808215151515815260200191505060405180910390f35b3480156104a257600080fd5b506104d9600480360360408110156104b957600080fd5b810190808035906020019092919080359060200190929190505050611b6d565b005b3480156104e757600080fd5b506104f0611f89565b604051808273ffffffffffffffffffffffffffffffffffffffff1673ffffffffffffffffffffffffffffffffffffffff16815260200191505060405180910390f35b34801561053e57600080fd5b5061056b6004803603602081101561055557600080fd5b8101908080359060200190929190505050611fae565b60405180806020018060200185815260200184151515158152602001838103835287818151815260200191508051906020019080838360005b838110156105bf5780820151818401526020810190506105a4565b50505050905090810190601f1680156105ec5780820380516001836020036101000a031916815260200191505b50838103825286818151815260200191508051906020019080838360005b8381101561062557808201518184015260208101905061060a565b50505050905090810190601f1680156106525780820380516001836020036101000a031916815260200191505b50965050505050505060405180910390f35b34801561067057600080fd5b506106a76004803603604081101561068757600080fd5b810190808035906020019092919080359060200190929190505050612162565b6040518082815260200191505060405180910390f35b3480156106c957600080fd5b50610700600480360360408110156106e057600080fd5b810190808035906020019092919080359060200190929190505050612326565b6040518080602001806020018060200186815260200185151515158152602001848103845289818151815260200191508051906020019080838360005b8381101561075857808201518184015260208101905061073d565b50505050905090810190601f1680156107855780820380516001836020036101000a031916815260200191505b50848103835288818151815260200191508051906020019080838360005b838110156107be5780820151818401526020810190506107a3565b50505050905090810190601f1680156107eb5780820380516001836020036101000a031916815260200191505b50848103825287818151815260200191508051906020019080838360005b83811015610824578082015181840152602081019050610809565b50505050905090810190601f1680156108515780820380516001836020036101000a031916815260200191505b509850505050505050505060405180910390f35b34801561087157600080fd5b506108a86004803603604081101561088857600080fd5b810190808035906020019092919080359060200190929190505050612749565b005b3480156108b657600080fd5b506108ed600480360360408110156108cd57600080fd5b810190808035906020019092919080359060200190929190505050612b84565b6040518080602001858152602001848152602001838152602001828103825286818151815260200191508051906020019080838360005b8381101561093f578082015181840152602081019050610924565b50505050905090810190601f16801561096c5780820380516001836020036101000a031916815260200191505b509550505050505060405180910390f35b34801561098957600080fd5b506109cc600480360360208110156109a057600080fd5b81019080803573ffffffffffffffffffffffffffffffffffffffff169060200190929190505050612e35565b604051808215151515815260200191505060405180910390f35b3480156109f257600080fd5b50610b6360048036036060811015610a0957600080fd5b8101908080359060200190640100000000811115610a2657600080fd5b820183602082011115610a3857600080fd5b80359060200191846001830284011164010000000083111715610a5a57600080fd5b91908080601f016020809104026020016040519081016040528093929190818152602001838380828437600081840152601f19601f82011690508083019250505050505050919291929080359060200190640100000000811115610abd57600080fd5b820183602082011115610acf57600080fd5b80359060200191846001830284011164010000000083111715610af157600080fd5b91908080601f016020809104026020016040519081016040528093929190818152602001838380828437600081840152601f19601f820116905080830192505050505050509192919290803573ffffffffffffffffffffffffffffffffffffffff16906020019092919050505061302a565b6040518082815260200191505060405180910390f35b348015610b8557600080fd5b50610bbc60048036036040811015610b9c57600080fd5b810190808035906020019092919080359060200190929190505050613319565b005b60045481565b816006600082815260200190815260200160002060050160009054906101000a900460ff16610c5b576040517f08c379a000000000000000000000000000000000000000000000000000000000815260040180806020018281038252601c8152602001807f77696e652070726f647563657220646f6573206e6f742065786973740000000081525060200191505060405180910390fd5b3373ffffffffffffffffffffffffffffffffffffffff166006600083815260200190815260200160002060020160009054906101000a900473ffffffffffffffffffffffffffffffffffffffff1673ffffffffffffffffffffffffffffffffffffffff1614610d15576040517f08c379a00000000000000000000000000000000000000000000000000000000081526004018080602001828103825260248152602001806137e06024913960400191505060405180910390fd5b8282600115156006600084815260200190815260200160002060050160009054906101000a900460ff16151514610db4576040517f08c379a000000000000000000000000000000000000000000000000000000000815260040180806020018281038252601c8152602001807f77696e652070726f647563657220646f6573206e6f742065786973740000000081525060200191505060405180910390fd5b6001151560066000848152602001908152602001600020600401600083815260200190815260200160002060080160009054906101000a900460ff16151514610e65576040517f08c379a00000000000000000000000000000000000000000000000000000000081526004018080602001828103825260138152602001807f77696e6520646f6573206e6f742065786973740000000000000000000000000081525060200191505060405180910390fd5b6000841015610ebf576040517f08c379a00000000000000000000000000000000000000000000000000000000081526004018080602001828103825260288152602001806138046028913960400191505060405180910390fd5b60006006600087815260200190815260200160002060050160016101000a81548160ff0219169083151502179055507f81cad14f899f0924e2450399fdfd7e71b0f142022f07e8b134060f5db77d8ffb60066000878152602001908152602001600020600001338660405180806020018473ffffffffffffffffffffffffffffffffffffffff1673ffffffffffffffffffffffffffffffffffffffff168152602001838152602001828103825285818154600181600116156101000203166002900481526020019150805460018160011615610100020316600290048015610fe85780601f10610fbd57610100808354040283529160200191610fe8565b820191906000526020600020905b815481529060010190602001808311610fcb57829003601f168201915b505094505050505060405180910390a15050505050565b6000876006600082815260200190815260200160002060050160009054906101000a900460ff16611098576040517f08c379a000000000000000000000000000000000000000000000000000000000815260040180806020018281038252601c8152602001807f77696e652070726f647563657220646f6573206e6f742065786973740000000081525060200191505060405180910390fd5b3373ffffffffffffffffffffffffffffffffffffffff166006600083815260200190815260200160002060020160009054906101000a900473ffffffffffffffffffffffffffffffffffffffff1673ffffffffffffffffffffffffffffffffffffffff1614611152576040517f08c379a00000000000000000000000000000000000000000000000000000000081526004018080602001828103825260248152602001806137e06024913960400191505060405180910390fd5b6000600660008b815260200190815260200160002060030154905060008110156111c7576040517f08c379a000000000000000000000000000000000000000000000000000000000815260040180806020018281038252602781526020018061384e6027913960400191505060405180910390fd5b6040518061012001604052808a81526020018981526020018881526020018781526020018681526020018581526020016000815260200160011515815260200160011515815250600660008c81526020019081526020016000206004016000838152602001908152602001600020600082015181600001908051906020019061125192919061373a565b50602082015181600101908051906020019061126e92919061373a565b50604082015181600201908051906020019061128b92919061373a565b50606082015181600301556080820151816004015560a0820151816006015560c0820151816007015560e08201518160080160006101000a81548160ff0219169083151502179055506101008201518160080160016101000a81548160ff0219169083151502179055509050507f070aa1bb7e0e9a57005aa19310dc9c99e1fd3c956b5fdb1ceb59038ea442faf98933898460405180806020018573ffffffffffffffffffffffffffffffffffffffff1673ffffffffffffffffffffffffffffffffffffffff16815260200180602001848152602001838103835287818151815260200191508051906020019080838360005b8381101561139957808201518184015260208101905061137e565b50505050905090810190601f1680156113c65780820380516001836020036101000a031916815260200191505b50838103825285818151815260200191508051906020019080838360005b838110156113ff5780820151818401526020810190506113e4565b50505050905090810190601f16801561142c5780820380516001836020036101000a031916815260200191505b50965050505050505060405180910390a1600660008b8152602001908152602001600020600301600081548092919060010191905055508092505050979650505050505050565b6000809054906101000a900473ffffffffffffffffffffffffffffffffffffffff1673ffffffffffffffffffffffffffffffffffffffff163373ffffffffffffffffffffffffffffffffffffffff1614611535576040517f08c379a00000000000000000000000000000000000000000000000000000000081526004018080602001828103825260178152602001807f6d73672e73656e646572206973206e6f74206f776e657200000000000000000081525060200191505060405180910390fd5b6000809054906101000a900473ffffffffffffffffffffffffffffffffffffffff1673ffffffffffffffffffffffffffffffffffffffff16ff5b600060011515600560003373ffffffffffffffffffffffffffffffffffffffff1673ffffffffffffffffffffffffffffffffffffffff16815260200190815260200160002060009054906101000a900460ff16151514611637576040517f08c379a00000000000000000000000000000000000000000000000000000000081526004018080602001828103825260178152602001807f6d73672e73656e646572206973206e6f742061646d696e00000000000000000081525060200191505060405180910390fd5b6001600560008473ffffffffffffffffffffffffffffffffffffffff1673ffffffffffffffffffffffffffffffffffffffff16815260200190815260200160002060006101000a81548160ff02191690831515021790555060019050919050565b8282600115156006600084815260200190815260200160002060050160009054906101000a900460ff16151514611737576040517f08c379a000000000000000000000000000000000000000000000000000000000815260040180806020018281038252601c8152602001807f77696e652070726f647563657220646f6573206e6f742065786973740000000081525060200191505060405180910390fd5b6001151560066000848152602001908152602001600020600401600083815260200190815260200160002060080160009054906101000a900460ff161515146117e8576040517f08c379a00000000000000000000000000000000000000000000000000000000081526004018080602001828103825260138152602001807f77696e6520646f6573206e6f742065786973740000000000000000000000000081525060200191505060405180910390fd5b600060035460066000888152602001908152602001600020600401600087815260200190815260200160002060060154029050838102341015611876576040517f08c379a000000000000000000000000000000000000000000000000000000000815260040180806020018281038252602281526020018061382c6022913960400191505060405180910390fd5b83600660008881526020019081526020016000206004016000878152602001908152602001600020600401541015611916576040517f08c379a00000000000000000000000000000000000000000000000000000000081526004018080602001828103825260158152602001807f4e6f7420656e6f7567682077696e6573206c656674000000000000000000000081525060200191505060405180910390fd5b8360066000888152602001908152602001600020600401600087815260200190815260200160002060050160003373ffffffffffffffffffffffffffffffffffffffff1673ffffffffffffffffffffffffffffffffffffffff16815260200190815260200160002060008282540192505081905550836006600088815260200190815260200160002060040160008781526020019081526020016000206007016000828254019250508190555083600660008881526020019081526020016000206004016000878152602001908152602001600020600401600082825403925050819055507f5c5c2946757aaf59d0000ba51c306e71293522310ec8a9f9ae431ecaebf57cca33878787604051808573ffffffffffffffffffffffffffffffffffffffff1673ffffffffffffffffffffffffffffffffffffffff16815260200184815260200183815260200182815260200194505050505060405180910390a1600084820234031115611b525760008485830202340390503373ffffffffffffffffffffffffffffffffffffffff166108fc829081150290604051600060405180830381858888f19350505050158015611ad4573d6000803e3d6000fd5b507f3790b07ee11214e4d6cc672680fe583532064e0ee21446cbf0af0c3fe640eee133888884604051808573ffffffffffffffffffffffffffffffffffffffff1673ffffffffffffffffffffffffffffffffffffffff16815260200184815260200183815260200182815260200194505050505060405180910390a1505b505050505050565b600060149054906101000a900460ff1681565b8181600115156006600084815260200190815260200160002060050160009054906101000a900460ff16151514611c0c576040517f08c379a000000000000000000000000000000000000000000000000000000000815260040180806020018281038252601c8152602001807f77696e652070726f647563657220646f6573206e6f742065786973740000000081525060200191505060405180910390fd5b6001151560066000848152602001908152602001600020600401600083815260200190815260200160002060080160009054906101000a900460ff16151514611cbd576040517f08c379a00000000000000000000000000000000000000000000000000000000081526004018080602001828103825260138152602001807f77696e6520646f6573206e6f742065786973740000000000000000000000000081525060200191505060405180910390fd5b600060066000868152602001908152602001600020600401600085815260200190815260200160002060050160003373ffffffffffffffffffffffffffffffffffffffff1673ffffffffffffffffffffffffffffffffffffffff16815260200190815260200160002054905060006003546006600088815260200190815260200160002060040160008781526020019081526020016000206006015402905060008211611dd2576040517f08c379a00000000000000000000000000000000000000000000000000000000081526004018080602001828103825260108152602001807f6e6f7420656e6f7567682077696e65730000000000000000000000000000000081525060200191505060405180910390fd5b600082820290503373ffffffffffffffffffffffffffffffffffffffff166108fc829081150290604051600060405180830381858888f19350505050158015611e1f573d6000803e3d6000fd5b507f3790b07ee11214e4d6cc672680fe583532064e0ee21446cbf0af0c3fe640eee133888884604051808573ffffffffffffffffffffffffffffffffffffffff1673ffffffffffffffffffffffffffffffffffffffff16815260200184815260200183815260200182815260200194505050505060405180910390a18260066000898152602001908152602001600020600401600088815260200190815260200160002060050160003373ffffffffffffffffffffffffffffffffffffffff1673ffffffffffffffffffffffffffffffffffffffff168152602001908152602001600020600082825403925050819055508260066000898152602001908152602001600020600401600088815260200190815260200160002060070160008282540392505081905550826006600089815260200190815260200160002060040160008881526020019081526020016000206004016000828254019250508190555050505050505050565b6000809054906101000a900473ffffffffffffffffffffffffffffffffffffffff1681565b606080600080600660008681526020019081526020016000206000016006600087815260200190815260200160002060010160066000888152602001908152602001600020600301546006600089815260200190815260200160002060050160019054906101000a900460ff16838054600181600116156101000203166002900480601f0160208091040260200160405190810160405280929190818152602001828054600181600116156101000203166002900480156120b05780601f10612085576101008083540402835291602001916120b0565b820191906000526020600020905b81548152906001019060200180831161209357829003601f168201915b50505050509350828054600181600116156101000203166002900480601f01602080910402602001604051908101604052809291908181526020018280546001816001161561010002031660029004801561214c5780601f106121215761010080835404028352916020019161214c565b820191906000526020600020905b81548152906001019060200180831161212f57829003601f168201915b5050505050925093509350935093509193509193565b60008282600115156006600084815260200190815260200160002060050160009054906101000a900460ff16151514612203576040517f08c379a000000000000000000000000000000000000000000000000000000000815260040180806020018281038252601c8152602001807f77696e652070726f647563657220646f6573206e6f742065786973740000000081525060200191505060405180910390fd5b6001151560066000848152602001908152602001600020600401600083815260200190815260200160002060080160009054906101000a900460ff161515146122b4576040517f08c379a00000000000000000000000000000000000000000000000000000000081526004018080602001828103825260138152602001807f77696e6520646f6573206e6f742065786973740000000000000000000000000081525060200191505060405180910390fd5b60066000868152602001908152602001600020600401600085815260200190815260200160002060050160003373ffffffffffffffffffffffffffffffffffffffff1673ffffffffffffffffffffffffffffffffffffffff168152602001908152602001600020549250505092915050565b60608060606000808686600115156006600084815260200190815260200160002060050160009054906101000a900460ff161515146123cd576040517f08c379a000000000000000000000000000000000000000000000000000000000815260040180806020018281038252601c8152602001807f77696e652070726f647563657220646f6573206e6f742065786973740000000081525060200191505060405180910390fd5b6001151560066000848152602001908152602001600020600401600083815260200190815260200160002060080160009054906101000a900460ff1615151461247e576040517f08c379a00000000000000000000000000000000000000000000000000000000081526004018080602001828103825260138152602001807f77696e6520646f6573206e6f742065786973740000000000000000000000000081525060200191505060405180910390fd5b600660008a81526020019081526020016000206004016000898152602001908152602001600020600001600660008b815260200190815260200160002060040160008a8152602001908152602001600020600101600660008c815260200190815260200160002060040160008b8152602001908152602001600020600201600660008d815260200190815260200160002060040160008c815260200190815260200160002060030154600660008e815260200190815260200160002060040160008d815260200190815260200160002060080160019054906101000a900460ff16848054600181600116156101000203166002900480601f0160208091040260200160405190810160405280929190818152602001828054600181600116156101000203166002900480156125f45780601f106125c9576101008083540402835291602001916125f4565b820191906000526020600020905b8154815290600101906020018083116125d757829003601f168201915b50505050509450838054600181600116156101000203166002900480601f0160208091040260200160405190810160405280929190818152602001828054600181600116156101000203166002900480156126905780601f1061266557610100808354040283529160200191612690565b820191906000526020600020905b81548152906001019060200180831161267357829003601f168201915b50505050509350828054600181600116156101000203166002900480601f01602080910402602001604051908101604052809291908181526020018280546001816001161561010002031660029004801561272c5780601f106127015761010080835404028352916020019161272c565b820191906000526020600020905b81548152906001019060200180831161270f57829003601f168201915b505050505092509650965096509650965050509295509295909350565b816006600082815260200190815260200160002060050160009054906101000a900460ff166127e0576040517f08c379a000000000000000000000000000000000000000000000000000000000815260040180806020018281038252601c8152602001807f77696e652070726f647563657220646f6573206e6f742065786973740000000081525060200191505060405180910390fd5b3373ffffffffffffffffffffffffffffffffffffffff166006600083815260200190815260200160002060020160009054906101000a900473ffffffffffffffffffffffffffffffffffffffff1673ffffffffffffffffffffffffffffffffffffffff161461289a576040517f08c379a00000000000000000000000000000000000000000000000000000000081526004018080602001828103825260248152602001806137e06024913960400191505060405180910390fd5b8282600115156006600084815260200190815260200160002060050160009054906101000a900460ff16151514612939576040517f08c379a000000000000000000000000000000000000000000000000000000000815260040180806020018281038252601c8152602001807f77696e652070726f647563657220646f6573206e6f742065786973740000000081525060200191505060405180910390fd5b6001151560066000848152602001908152602001600020600401600083815260200190815260200160002060080160009054906101000a900460ff161515146129ea576040517f08c379a00000000000000000000000000000000000000000000000000000000081526004018080602001828103825260138152602001807f77696e6520646f6573206e6f742065786973740000000000000000000000000081525060200191505060405180910390fd5b6000841015612a44576040517f08c379a00000000000000000000000000000000000000000000000000000000081526004018080602001828103825260288152602001806138046028913960400191505060405180910390fd5b60016006600087815260200190815260200160002060050160016101000a81548160ff0219169083151502179055507f81cad14f899f0924e2450399fdfd7e71b0f142022f07e8b134060f5db77d8ffb60066000878152602001908152602001600020600001338660405180806020018473ffffffffffffffffffffffffffffffffffffffff1673ffffffffffffffffffffffffffffffffffffffff168152602001838152602001828103825285818154600181600116156101000203166002900481526020019150805460018160011615610100020316600290048015612b6d5780601f10612b4257610100808354040283529160200191612b6d565b820191906000526020600020905b815481529060010190602001808311612b5057829003601f168201915b505094505050505060405180910390a15050505050565b606060008060008585600115156006600084815260200190815260200160002060050160009054906101000a900460ff16151514612c2a576040517f08c379a000000000000000000000000000000000000000000000000000000000815260040180806020018281038252601c8152602001807f77696e652070726f647563657220646f6573206e6f742065786973740000000081525060200191505060405180910390fd5b6001151560066000848152602001908152602001600020600401600083815260200190815260200160002060080160009054906101000a900460ff16151514612cdb576040517f08c379a00000000000000000000000000000000000000000000000000000000081526004018080602001828103825260138152602001807f77696e6520646f6573206e6f742065786973740000000000000000000000000081525060200191505060405180910390fd5b600660008981526020019081526020016000206004016000888152602001908152602001600020600001600660008a8152602001908152602001600020600401600089815260200190815260200160002060040154600660008b815260200190815260200160002060040160008a815260200190815260200160002060060154600660008c815260200190815260200160002060040160008b815260200190815260200160002060070154838054600181600116156101000203166002900480601f016020809104026020016040519081016040528092919081815260200182805460018160011615610100020316600290048015612e1b5780601f10612df057610100808354040283529160200191612e1b565b820191906000526020600020905b815481529060010190602001808311612dfe57829003601f168201915b505050505093509550955095509550505092959194509250565b60008060009054906101000a900473ffffffffffffffffffffffffffffffffffffffff1673ffffffffffffffffffffffffffffffffffffffff163373ffffffffffffffffffffffffffffffffffffffff1614612ef9576040517f08c379a00000000000000000000000000000000000000000000000000000000081526004018080602001828103825260178152602001807f6d73672e73656e646572206973206e6f74206f776e657200000000000000000081525060200191505060405180910390fd5b600160009054906101000a900473ffffffffffffffffffffffffffffffffffffffff1673ffffffffffffffffffffffffffffffffffffffff168273ffffffffffffffffffffffffffffffffffffffff1614613020576002600160009054906101000a900473ffffffffffffffffffffffffffffffffffffffff1690806001815401808255809150509060018203906000526020600020016000909192909190916101000a81548173ffffffffffffffffffffffffffffffffffffffff021916908373ffffffffffffffffffffffffffffffffffffffff1602179055505081600160006101000a81548173ffffffffffffffffffffffffffffffffffffffff021916908373ffffffffffffffffffffffffffffffffffffffff16021790555060019050613025565b600090505b919050565b600060011515600560003373ffffffffffffffffffffffffffffffffffffffff1673ffffffffffffffffffffffffffffffffffffffff16815260200190815260200160002060009054906101000a900460ff161515146130f2576040517f08c379a00000000000000000000000000000000000000000000000000000000081526004018080602001828103825260178152602001807f6d73672e73656e646572206973206e6f742061646d696e00000000000000000081525060200191505060405180910390fd5b600060045490506040518060c001604052808681526020018581526020018473ffffffffffffffffffffffffffffffffffffffff168152602001600081526020016001151581526020016001151581525060066000838152602001908152602001600020600082015181600001908051906020019061317292919061373a565b50602082015181600101908051906020019061318f92919061373a565b5060408201518160020160006101000a81548173ffffffffffffffffffffffffffffffffffffffff021916908373ffffffffffffffffffffffffffffffffffffffff1602179055506060820151816003015560808201518160050160006101000a81548160ff02191690831515021790555060a08201518160050160016101000a81548160ff0219169083151502179055509050507f723993f718abf27619ef9f2f67f244d1cb5df0839150c449e0f95bce94b64c5d85848360405180806020018473ffffffffffffffffffffffffffffffffffffffff1673ffffffffffffffffffffffffffffffffffffffff168152602001838152602001828103825285818151815260200191508051906020019080838360005b838110156132c05780820151818401526020810190506132a5565b50505050905090810190601f1680156132ed5780820380516001836020036101000a031916815260200191505b5094505050505060405180910390a1600460008154809291906001019190505550809150509392505050565b816006600082815260200190815260200160002060050160009054906101000a900460ff166133b0576040517f08c379a000000000000000000000000000000000000000000000000000000000815260040180806020018281038252601c8152602001807f77696e652070726f647563657220646f6573206e6f742065786973740000000081525060200191505060405180910390fd5b3373ffffffffffffffffffffffffffffffffffffffff166006600083815260200190815260200160002060020160009054906101000a900473ffffffffffffffffffffffffffffffffffffffff1673ffffffffffffffffffffffffffffffffffffffff161461346a576040517f08c379a00000000000000000000000000000000000000000000000000000000081526004018080602001828103825260248152602001806137e06024913960400191505060405180910390fd5b8282600115156006600084815260200190815260200160002060050160009054906101000a900460ff16151514613509576040517f08c379a000000000000000000000000000000000000000000000000000000000815260040180806020018281038252601c8152602001807f77696e652070726f647563657220646f6573206e6f742065786973740000000081525060200191505060405180910390fd5b6001151560066000848152602001908152602001600020600401600083815260200190815260200160002060080160009054906101000a900460ff161515146135ba576040517f08c379a00000000000000000000000000000000000000000000000000000000081526004018080602001828103825260138152602001807f77696e6520646f6573206e6f742065786973740000000000000000000000000081525060200191505060405180910390fd5b600060066000878152602001908152602001600020600401600086815260200190815260200160002060080160016101000a81548160ff02191690831515021790555060006006600087815260200190815260200160002060020160009054906101000a900473ffffffffffffffffffffffffffffffffffffffff1673ffffffffffffffffffffffffffffffffffffffff163190506000809054906101000a900473ffffffffffffffffffffffffffffffffffffffff1673ffffffffffffffffffffffffffffffffffffffff166108fc829081150290604051600060405180830381858888f193505050501580156136b6573d6000803e3d6000fd5b507f44b9736b00c182e52df2a3c058a074be7a17d58dc0d93182cd3368dc2287a4e233828888604051808573ffffffffffffffffffffffffffffffffffffffff1673ffffffffffffffffffffffffffffffffffffffff16815260200184815260200183815260200182815260200194505050505060405180910390a1505050505050565b828054600181600116156101000203166002900490600052602060002090601f016020900481019282601f1061377b57805160ff19168380011785556137a9565b828001600101855582156137a9579182015b828111156137a857825182559160200191906001019061378d565b5b5090506137b691906137ba565b5090565b6137dc91905b808211156137d85760008160009055506001016137c0565b5090565b9056fe77696e652070726f6475636572206164647265737320646f6573206e6f74206d6174636877696e654964206973206e6f742067726561746572207468616e206f7220657175616c20746f20306e6f7420656e6f7567682076616c75652073656e7420746f206275792077696e65736e65774964206973206e6f742067726561746572207468616e206f7220657175616c20746f2030a165627a7a723058208e07888c7e456e9fb5688e160c17c12981a45aef68442585bbd8138408b3d3b90029",
  "source": "pragma solidity ^0.5.0;\n\n    /*\n        The EventTicketsV2 contract keeps track of the details and ticket sales of multiple events.\n     */\ncontract VintageExplorer{\n\n    /*\n        Define an public owner variable. Set it to the creator of the contract when it is initialized.\n    */\n    address payable public owner;\n    bool public stopped = false;\n    address backendContract;\n    address[] previousBackends;\n\n    uint ONE_WEI = 1 wei;\n\n    /*\n        Create a variable to keep track of the wine ID numbers.\n    */\n    uint public numWineProducers;\n\n    \n    /*\n        Define an Event struct, similar to the V1 of this contract.\n        The struct has 6 fields: description, website (URL), totalTickets, sales, buyers, and isOpen.\n        Choose the appropriate variable type for each field.\n        The \"buyers\" field should keep track of addresses and how many tickets each buyer purchases.\n    */\n\n    struct WineProducer {\n        string name;\n        string website;\n        address wineProducer;\n        uint numWines;\n        mapping (uint => Wine) wines;\n        bool exists;\n        bool isOpen;\n    }\n\n    struct Wine {\n        string name;\n        string description;\n        string sku;\n        uint vintage;\n        uint totalSupply;\n        mapping (address => uint) owners;\n        uint price;\n        uint totalSales;\n        bool exists;\n        bool isOpen;\n    }\n\n    mapping (address => bool) admins;\n    /*\n        Create a mapping to keep track of the events.\n        The mapping key is an integer, the value is an Event struct.\n        Call the mapping \"events\".\n    */\n    mapping (uint => WineProducer) wineProducers;\n\n    event LogWineProducerAdded(string name, address wineProducer, uint wineProducerId);\n    event LogWineAdded(string name, address wineProducer, string sku, uint wineId);\n    event LogWineReOpened(string name, address wineProducer, uint wineId);\n    event LogWineClosed(string name, address wineProducer, uint wineId);\n    event LogBuyWine(address buyer,uint wineProducerId, uint wineId, uint numWInes);\n    event LogGetRefund(address buyer,uint wineProducerId, uint wineId, uint amountToRefund);\n    event LogEndSale(address wineProducer,uint balance, uint wineProducerId, uint wineId);\n\n    /*\n        Create a modifier that throws an error if the msg.sender is not the owner.\n    */\n    modifier onlyOwner { require(msg.sender == owner, 'msg.sender is not owner'); _; }\n    modifier onlyAdmin { require(admins[msg.sender] == true, 'msg.sender is not admin'); _; }\n    modifier stopInEmergency { require(!stopped); _;}\n    modifier onlyInEmergency { require(stopped); _;}\n\n    modifier verifyCaller (address _address) { require (msg.sender == _address, 'msg sender is not address'); _;}\n\n    modifier onlyWineProducer (uint _wineProducerId) {\n        require (wineProducers[_wineProducerId].exists, 'wine producer does not exist');\n        require (wineProducers[_wineProducerId].wineProducer == msg.sender, 'wine producer address does not match');\n        _;\n    }\n\n    modifier checkIfWineProducerAndWineExists(uint _wineProducerId, uint _wineId) {\n        require(wineProducers[_wineProducerId].exists == true, 'wine producer does not exist');\n        require(wineProducers[_wineProducerId].wines[_wineId].exists == true, 'wine does not exist');\n        _;\n    }\n\n    modifier paidEnough(uint _price) { require(msg.value >= _price, 'msg value is not enough'); _;}\n\n    constructor() public {\n        owner = msg.sender;\n        admins[msg.sender] = true;\n    }\n\n    function addAdmin(address _a)\n        public\n        onlyAdmin\n        returns(bool)\n    {\n        admins[_a] = true;\n        return true;\n    }\n\n    function kill()\n        public\n        onlyOwner\n    {\n        selfdestruct(owner);\n    }\n\n    function changeBackend(address newBackend) public\n        onlyOwner()\n        returns (bool)\n    {\n        if(newBackend != backendContract) {\n            previousBackends.push(backendContract);\n            backendContract = newBackend;\n            return true;\n        }\n        return false;\n    }\n\n    /*\n        Define a function called addEvent().\n        This function takes 3 parameters, an event description, a URL, and a number of tickets.\n        Only the contract owner should be able to call this function.\n        In the function:\n            - Set the description, URL and ticket number in a new event.\n            - set the event to open\n            - set an event ID\n            - increment the ID\n            - emit the appropriate event\n            - return the event's ID\n    */\n\n    function addWineProducer(string memory _name, string memory _website, address _wineProducer)\n        public\n        onlyAdmin()\n        returns(uint)\n    {\n        uint newId = numWineProducers;\n        wineProducers[newId] = WineProducer({\n            name : _name,\n            website : _website,\n            wineProducer : _wineProducer,\n            numWines : 0,\n            exists : true,\n            isOpen : true\n        });\n        emit LogWineProducerAdded(_name, _wineProducer, newId);\n        numWineProducers++;\n        return newId;\n    }\n\n    function addWine(uint wineProducerId, string memory _name,\n        string memory _description, string memory _sku, uint _vintage, uint _totalSupply, uint _priceEth)\n        public\n        onlyWineProducer(wineProducerId)\n        returns(uint)\n    {\n        uint newId = wineProducers[wineProducerId].numWines;\n        require(newId >= 0, \"newId is not greater than or equal to 0\");\n        wineProducers[wineProducerId].wines[newId] = Wine({\n            name : _name,\n            description : _description,\n            sku : _sku,\n            vintage : _vintage,\n            totalSupply : _totalSupply,\n            price : _priceEth,\n            totalSales : 0,\n            exists : true,\n            isOpen : true\n        });\n        emit LogWineAdded(_name, msg.sender, _sku, newId);\n        wineProducers[wineProducerId].numWines++;\n        return newId;\n    }\n\n    function reOpenWine(uint _wineProducerId, uint _wineId)\n        public\n        onlyWineProducer(_wineProducerId)\n        checkIfWineProducerAndWineExists(_wineProducerId, _wineId)\n    {\n        require(_wineId >= 0, \"wineId is not greater than or equal to 0\");\n        wineProducers[_wineProducerId].isOpen = false;\n        emit LogWineReOpened(wineProducers[_wineProducerId].name, msg.sender, _wineId);\n    }\n\n    function closeWine(uint _wineProducerId, uint _wineId)\n        public\n        onlyWineProducer( _wineProducerId)\n        checkIfWineProducerAndWineExists(_wineProducerId, _wineId)\n    {\n        require(_wineId >= 0, \"wineId is not greater than or equal to 0\");\n        wineProducers[_wineProducerId].isOpen = true;\n        emit LogWineReOpened(wineProducers[_wineProducerId].name, msg.sender, _wineId);\n    }\n\n    /*\n        Define a function called readEvent().\n        This function takes one parameter, the event ID.\n        The function returns information about the event this order:\n            1. description\n            2. URL\n            3. ticket available\n            4. sales\n            5. isOpen\n    */\n    function readWineProducer(uint wineProducerId)\n        public\n        view\n        returns(string memory name, string memory website,\n        uint numWines, bool isOpen)\n    {\n        return (\n            wineProducers[wineProducerId].name,\n            wineProducers[wineProducerId].website,\n            wineProducers[wineProducerId].numWines,\n            wineProducers[wineProducerId].isOpen\n        );\n    }\n    /*\n        Define a function called readEvent().\n        This function takes one parameter, the event ID.\n        The function returns information about the event this order:\n            1. description\n            2. URL\n            3. ticket available\n            4. sales\n            5. isOpen\n    */\n    function readWineDescription(uint _wineProducerId, uint _wineId)\n        public\n        view\n        checkIfWineProducerAndWineExists(_wineProducerId, _wineId)\n        returns(string memory name, string memory description,\n        string memory sku, uint vintage,\n        bool isOpen)\n    {\n        return (\n            wineProducers[_wineProducerId].wines[_wineId].name,\n            wineProducers[_wineProducerId].wines[_wineId].description,\n            wineProducers[_wineProducerId].wines[_wineId].sku,\n            wineProducers[_wineProducerId].wines[_wineId].vintage,\n            wineProducers[_wineProducerId].wines[_wineId].isOpen\n        );\n    }\n\n    function readWineSalesRelated(uint _wineProducerId, uint _wineId)\n        public\n        view\n        checkIfWineProducerAndWineExists(_wineProducerId, _wineId)\n        returns(string memory name, uint totalSupply,\n        uint price, uint totalSales)\n    {\n        return (\n            wineProducers[_wineProducerId].wines[_wineId].name,\n            wineProducers[_wineProducerId].wines[_wineId].totalSupply,\n            wineProducers[_wineProducerId].wines[_wineId].price,\n            wineProducers[_wineProducerId].wines[_wineId].totalSales\n        );\n    }\n    /*\n        Define a function called buyTickets().\n        This function allows users to buy tickets for a specific event.\n        This function takes 2 parameters, an event ID and a number of tickets.\n        The function checks:\n            - that the event sales are open\n            - that the transaction value is sufficient to purchase the number of tickets\n            - that there are enough tickets available to complete the purchase\n        The function:\n            - increments the purchasers ticket count\n            - increments the ticket sale count\n            - refunds any surplus value sent\n            - emits the appropriate event\n    */\n\n    function buyWine(uint wineProducerId, uint wineId, uint numberOfPurchasingWines)\n        public\n        payable\n        checkIfWineProducerAndWineExists(wineProducerId, wineId)\n    {\n        uint winePrice = (wineProducers[wineProducerId].wines[wineId].price) * ONE_WEI;\n        require(msg.value >=\n            winePrice * numberOfPurchasingWines,\n            'not enough value sent to buy wines');\n        require(wineProducers[wineProducerId].wines[wineId].totalSupply\n            >= numberOfPurchasingWines, 'Not enough wines left');\n        wineProducers[wineProducerId].wines[wineId].owners[msg.sender] += numberOfPurchasingWines;\n        wineProducers[wineProducerId].wines[wineId].totalSales += numberOfPurchasingWines;\n        wineProducers[wineProducerId].wines[wineId].totalSupply -= numberOfPurchasingWines;\n        emit LogBuyWine(msg.sender, wineProducerId, wineId, numberOfPurchasingWines);\n        if(msg.value -\n            winePrice*numberOfPurchasingWines > 0\n        ){\n            uint amountToRefund = msg.value - winePrice * numberOfPurchasingWines * numberOfPurchasingWines;\n            msg.sender.transfer(amountToRefund);\n            emit LogGetRefund(msg.sender, wineProducerId, wineId, amountToRefund);\n        }\n    }\n\n    // /*\n    //     Define a function called getRefund().\n    //     This function allows users to request a refund for a specific event.\n    //     This function takes one parameter, the event ID.\n    //     TODO:\n    //         - check that a user has purchased tickets for the event\n    //         - remove refunded tickets from the sold count\n    //         - send appropriate value to the refund requester\n    //         - emit the appropriate event\n    // */\n\n    function getRefund(uint wineProducerId, uint wineId)\n        public\n        checkIfWineProducerAndWineExists(wineProducerId, wineId)\n    {\n        uint numberOfWines = wineProducers[wineProducerId].wines[wineId].owners[msg.sender];\n        uint winePrice = wineProducers[wineProducerId].wines[wineId].price * ONE_WEI;\n        require(numberOfWines > 0, 'not enough wines');\n        uint amountToRefund = winePrice * numberOfWines;\n        msg.sender.transfer(amountToRefund);\n        emit LogGetRefund(msg.sender, wineProducerId, wineId, amountToRefund);\n        wineProducers[wineProducerId].wines[wineId].owners[msg.sender] -= numberOfWines;\n        wineProducers[wineProducerId].wines[wineId].totalSales -= numberOfWines;\n        wineProducers[wineProducerId].wines[wineId].totalSupply += numberOfWines;\n    }\n\n    // /*\n    //     Define a function called getBuyerNumberTickets()\n    //     This function takes one parameter, an event ID\n    //     This function returns a uint, the number of tickets that the msg.sender has purchased.\n    // */\n    function getOwnersNumberOfWines(uint wineProducerId, uint wineId)\n        public\n        view\n        checkIfWineProducerAndWineExists(wineProducerId, wineId)\n        returns(uint purchasedWines)\n    {\n        return wineProducers[wineProducerId].wines[wineId].owners[msg.sender];\n    }\n    // /*\n    //     Define a function called endSale()\n    //     This function takes one parameter, the event ID\n    //     Only the contract owner can call this function\n    //     TODO:\n    //         - close event sales\n    //         - transfer the balance from those event sales to the contract owner\n    //         - emit the appropriate event\n    // */\n    function endSale(uint wineProducerId, uint wineId)\n        public\n        onlyWineProducer(wineProducerId)\n        checkIfWineProducerAndWineExists(wineProducerId, wineId)\n    {\n        wineProducers[wineProducerId].wines[wineId].isOpen = false;\n        uint balance = address(wineProducers[wineProducerId].wineProducer).balance;\n        owner.transfer(balance);\n        emit LogEndSale(msg.sender, balance, wineProducerId, wineId);\n    }\n}\n",
  "sourcePath": "/git/vintage-explorer/contracts/VintageExplorer.sol",
  "compiler": {
    "name": "solc",
    "version": "0.5.8+commit.23d335f2.Emscripten.clang"
  },
  "schemaVersion": "3.0.11",
  "updatedAt": "2019-07-18T07:49:09.284Z",
  "devdoc": {
    "methods": {}
  },
  "userdoc": {
    "methods": {}
  }
}