{
  "contractName": "VintageExplorer",
  "abi": [
    {
      "constant": true,
      "inputs": [],
      "name": "numWineProducers",
      "outputs": [
        {
          "name": "",
          "type": "uint256"
        }
      ],
      "payable": false,
      "stateMutability": "view",
      "type": "function"
    },
    {
      "constant": true,
      "inputs": [],
      "name": "stopped",
      "outputs": [
        {
          "name": "",
          "type": "bool"
        }
      ],
      "payable": false,
      "stateMutability": "view",
      "type": "function"
    },
    {
      "constant": true,
      "inputs": [],
      "name": "owner",
      "outputs": [
        {
          "name": "",
          "type": "address"
        }
      ],
      "payable": false,
      "stateMutability": "view",
      "type": "function"
    },
    {
      "inputs": [],
      "payable": false,
      "stateMutability": "nonpayable",
      "type": "constructor"
    },
    {
      "anonymous": false,
      "inputs": [
        {
          "indexed": false,
          "name": "name",
          "type": "string"
        },
        {
          "indexed": false,
          "name": "wineProducer",
          "type": "address"
        },
        {
          "indexed": false,
          "name": "wineProducerId",
          "type": "uint256"
        }
      ],
      "name": "LogWineProducerAdded",
      "type": "event"
    },
    {
      "anonymous": false,
      "inputs": [
        {
          "indexed": false,
          "name": "name",
          "type": "string"
        },
        {
          "indexed": false,
          "name": "wineProducer",
          "type": "address"
        },
        {
          "indexed": false,
          "name": "sku",
          "type": "string"
        },
        {
          "indexed": false,
          "name": "wineId",
          "type": "uint256"
        }
      ],
      "name": "LogWineAdded",
      "type": "event"
    },
    {
      "anonymous": false,
      "inputs": [
        {
          "indexed": false,
          "name": "name",
          "type": "string"
        },
        {
          "indexed": false,
          "name": "wineProducer",
          "type": "address"
        },
        {
          "indexed": false,
          "name": "wineId",
          "type": "uint256"
        }
      ],
      "name": "LogWineReOpened",
      "type": "event"
    },
    {
      "anonymous": false,
      "inputs": [
        {
          "indexed": false,
          "name": "name",
          "type": "string"
        },
        {
          "indexed": false,
          "name": "wineProducer",
          "type": "address"
        },
        {
          "indexed": false,
          "name": "wineId",
          "type": "uint256"
        }
      ],
      "name": "LogWineClosed",
      "type": "event"
    },
    {
      "anonymous": false,
      "inputs": [
        {
          "indexed": false,
          "name": "buyer",
          "type": "address"
        },
        {
          "indexed": false,
          "name": "wineProducerId",
          "type": "uint256"
        },
        {
          "indexed": false,
          "name": "wineId",
          "type": "uint256"
        },
        {
          "indexed": false,
          "name": "numWInes",
          "type": "uint256"
        }
      ],
      "name": "LogBuyWine",
      "type": "event"
    },
    {
      "anonymous": false,
      "inputs": [
        {
          "indexed": false,
          "name": "buyer",
          "type": "address"
        },
        {
          "indexed": false,
          "name": "wineProducerId",
          "type": "uint256"
        },
        {
          "indexed": false,
          "name": "wineId",
          "type": "uint256"
        },
        {
          "indexed": false,
          "name": "amountToRefund",
          "type": "uint256"
        }
      ],
      "name": "LogGetRefund",
      "type": "event"
    },
    {
      "anonymous": false,
      "inputs": [
        {
          "indexed": false,
          "name": "wineProducer",
          "type": "address"
        },
        {
          "indexed": false,
          "name": "amount",
          "type": "uint256"
        }
      ],
      "name": "LogWithdrawal",
      "type": "event"
    },
    {
      "constant": false,
      "inputs": [
        {
          "name": "_a",
          "type": "address"
        }
      ],
      "name": "addAdmin",
      "outputs": [
        {
          "name": "",
          "type": "bool"
        }
      ],
      "payable": false,
      "stateMutability": "nonpayable",
      "type": "function"
    },
    {
      "constant": false,
      "inputs": [],
      "name": "stopForEmergency",
      "outputs": [
        {
          "name": "",
          "type": "bool"
        }
      ],
      "payable": false,
      "stateMutability": "nonpayable",
      "type": "function"
    },
    {
      "constant": false,
      "inputs": [],
      "name": "turnOffEmergency",
      "outputs": [
        {
          "name": "",
          "type": "bool"
        }
      ],
      "payable": false,
      "stateMutability": "nonpayable",
      "type": "function"
    },
    {
      "constant": false,
      "inputs": [],
      "name": "kill",
      "outputs": [],
      "payable": false,
      "stateMutability": "nonpayable",
      "type": "function"
    },
    {
      "constant": true,
      "inputs": [],
      "name": "checkIfAdmin",
      "outputs": [
        {
          "name": "",
          "type": "bool"
        }
      ],
      "payable": false,
      "stateMutability": "view",
      "type": "function"
    },
    {
      "constant": true,
      "inputs": [],
      "name": "checkIfWineProducer",
      "outputs": [
        {
          "name": "",
          "type": "bool"
        }
      ],
      "payable": false,
      "stateMutability": "view",
      "type": "function"
    },
    {
      "constant": false,
      "inputs": [
        {
          "name": "_name",
          "type": "string"
        },
        {
          "name": "_website",
          "type": "string"
        },
        {
          "name": "_wineProducer",
          "type": "address"
        }
      ],
      "name": "addWineProducer",
      "outputs": [
        {
          "name": "newWineProducerId",
          "type": "uint256"
        }
      ],
      "payable": false,
      "stateMutability": "nonpayable",
      "type": "function"
    },
    {
      "constant": false,
      "inputs": [
        {
          "name": "_wineProducerId",
          "type": "uint256"
        },
        {
          "name": "_name",
          "type": "string"
        },
        {
          "name": "_description",
          "type": "string"
        },
        {
          "name": "_sku",
          "type": "string"
        },
        {
          "name": "_vintage",
          "type": "uint256"
        },
        {
          "name": "_totalSupply",
          "type": "uint256"
        },
        {
          "name": "_priceWei",
          "type": "uint256"
        }
      ],
      "name": "addWine",
      "outputs": [
        {
          "name": "newWineId",
          "type": "uint256"
        }
      ],
      "payable": false,
      "stateMutability": "nonpayable",
      "type": "function"
    },
    {
      "constant": true,
      "inputs": [
        {
          "name": "_wineProducerId",
          "type": "uint256"
        }
      ],
      "name": "readWineProducerById",
      "outputs": [
        {
          "name": "name",
          "type": "string"
        },
        {
          "name": "website",
          "type": "string"
        },
        {
          "name": "numWines",
          "type": "uint256"
        },
        {
          "name": "balance",
          "type": "uint256"
        }
      ],
      "payable": false,
      "stateMutability": "view",
      "type": "function"
    },
    {
      "constant": true,
      "inputs": [
        {
          "name": "_wineProducer",
          "type": "address"
        }
      ],
      "name": "readWineProducerByAccount",
      "outputs": [
        {
          "name": "wineProducerId",
          "type": "uint256"
        },
        {
          "name": "name",
          "type": "string"
        },
        {
          "name": "website",
          "type": "string"
        },
        {
          "name": "numWines",
          "type": "uint256"
        },
        {
          "name": "balance",
          "type": "uint256"
        }
      ],
      "payable": false,
      "stateMutability": "view",
      "type": "function"
    },
    {
      "constant": true,
      "inputs": [
        {
          "name": "_wineProducerId",
          "type": "uint256"
        },
        {
          "name": "_wineId",
          "type": "uint256"
        }
      ],
      "name": "readWineDescription",
      "outputs": [
        {
          "name": "name",
          "type": "string"
        },
        {
          "name": "description",
          "type": "string"
        },
        {
          "name": "sku",
          "type": "string"
        },
        {
          "name": "vintage",
          "type": "uint256"
        }
      ],
      "payable": false,
      "stateMutability": "view",
      "type": "function"
    },
    {
      "constant": true,
      "inputs": [
        {
          "name": "_wineProducerId",
          "type": "uint256"
        },
        {
          "name": "_wineId",
          "type": "uint256"
        }
      ],
      "name": "readWineSalesRelated",
      "outputs": [
        {
          "name": "name",
          "type": "string"
        },
        {
          "name": "totalSupply",
          "type": "uint256"
        },
        {
          "name": "price",
          "type": "uint256"
        },
        {
          "name": "totalSales",
          "type": "uint256"
        }
      ],
      "payable": false,
      "stateMutability": "view",
      "type": "function"
    },
    {
      "constant": false,
      "inputs": [
        {
          "name": "_wineProducerId",
          "type": "uint256"
        },
        {
          "name": "_wineId",
          "type": "uint256"
        },
        {
          "name": "numberOfPurchasingWines",
          "type": "uint256"
        }
      ],
      "name": "buyWine",
      "outputs": [],
      "payable": true,
      "stateMutability": "payable",
      "type": "function"
    },
    {
      "constant": false,
      "inputs": [],
      "name": "withdraw",
      "outputs": [
        {
          "name": "success",
          "type": "bool"
        }
      ],
      "payable": false,
      "stateMutability": "nonpayable",
      "type": "function"
    },
    {
      "constant": true,
      "inputs": [
        {
          "name": "_wineProducerId",
          "type": "uint256"
        },
        {
          "name": "_wineId",
          "type": "uint256"
        }
      ],
      "name": "getOwnersNumberOfWines",
      "outputs": [
        {
          "name": "purchasedWines",
          "type": "uint256"
        }
      ],
      "payable": false,
      "stateMutability": "view",
      "type": "function"
    }
  ],
  "bytecode": "0x608060405260008060146101000a81548160ff0219169083151502179055506001805534801561002e57600080fd5b50336000806101000a81548173ffffffffffffffffffffffffffffffffffffffff021916908373ffffffffffffffffffffffffffffffffffffffff1602179055506001600360003373ffffffffffffffffffffffffffffffffffffffff1673ffffffffffffffffffffffffffffffffffffffff16815260200190815260200160002060006101000a81548160ff0219169083151502179055506135ac806100d66000396000f3fe6080604052600436106101095760003560e01c80638da5cb5b11610095578063bc7be85311610064578063bc7be85314610713578063e84a241d146108b0578063ed00e65314610983578063f0e268eb146109b2578063f3597bd014610ae057610109565b80638da5cb5b146106055780638f487cf21461065c57806391c085581461068b578063b441a216146106ba57610109565b806341c0e1b5116100dc57806341c0e1b5146103c95780636a30f75e146103e0578063704802751461052b57806370e82eb21461059457806375f12b21146105d657610109565b80630234b3c71461010e578063230a37041461013d57806337c7df5c146101685780633ccfd60b1461039a575b600080fd5b34801561011a57600080fd5b50610123610c73565b604051808215151515815260200191505060405180910390f35b34801561014957600080fd5b50610152610d67565b6040518082815260200191505060405180910390f35b34801561017457600080fd5b50610384600480360360e081101561018b57600080fd5b8101908080359060200190929190803590602001906401000000008111156101b257600080fd5b8201836020820111156101c457600080fd5b803590602001918460018302840111640100000000831117156101e657600080fd5b91908080601f016020809104026020016040519081016040528093929190818152602001838380828437600081840152601f19601f8201169050808301925050505050505091929192908035906020019064010000000081111561024957600080fd5b82018360208201111561025b57600080fd5b8035906020019184600183028401116401000000008311171561027d57600080fd5b91908080601f016020809104026020016040519081016040528093929190818152602001838380828437600081840152601f19601f820116905080830192505050505050509192919290803590602001906401000000008111156102e057600080fd5b8201836020820111156102f257600080fd5b8035906020019184600183028401116401000000008311171561031457600080fd5b91908080601f016020809104026020016040519081016040528093929190818152602001838380828437600081840152601f19601f820116905080830192505050505050509192919290803590602001909291908035906020019092919080359060200190929190505050610d6d565b6040518082815260200191505060405180910390f35b3480156103a657600080fd5b506103af6112e4565b604051808215151515815260200191505060405180910390f35b3480156103d557600080fd5b506103de611706565b005b3480156103ec57600080fd5b5061042f6004803603602081101561040357600080fd5b81019080803573ffffffffffffffffffffffffffffffffffffffff16906020019092919050505061181b565b604051808681526020018060200180602001858152602001848152602001838103835287818151815260200191508051906020019080838360005b8381101561048557808201518184015260208101905061046a565b50505050905090810190601f1680156104b25780820380516001836020036101000a031916815260200191505b50838103825286818151815260200191508051906020019080838360005b838110156104eb5780820151818401526020810190506104d0565b50505050905090810190601f1680156105185780820380516001836020036101000a031916815260200191505b5097505050505050505060405180910390f35b34801561053757600080fd5b5061057a6004803603602081101561054e57600080fd5b81019080803573ffffffffffffffffffffffffffffffffffffffff169060200190929190505050611b04565b604051808215151515815260200191505060405180910390f35b6105d4600480360360608110156105aa57600080fd5b81019080803590602001909291908035906020019092919080359060200190929190505050611c47565b005b3480156105e257600080fd5b506105eb612284565b604051808215151515815260200191505060405180910390f35b34801561061157600080fd5b5061061a612297565b604051808273ffffffffffffffffffffffffffffffffffffffff1673ffffffffffffffffffffffffffffffffffffffff16815260200191505060405180910390f35b34801561066857600080fd5b506106716122bc565b604051808215151515815260200191505060405180910390f35b34801561069757600080fd5b506106a06123af565b604051808215151515815260200191505060405180910390f35b3480156106c657600080fd5b506106fd600480360360408110156106dd57600080fd5b810190808035906020019092919080359060200190929190505050612403565b6040518082815260200191505060405180910390f35b34801561071f57600080fd5b506107566004803603604081101561073657600080fd5b8101908080359060200190929190803590602001909291905050506125c7565b60405180806020018060200180602001858152602001848103845288818151815260200191508051906020019080838360005b838110156107a4578082015181840152602081019050610789565b50505050905090810190601f1680156107d15780820380516001836020036101000a031916815260200191505b50848103835287818151815260200191508051906020019080838360005b8381101561080a5780820151818401526020810190506107ef565b50505050905090810190601f1680156108375780820380516001836020036101000a031916815260200191505b50848103825286818151815260200191508051906020019080838360005b83811015610870578082015181840152602081019050610855565b50505050905090810190601f16801561089d5780820380516001836020036101000a031916815260200191505b5097505050505050505060405180910390f35b3480156108bc57600080fd5b506108f3600480360360408110156108d357600080fd5b8101908080359060200190929190803590602001909291905050506129ae565b6040518080602001858152602001848152602001838152602001828103825286818151815260200191508051906020019080838360005b8381101561094557808201518184015260208101905061092a565b50505050905090810190601f1680156109725780820380516001836020036101000a031916815260200191505b509550505050505060405180910390f35b34801561098f57600080fd5b50610998612c5f565b604051808215151515815260200191505060405180910390f35b3480156109be57600080fd5b506109eb600480360360208110156109d557600080fd5b8101908080359060200190929190505050612cb3565b604051808060200180602001858152602001848152602001838103835287818151815260200191508051906020019080838360005b83811015610a3b578082015181840152602081019050610a20565b50505050905090810190601f168015610a685780820380516001836020036101000a031916815260200191505b50838103825286818151815260200191508051906020019080838360005b83811015610aa1578082015181840152602081019050610a86565b50505050905090810190601f168015610ace5780820380516001836020036101000a031916815260200191505b50965050505050505060405180910390f35b348015610aec57600080fd5b50610c5d60048036036060811015610b0357600080fd5b8101908080359060200190640100000000811115610b2057600080fd5b820183602082011115610b3257600080fd5b80359060200191846001830284011164010000000083111715610b5457600080fd5b91908080601f016020809104026020016040519081016040528093929190818152602001838380828437600081840152601f19601f82011690508083019250505050505050919291929080359060200190640100000000811115610bb757600080fd5b820183602082011115610bc957600080fd5b80359060200191846001830284011164010000000083111715610beb57600080fd5b91908080601f016020809104026020016040519081016040528093929190818152602001838380828437600081840152601f19601f820116905080830192505050505050509192919290803573ffffffffffffffffffffffffffffffffffffffff169060200190929190505050612e5a565b6040518082815260200191505060405180910390f35b60008060009054906101000a900473ffffffffffffffffffffffffffffffffffffffff1673ffffffffffffffffffffffffffffffffffffffff163373ffffffffffffffffffffffffffffffffffffffff1614610d37576040517f08c379a00000000000000000000000000000000000000000000000000000000081526004018080602001828103825260178152602001807f6d73672e73656e646572206973206e6f74206f776e657200000000000000000081525060200191505060405180910390fd5b6001600060146101000a81548160ff021916908315150217905550600060149054906101000a900460ff16905090565b60025481565b60008060149054906101000a900460ff1615610d8857600080fd5b60011515600560003373ffffffffffffffffffffffffffffffffffffffff1673ffffffffffffffffffffffffffffffffffffffff16815260200190815260200160002060009054906101000a900460ff16151514610e4e576040517f08c379a000000000000000000000000000000000000000000000000000000000815260040180806020018281038252601c8152602001807f77696e652070726f647563657220646f6573206e6f742065786973740000000081525060200191505060405180910390fd5b6000600660003373ffffffffffffffffffffffffffffffffffffffff1673ffffffffffffffffffffffffffffffffffffffff1681526020019081526020016000205490506004600082815260200190815260200160002060060160009054906101000a900460ff16610f28576040517f08c379a000000000000000000000000000000000000000000000000000000000815260040180806020018281038252601c8152602001807f77696e652070726f647563657220646f6573206e6f742065786973740000000081525060200191505060405180910390fd5b3373ffffffffffffffffffffffffffffffffffffffff166004600083815260200190815260200160002060020160009054906101000a900473ffffffffffffffffffffffffffffffffffffffff1673ffffffffffffffffffffffffffffffffffffffff1614610fe2576040517f08c379a00000000000000000000000000000000000000000000000000000000081526004018080602001828103825260248152602001806134f36024913960400191505060405180910390fd5b6000600460008b81526020019081526020016000206003015490506000811015611057576040517f08c379a000000000000000000000000000000000000000000000000000000000815260040180806020018281038252602781526020018061355a6027913960400191505060405180910390fd5b6040518061010001604052808a81526020018981526020018881526020018781526020018681526020018581526020016000815260200160011515815250600460008c8152602001908152602001600020600401600083815260200190815260200160002060008201518160000190805190602001906110d892919061344d565b5060208201518160010190805190602001906110f592919061344d565b50604082015181600201908051906020019061111292919061344d565b50606082015181600301556080820151816004015560a0820151816006015560c0820151816007015560e08201518160080160006101000a81548160ff0219169083151502179055509050507f070aa1bb7e0e9a57005aa19310dc9c99e1fd3c956b5fdb1ceb59038ea442faf98933898460405180806020018573ffffffffffffffffffffffffffffffffffffffff1673ffffffffffffffffffffffffffffffffffffffff16815260200180602001848152602001838103835287818151815260200191508051906020019080838360005b838110156111ff5780820151818401526020810190506111e4565b50505050905090810190601f16801561122c5780820380516001836020036101000a031916815260200191505b50838103825285818151815260200191508051906020019080838360005b8381101561126557808201518184015260208101905061124a565b50505050905090810190601f1680156112925780820380516001836020036101000a031916815260200191505b50965050505050505060405180910390a16112b76001826132b690919063ffffffff16565b905080600460008c8152602001908152602001600020600301819055508092505050979650505050505050565b60008060149054906101000a900460ff16156112ff57600080fd5b60011515600560003373ffffffffffffffffffffffffffffffffffffffff1673ffffffffffffffffffffffffffffffffffffffff16815260200190815260200160002060009054906101000a900460ff161515146113c5576040517f08c379a000000000000000000000000000000000000000000000000000000000815260040180806020018281038252601c8152602001807f77696e652070726f647563657220646f6573206e6f742065786973740000000081525060200191505060405180910390fd5b6000600660003373ffffffffffffffffffffffffffffffffffffffff1673ffffffffffffffffffffffffffffffffffffffff1681526020019081526020016000205490506004600082815260200190815260200160002060060160009054906101000a900460ff1661149f576040517f08c379a000000000000000000000000000000000000000000000000000000000815260040180806020018281038252601c8152602001807f77696e652070726f647563657220646f6573206e6f742065786973740000000081525060200191505060405180910390fd5b3373ffffffffffffffffffffffffffffffffffffffff166004600083815260200190815260200160002060020160009054906101000a900473ffffffffffffffffffffffffffffffffffffffff1673ffffffffffffffffffffffffffffffffffffffff1614611559576040517f08c379a00000000000000000000000000000000000000000000000000000000081526004018080602001828103825260248152602001806134f36024913960400191505060405180910390fd5b6000600660003373ffffffffffffffffffffffffffffffffffffffff1673ffffffffffffffffffffffffffffffffffffffff1681526020019081526020016000205490506000600460008381526020019081526020016000206005015490506000811161162e576040517f08c379a000000000000000000000000000000000000000000000000000000000815260040180806020018281038252601b8152602001807f5468657265206973206e6f7420656e6f7567682062616c616e6365000000000081525060200191505060405180910390fd5b600060046000848152602001908152602001600020600501819055507fb4214c8c54fc7442f36d3682f59aebaf09358a4431835b30efb29d52cf9e1e913382604051808373ffffffffffffffffffffffffffffffffffffffff1673ffffffffffffffffffffffffffffffffffffffff1681526020018281526020019250505060405180910390a13373ffffffffffffffffffffffffffffffffffffffff166108fc829081150290604051600060405180830381858888f193505050501580156116fb573d6000803e3d6000fd5b506001935050505090565b6000809054906101000a900473ffffffffffffffffffffffffffffffffffffffff1673ffffffffffffffffffffffffffffffffffffffff163373ffffffffffffffffffffffffffffffffffffffff16146117c8576040517f08c379a00000000000000000000000000000000000000000000000000000000081526004018080602001828103825260178152602001807f6d73672e73656e646572206973206e6f74206f776e657200000000000000000081525060200191505060405180910390fd5b600060149054906101000a900460ff166117e157600080fd5b6000809054906101000a900473ffffffffffffffffffffffffffffffffffffffff1673ffffffffffffffffffffffffffffffffffffffff16ff5b6000606080600080600660008773ffffffffffffffffffffffffffffffffffffffff1673ffffffffffffffffffffffffffffffffffffffff1681526020019081526020016000205460046000600660008a73ffffffffffffffffffffffffffffffffffffffff1673ffffffffffffffffffffffffffffffffffffffff16815260200190815260200160002054815260200190815260200160002060000160046000600660008b73ffffffffffffffffffffffffffffffffffffffff1673ffffffffffffffffffffffffffffffffffffffff16815260200190815260200160002054815260200190815260200160002060010160046000600660008c73ffffffffffffffffffffffffffffffffffffffff1673ffffffffffffffffffffffffffffffffffffffff1681526020019081526020016000205481526020019081526020016000206003015460046000600660008d73ffffffffffffffffffffffffffffffffffffffff1673ffffffffffffffffffffffffffffffffffffffff16815260200190815260200160002054815260200190815260200160002060050154838054600181600116156101000203166002900480601f016020809104026020016040519081016040528092919081815260200182805460018160011615610100020316600290048015611a4e5780601f10611a2357610100808354040283529160200191611a4e565b820191906000526020600020905b815481529060010190602001808311611a3157829003601f168201915b50505050509350828054600181600116156101000203166002900480601f016020809104026020016040519081016040528092919081815260200182805460018160011615610100020316600290048015611aea5780601f10611abf57610100808354040283529160200191611aea565b820191906000526020600020905b815481529060010190602001808311611acd57829003601f168201915b505050505092509450945094509450945091939590929450565b600060011515600360003373ffffffffffffffffffffffffffffffffffffffff1673ffffffffffffffffffffffffffffffffffffffff16815260200190815260200160002060009054906101000a900460ff16151514611bcc576040517f08c379a00000000000000000000000000000000000000000000000000000000081526004018080602001828103825260178152602001807f6d73672e73656e646572206973206e6f742061646d696e00000000000000000081525060200191505060405180910390fd5b600060149054906101000a900460ff1615611be657600080fd5b6001600360008473ffffffffffffffffffffffffffffffffffffffff1673ffffffffffffffffffffffffffffffffffffffff16815260200190815260200160002060006101000a81548160ff02191690831515021790555060019050919050565b600060149054906101000a900460ff1615611c6157600080fd5b8282600115156004600084815260200190815260200160002060060160009054906101000a900460ff16151514611d00576040517f08c379a000000000000000000000000000000000000000000000000000000000815260040180806020018281038252601c8152602001807f77696e652070726f647563657220646f6573206e6f742065786973740000000081525060200191505060405180910390fd5b6001151560046000848152602001908152602001600020600401600083815260200190815260200160002060080160009054906101000a900460ff16151514611db1576040517f08c379a00000000000000000000000000000000000000000000000000000000081526004018080602001828103825260138152602001807f77696e6520646f6573206e6f742065786973740000000000000000000000000081525060200191505060405180910390fd5b6000600154600460008881526020019081526020016000206004016000878152602001908152602001600020600601540290506000611df9858361333e90919063ffffffff16565b905080341015611e54576040517f08c379a00000000000000000000000000000000000000000000000000000000081526004018080602001828103825260228152602001806135386022913960400191505060405180910390fd5b84600460008981526020019081526020016000206004016000888152602001908152602001600020600401541015611ef4576040517f08c379a00000000000000000000000000000000000000000000000000000000081526004018080602001828103825260158152602001807f4e6f7420656e6f7567682077696e6573206c656674000000000000000000000081525060200191505060405180910390fd5b600060046000898152602001908152602001600020600401600088815260200190815260200160002060050160003373ffffffffffffffffffffffffffffffffffffffff1673ffffffffffffffffffffffffffffffffffffffff168152602001908152602001600020549050611f7386826132b690919063ffffffff16565b600460008a8152602001908152602001600020600401600089815260200190815260200160002060050160003373ffffffffffffffffffffffffffffffffffffffff1673ffffffffffffffffffffffffffffffffffffffff168152602001908152602001600020819055506000600460008a8152602001908152602001600020600401600089815260200190815260200160002060070154905061202087826132b690919063ffffffff16565b600460008b815260200190815260200160002060040160008a8152602001908152602001600020600701819055506000600460008b815260200190815260200160002060040160008a815260200190815260200160002060040154905061209088826133c490919063ffffffff16565b600460008c815260200190815260200160002060040160008b8152602001908152602001600020600401819055506000600460008c81526020019081526020016000206005015490506120ec85826132b690919063ffffffff16565b600460008d8152602001908152602001600020600501819055507f5c5c2946757aaf59d0000ba51c306e71293522310ec8a9f9ae431ecaebf57cca338c8c8c604051808573ffffffffffffffffffffffffffffffffffffffff1673ffffffffffffffffffffffffffffffffffffffff16815260200184815260200183815260200182815260200194505050505060405180910390a160006121a86121998b8961333e90919063ffffffff16565b346133c490919063ffffffff16565b90506000811115612276577f3790b07ee11214e4d6cc672680fe583532064e0ee21446cbf0af0c3fe640eee1338d8d84604051808573ffffffffffffffffffffffffffffffffffffffff1673ffffffffffffffffffffffffffffffffffffffff16815260200184815260200183815260200182815260200194505050505060405180910390a13373ffffffffffffffffffffffffffffffffffffffff166108fc829081150290604051600060405180830381858888f19350505050158015612274573d6000803e3d6000fd5b505b505050505050505050505050565b600060149054906101000a900460ff1681565b6000809054906101000a900473ffffffffffffffffffffffffffffffffffffffff1681565b60008060009054906101000a900473ffffffffffffffffffffffffffffffffffffffff1673ffffffffffffffffffffffffffffffffffffffff163373ffffffffffffffffffffffffffffffffffffffff1614612380576040517f08c379a00000000000000000000000000000000000000000000000000000000081526004018080602001828103825260178152602001807f6d73672e73656e646572206973206e6f74206f776e657200000000000000000081525060200191505060405180910390fd5b60008060146101000a81548160ff021916908315150217905550600060149054906101000a900460ff16905090565b6000600560003373ffffffffffffffffffffffffffffffffffffffff1673ffffffffffffffffffffffffffffffffffffffff16815260200190815260200160002060009054906101000a900460ff16905090565b60008282600115156004600084815260200190815260200160002060060160009054906101000a900460ff161515146124a4576040517f08c379a000000000000000000000000000000000000000000000000000000000815260040180806020018281038252601c8152602001807f77696e652070726f647563657220646f6573206e6f742065786973740000000081525060200191505060405180910390fd5b6001151560046000848152602001908152602001600020600401600083815260200190815260200160002060080160009054906101000a900460ff16151514612555576040517f08c379a00000000000000000000000000000000000000000000000000000000081526004018080602001828103825260138152602001807f77696e6520646f6573206e6f742065786973740000000000000000000000000081525060200191505060405180910390fd5b60046000868152602001908152602001600020600401600085815260200190815260200160002060050160003373ffffffffffffffffffffffffffffffffffffffff1673ffffffffffffffffffffffffffffffffffffffff168152602001908152602001600020549250505092915050565b606080606060008585600115156004600084815260200190815260200160002060060160009054906101000a900460ff1615151461266d576040517f08c379a000000000000000000000000000000000000000000000000000000000815260040180806020018281038252601c8152602001807f77696e652070726f647563657220646f6573206e6f742065786973740000000081525060200191505060405180910390fd5b6001151560046000848152602001908152602001600020600401600083815260200190815260200160002060080160009054906101000a900460ff1615151461271e576040517f08c379a00000000000000000000000000000000000000000000000000000000081526004018080602001828103825260138152602001807f77696e6520646f6573206e6f742065786973740000000000000000000000000081525060200191505060405180910390fd5b600460008981526020019081526020016000206004016000888152602001908152602001600020600001600460008a81526020019081526020016000206004016000898152602001908152602001600020600101600460008b815260200190815260200160002060040160008a8152602001908152602001600020600201600460008c815260200190815260200160002060040160008b815260200190815260200160002060030154838054600181600116156101000203166002900480601f01602080910402602001604051908101604052809291908181526020018280546001816001161561010002031660029004801561285c5780601f106128315761010080835404028352916020019161285c565b820191906000526020600020905b81548152906001019060200180831161283f57829003601f168201915b50505050509350828054600181600116156101000203166002900480601f0160208091040260200160405190810160405280929190818152602001828054600181600116156101000203166002900480156128f85780601f106128cd576101008083540402835291602001916128f8565b820191906000526020600020905b8154815290600101906020018083116128db57829003601f168201915b50505050509250818054600181600116156101000203166002900480601f0160208091040260200160405190810160405280929190818152602001828054600181600116156101000203166002900480156129945780601f1061296957610100808354040283529160200191612994565b820191906000526020600020905b81548152906001019060200180831161297757829003601f168201915b505050505091509550955095509550505092959194509250565b606060008060008585600115156004600084815260200190815260200160002060060160009054906101000a900460ff16151514612a54576040517f08c379a000000000000000000000000000000000000000000000000000000000815260040180806020018281038252601c8152602001807f77696e652070726f647563657220646f6573206e6f742065786973740000000081525060200191505060405180910390fd5b6001151560046000848152602001908152602001600020600401600083815260200190815260200160002060080160009054906101000a900460ff16151514612b05576040517f08c379a00000000000000000000000000000000000000000000000000000000081526004018080602001828103825260138152602001807f77696e6520646f6573206e6f742065786973740000000000000000000000000081525060200191505060405180910390fd5b600460008981526020019081526020016000206004016000888152602001908152602001600020600001600460008a8152602001908152602001600020600401600089815260200190815260200160002060040154600460008b815260200190815260200160002060040160008a815260200190815260200160002060060154600460008c815260200190815260200160002060040160008b815260200190815260200160002060070154838054600181600116156101000203166002900480601f016020809104026020016040519081016040528092919081815260200182805460018160011615610100020316600290048015612c455780601f10612c1a57610100808354040283529160200191612c45565b820191906000526020600020905b815481529060010190602001808311612c2857829003601f168201915b505050505093509550955095509550505092959194509250565b6000600360003373ffffffffffffffffffffffffffffffffffffffff1673ffffffffffffffffffffffffffffffffffffffff16815260200190815260200160002060009054906101000a900460ff16905090565b606080600080600460008681526020019081526020016000206000016004600087815260200190815260200160002060010160046000888152602001908152602001600020600301546004600089815260200190815260200160002060050154838054600181600116156101000203166002900480601f016020809104026020016040519081016040528092919081815260200182805460018160011615610100020316600290048015612da85780601f10612d7d57610100808354040283529160200191612da8565b820191906000526020600020905b815481529060010190602001808311612d8b57829003601f168201915b50505050509350828054600181600116156101000203166002900480601f016020809104026020016040519081016040528092919081815260200182805460018160011615610100020316600290048015612e445780601f10612e1957610100808354040283529160200191612e44565b820191906000526020600020905b815481529060010190602001808311612e2757829003601f168201915b5050505050925093509350935093509193509193565b60008060149054906101000a900460ff1615612e7557600080fd5b60011515600360003373ffffffffffffffffffffffffffffffffffffffff1673ffffffffffffffffffffffffffffffffffffffff16815260200190815260200160002060009054906101000a900460ff16151514612f3b576040517f08c379a00000000000000000000000000000000000000000000000000000000081526004018080602001828103825260178152602001807f6d73672e73656e646572206973206e6f742061646d696e00000000000000000081525060200191505060405180910390fd5b8160001515600560008373ffffffffffffffffffffffffffffffffffffffff1673ffffffffffffffffffffffffffffffffffffffff16815260200190815260200160002060009054906101000a900460ff16151514613002576040517f08c379a000000000000000000000000000000000000000000000000000000000815260040180806020018281038252601c8152602001807f77696e652070726f647563657220616c7265616479206578697374730000000081525060200191505060405180910390fd5b600060025490506040518060c001604052808781526020018681526020018573ffffffffffffffffffffffffffffffffffffffff16815260200160008152602001600081526020016001151581525060046000838152602001908152602001600020600082015181600001908051906020019061308092919061344d565b50602082015181600101908051906020019061309d92919061344d565b5060408201518160020160006101000a81548173ffffffffffffffffffffffffffffffffffffffff021916908373ffffffffffffffffffffffffffffffffffffffff160217905550606082015181600301556080820151816005015560a08201518160060160006101000a81548160ff0219169083151502179055509050506001600560008673ffffffffffffffffffffffffffffffffffffffff1673ffffffffffffffffffffffffffffffffffffffff16815260200190815260200160002060006101000a81548160ff02191690831515021790555080600660008673ffffffffffffffffffffffffffffffffffffffff1673ffffffffffffffffffffffffffffffffffffffff168152602001908152602001600020819055507f723993f718abf27619ef9f2f67f244d1cb5df0839150c449e0f95bce94b64c5d86858360405180806020018473ffffffffffffffffffffffffffffffffffffffff1673ffffffffffffffffffffffffffffffffffffffff168152602001838152602001828103825285818151815260200191508051906020019080838360005b83811015613254578082015181840152602081019050613239565b50505050905090810190601f1680156132815780820380516001836020036101000a031916815260200191505b5094505050505060405180910390a16132a46001826132b690919063ffffffff16565b60028190555080925050509392505050565b600080828401905083811015613334576040517f08c379a000000000000000000000000000000000000000000000000000000000815260040180806020018281038252601b8152602001807f536166654d6174683a206164646974696f6e206f766572666c6f77000000000081525060200191505060405180910390fd5b8091505092915050565b60008083141561335157600090506133be565b600082840290508284828161336257fe5b04146133b9576040517f08c379a00000000000000000000000000000000000000000000000000000000081526004018080602001828103825260218152602001806135176021913960400191505060405180910390fd5b809150505b92915050565b60008282111561343c576040517f08c379a000000000000000000000000000000000000000000000000000000000815260040180806020018281038252601e8152602001807f536166654d6174683a207375627472616374696f6e206f766572666c6f77000081525060200191505060405180910390fd5b600082840390508091505092915050565b828054600181600116156101000203166002900490600052602060002090601f016020900481019282601f1061348e57805160ff19168380011785556134bc565b828001600101855582156134bc579182015b828111156134bb5782518255916020019190600101906134a0565b5b5090506134c991906134cd565b5090565b6134ef91905b808211156134eb5760008160009055506001016134d3565b5090565b9056fe77696e652070726f6475636572206164647265737320646f6573206e6f74206d61746368536166654d6174683a206d756c7469706c69636174696f6e206f766572666c6f776e6f7420656e6f7567682076616c75652073656e7420746f206275792077696e65736e65774964206973206e6f742067726561746572207468616e206f7220657175616c20746f2030a165627a7a72305820ae8475a0fb8024602b3bd822b566dd2880d7a65793e59b9676e6e9d8434151510029",
  "source": "pragma solidity ^0.5.0;\nimport \"./SafeMath.sol\";\n\n/** @title Vintage Explorer\n    @author Keita Fukue\n    @notice Vintage Explorer contract keeps track of wine producers and wines on the blockchain. Buyers can manage their inventory and buy/refund wines.\n    @dev Using simple math to perform arthimetic operation.\n*/\n\ncontract VintageExplorer{\n    using SafeMath for uint256;\n    address payable public owner;\n    bool public stopped = false;\n\n    uint ONE_WEI = 1 wei;\n\n    uint public numWineProducers;\n\n    struct WineProducer {\n        string name;\n        string website;\n        address wineProducer;\n        uint numWines;\n        mapping (uint => Wine) wines;\n        uint balance;\n        bool exists;\n    }\n\n    struct Wine {\n        string name;\n        string description;\n        string sku;\n        uint vintage;\n        uint totalSupply;\n        mapping (address => uint) owners;\n        uint priceWei;\n        uint totalSales;\n        bool exists;\n    }\n\n    mapping (address => bool) admins;\n    mapping (uint => WineProducer) wineProducers;\n    mapping (address => bool) wineProducersExists;\n    mapping (address => uint) wineProducerIdLookup;\n\n    event LogWineProducerAdded(string name, address wineProducer, uint wineProducerId);\n    event LogWineAdded(string name, address wineProducer, string sku, uint wineId);\n    event LogWineReOpened(string name, address wineProducer, uint wineId);\n    event LogWineClosed(string name, address wineProducer, uint wineId);\n    event LogBuyWine(address buyer,uint wineProducerId, uint wineId, uint numWInes);\n    event LogGetRefund(address buyer,uint wineProducerId, uint wineId, uint amountToRefund);\n    event LogWithdrawal(address wineProducer, uint amount);\n\n    modifier onlyOwner { require(msg.sender == owner, 'msg.sender is not owner'); _; }\n    modifier onlyAdmin { require(admins[msg.sender] == true, 'msg.sender is not admin'); _; }\n    modifier stopInEmergency { require(!stopped); _;}\n    modifier onlyInEmergency { require(stopped); _;}\n    modifier onlyWineProducer () {\n        require (wineProducersExists[msg.sender] == true, 'wine producer does not exist');\n        uint wineProducerId = wineProducerIdLookup[msg.sender];\n        require (wineProducers[wineProducerId].exists, 'wine producer does not exist');\n        require (wineProducers[wineProducerId].wineProducer == msg.sender, 'wine producer address does not match');\n        _;\n    }\n    modifier checkIfWineProducerAndWineExists(uint _wineProducerId, uint _wineId) {\n        require(wineProducers[_wineProducerId].exists == true, 'wine producer does not exist');\n        require(wineProducers[_wineProducerId].wines[_wineId].exists == true, 'wine does not exist');\n        _;\n    }\n    modifier checkIfWineProducerIsNew(address wineProducer) {\n        require(wineProducersExists[wineProducer] == false, 'wine producer already exists');\n        _;\n    }\n    /**\n        @author Keita Fukue\n        @notice Called when the contract is created. Sets the contract creator address to owner and admin.\n        @dev This is the only way to set the owner.\n    */\n    constructor() public {\n        owner = msg.sender;\n        admins[msg.sender] = true;\n    }\n\n    /**\n        @author Keita Fukue\n        @notice Adds address to the list of admins where admins can add wine producers.\n        @dev This can only be called by Admins and when circuit breaker is not turned on.\n        @param _a - address that will be added as the list of admins\n    */\n    function addAdmin(address _a)\n        public\n        onlyAdmin()\n        stopInEmergency()\n        returns(bool)\n    {\n        admins[_a] = true;\n        return true;\n    }\n\n\n    /**\n        @author Keita Fukue\n        @notice Circuit breaker where only specific functions are allowed to be called when turned on.\n        @dev This can only be called by the owner of the contract.\n        @return bool - status of stopped\n    */\n    function stopForEmergency()\n        public\n        onlyOwner()\n        returns(bool)\n    {\n        stopped = true;\n        return stopped;\n    }\n\n    /**\n        @author Keita Fukue\n        @notice Turns off circuit breaker.\n        @dev This can only be called by the owner of the contract.\n        @return bool - status of stopped\n    */\n    function turnOffEmergency()\n        public\n        onlyOwner()\n        returns(bool)\n    {\n        stopped = false;\n        return stopped;\n    }\n\n    /**\n        @author Keita Fukue\n        @notice Self destructs the contract to remove the contract from blockchain.\n        @dev This can only be called by the owner and the circuit breaker needs to be on.\n    */\n    function kill()\n        public\n        onlyOwner()\n        onlyInEmergency()\n    {\n        selfdestruct(owner);\n    }\n\n    /**\n        @author Keita Fukue\n        @notice Checks if the caller is part of the admin list.\n        @return boolean true if admin\n    */\n    function checkIfAdmin()\n        public\n        view\n        returns(bool)\n    {\n        return admins[msg.sender];\n    }\n\n    /**\n        @author Keita Fukue\n        @notice Checks if the caller is part of the wine producers list.\n        @return boolean true if wine producer\n    */\n    function checkIfWineProducer()\n        public\n        view\n        returns(bool)\n    {\n        return wineProducersExists[msg.sender];\n    }\n\n    /**\n        @author Keita Fukue\n        @notice Add a new wine producer to this contract\n        @dev You can not add more than one wine producer from the same address.\n        @param _name - name of the wine producer\n        @param _website - website of the wine producer\n        @param _wineProducer - address of the wine producer\n        @return returns the newly generated wine producer Id\n    */\n    function addWineProducer(string memory _name, string memory _website, address _wineProducer)\n        public\n        stopInEmergency()\n        onlyAdmin()\n        checkIfWineProducerIsNew(_wineProducer)\n        returns(uint newWineProducerId)\n    {\n        uint newId = numWineProducers;\n        wineProducers[newId] = WineProducer({\n            name : _name,\n            website : _website,\n            wineProducer : _wineProducer,\n            numWines : 0,\n            balance : 0,\n            exists : true\n        });\n        wineProducersExists[_wineProducer] = true;\n        wineProducerIdLookup[_wineProducer] = newId;\n        emit LogWineProducerAdded(_name, _wineProducer, newId);\n        numWineProducers = newId.add(1);\n        return newId;\n    }\n\n     /**\n        @author Keita Fukue\n        @notice Add a new wine to a specific winer producer\n        @dev Only wine producers can add wines\n        @param _wineProducerId - wine producer id\n        @param _name - name of the wine\n        @param _description - description of the win\n        @param _sku - stock keeping unit\n        @param _vintage - vintage year of the wine\n        @param _totalSupply - total number of wines available\n        @param _priceWei - price of each wine in wei\n        @return returns the newly generated wine\n    */\n\n    function addWine(uint _wineProducerId, string memory _name,\n        string memory _description, string memory _sku, uint _vintage,\n        uint _totalSupply, uint _priceWei)\n        public\n        stopInEmergency()\n        onlyWineProducer()\n        returns(uint newWineId)\n    {\n        uint newId = wineProducers[_wineProducerId].numWines;\n        require(newId >= 0, \"newId is not greater than or equal to 0\");\n        wineProducers[_wineProducerId].wines[newId] = Wine({\n            name : _name,\n            description : _description,\n            sku : _sku,\n            vintage : _vintage,\n            totalSupply : _totalSupply,\n            priceWei : _priceWei,\n            totalSales : 0,\n            exists : true\n        });\n        emit LogWineAdded(_name, msg.sender, _sku, newId);\n        newId = newId.add(1);\n        wineProducers[_wineProducerId].numWines = newId;\n        return newId;\n    }\n\n    /**\n        @author Keita Fukue\n        @notice Get wine producer information by wine producer id\n        @param _wineProducerId - wine producer id\n        @return wine producer's name, website, number of unique wines.\n    */\n    function readWineProducerById(uint _wineProducerId)\n        public\n        view\n        returns(string memory name, string memory website,\n        uint numWines, uint balance)\n    {\n        return (\n            wineProducers[_wineProducerId].name,\n            wineProducers[_wineProducerId].website,\n            wineProducers[_wineProducerId].numWines,\n            wineProducers[_wineProducerId].balance\n        );\n    }\n\n    /**\n        @author Keita Fukue\n        @notice Get wine producer information by wine producer's address\n        @param _wineProducer - wine producer's address\n        @return wine producer's name, website, number of unique wines.\n    */\n    function readWineProducerByAccount(address _wineProducer)\n        public\n        view\n        returns(uint wineProducerId, string memory name, string memory website,\n        uint numWines, uint balance)\n    {\n        return (\n            wineProducerIdLookup[_wineProducer],\n            wineProducers[wineProducerIdLookup[_wineProducer]].name,\n            wineProducers[wineProducerIdLookup[_wineProducer]].website,\n            wineProducers[wineProducerIdLookup[_wineProducer]].numWines,\n            wineProducers[wineProducerIdLookup[_wineProducer]].balance\n        );\n    }\n\n    /**\n        @author Keita Fukue\n        @notice Get wine information by wine producer's id and wine id\n        @param _wineProducerId - wine producer id\n        @param _wineId - wine id\n        @return wine name, wine description, wine sku, wine vintage\n    */\n    function readWineDescription(uint _wineProducerId, uint _wineId)\n        public\n        view\n        checkIfWineProducerAndWineExists(_wineProducerId, _wineId)\n        returns(string memory name, string memory description,\n        string memory sku, uint vintage\n        )\n    {\n        return (\n            wineProducers[_wineProducerId].wines[_wineId].name,\n            wineProducers[_wineProducerId].wines[_wineId].description,\n            wineProducers[_wineProducerId].wines[_wineId].sku,\n            wineProducers[_wineProducerId].wines[_wineId].vintage\n        );\n    }\n\n    /**\n        @author Keita Fukue\n        @notice Get wine's sales related information by wine producer's id and wine id\n        @param _wineProducerId - wine producer id\n        @param _wineId - wine id\n        @return wine name, wine's total supply, individual wine's price in wei, wine's total sales\n    */\n    function readWineSalesRelated(uint _wineProducerId, uint _wineId)\n        public\n        view\n        checkIfWineProducerAndWineExists(_wineProducerId, _wineId)\n        returns(string memory name, uint totalSupply,\n        uint price, uint totalSales)\n    {\n        return (\n            wineProducers[_wineProducerId].wines[_wineId].name,\n            wineProducers[_wineProducerId].wines[_wineId].totalSupply,\n            wineProducers[_wineProducerId].wines[_wineId].priceWei,\n            wineProducers[_wineProducerId].wines[_wineId].totalSales\n        );\n    }\n\n    /**\n        @author Keita Fukue\n        @notice Buy a certain number of wines from the wine producer.\n        @dev Adds balance to the wine producer's address\n        @param _wineProducerId - wine producer id\n        @param _wineId - wine id\n        @return wine name, wine's total supply, individual wine's price in wei, wine's total sales\n    */\n    function buyWine(uint _wineProducerId, uint _wineId, uint numberOfPurchasingWines)\n        public\n        payable\n        stopInEmergency()\n        checkIfWineProducerAndWineExists(_wineProducerId, _wineId)\n    {\n        uint winePrice = (wineProducers[_wineProducerId].wines[_wineId].priceWei) * ONE_WEI;\n        uint purchaseAmount = winePrice.mul(numberOfPurchasingWines);\n        require(msg.value >= purchaseAmount,\n            'not enough value sent to buy wines');\n        require(wineProducers[_wineProducerId].wines[_wineId].totalSupply\n            >= numberOfPurchasingWines, 'Not enough wines left');\n        uint ownersWineAmount = wineProducers[_wineProducerId].wines[_wineId].owners[msg.sender];\n        wineProducers[_wineProducerId].wines[_wineId].owners[msg.sender] = ownersWineAmount.add(numberOfPurchasingWines);\n        uint totalSales = wineProducers[_wineProducerId].wines[_wineId].totalSales;\n        wineProducers[_wineProducerId].wines[_wineId].totalSales = totalSales.add(numberOfPurchasingWines);\n        uint totalSupply = wineProducers[_wineProducerId].wines[_wineId].totalSupply;\n        wineProducers[_wineProducerId].wines[_wineId].totalSupply = totalSupply.sub(numberOfPurchasingWines);\n        uint balance = wineProducers[_wineProducerId].balance;\n        wineProducers[_wineProducerId].balance = balance.add(purchaseAmount);\n        emit LogBuyWine(msg.sender, _wineProducerId, _wineId, numberOfPurchasingWines);\n        uint changeAmount = msg.value.sub(winePrice.mul(numberOfPurchasingWines));\n        if(changeAmount > 0){\n            emit LogGetRefund(msg.sender, _wineProducerId, _wineId, changeAmount);\n            msg.sender.transfer(changeAmount);\n        }\n    }\n\n    /**\n        @author Keita Fukue\n        @notice Withdraws the balance from the wine producer.\n        @dev Checks if the balance is greater than 0;\n        @return true if withdraw was successful\n    */\n    function withdraw()\n        public\n        stopInEmergency()\n        onlyWineProducer()\n        returns(bool success)\n    {\n        uint wineProducerId = wineProducerIdLookup[msg.sender];\n        uint balance = wineProducers[wineProducerId].balance;\n        require(balance > 0, 'There is not enough balance');\n        wineProducers[wineProducerId].balance = 0;\n        emit LogWithdrawal(msg.sender, balance);\n        msg.sender.transfer(balance);\n        return true;\n    }\n\n    /**\n        @author Keita Fukue\n        @notice Get number of wines purchased by the caller's address\n        @param _wineProducerId - wine producer id\n        @param _wineId - wine id\n        @return number of wines owned by the contract caller.\n    */\n    function getOwnersNumberOfWines(uint _wineProducerId, uint _wineId)\n        public\n        view\n        checkIfWineProducerAndWineExists(_wineProducerId, _wineId)\n        returns(uint purchasedWines)\n    {\n        return wineProducers[_wineProducerId].wines[_wineId].owners[msg.sender];\n    }\n}\n",
  "sourcePath": "/git/vintage-explorer/contracts/VintageExplorer.sol",
  "compiler": {
    "name": "solc",
    "version": "0.5.8+commit.23d335f2.Emscripten.clang"
  },
  "schemaVersion": "3.0.11",
  "updatedAt": "2019-07-31T01:08:25.493Z",
  "devdoc": {
    "author": "Keita Fukue",
    "details": "Using simple math to perform arthimetic operation.",
    "methods": {
      "addAdmin(address)": {
        "author": "Keita Fukue",
        "details": "This can only be called by Admins and when circuit breaker is not turned on.",
        "params": {
          "_a": "- address that will be added as the list of admins"
        }
      },
      "addWine(uint256,string,string,string,uint256,uint256,uint256)": {
        "author": "Keita Fukue",
        "details": "Only wine producers can add wines",
        "params": {
          "_description": "- description of the win",
          "_name": "- name of the wine",
          "_priceWei": "- price of each wine in wei",
          "_sku": "- stock keeping unit",
          "_totalSupply": "- total number of wines available",
          "_vintage": "- vintage year of the wine",
          "_wineProducerId": "- wine producer id"
        },
        "return": "returns the newly generated wine"
      },
      "addWineProducer(string,string,address)": {
        "author": "Keita Fukue",
        "details": "You can not add more than one wine producer from the same address.",
        "params": {
          "_name": "- name of the wine producer",
          "_website": "- website of the wine producer",
          "_wineProducer": "- address of the wine producer"
        },
        "return": "returns the newly generated wine producer Id"
      },
      "buyWine(uint256,uint256,uint256)": {
        "author": "Keita Fukue",
        "details": "Adds balance to the wine producer's address",
        "params": {
          "_wineId": "- wine id",
          "_wineProducerId": "- wine producer id"
        },
        "return": "wine name, wine's total supply, individual wine's price in wei, wine's total sales"
      },
      "checkIfAdmin()": {
        "author": "Keita Fukue",
        "return": "boolean true if admin"
      },
      "checkIfWineProducer()": {
        "author": "Keita Fukue",
        "return": "boolean true if wine producer"
      },
      "constructor": {
        "author": "Keita Fukue",
        "details": "This is the only way to set the owner."
      },
      "getOwnersNumberOfWines(uint256,uint256)": {
        "author": "Keita Fukue",
        "params": {
          "_wineId": "- wine id",
          "_wineProducerId": "- wine producer id"
        },
        "return": "number of wines owned by the contract caller."
      },
      "kill()": {
        "author": "Keita Fukue",
        "details": "This can only be called by the owner and the circuit breaker needs to be on."
      },
      "readWineDescription(uint256,uint256)": {
        "author": "Keita Fukue",
        "params": {
          "_wineId": "- wine id",
          "_wineProducerId": "- wine producer id"
        },
        "return": "wine name, wine description, wine sku, wine vintage"
      },
      "readWineProducerByAccount(address)": {
        "author": "Keita Fukue",
        "params": {
          "_wineProducer": "- wine producer's address"
        },
        "return": "wine producer's name, website, number of unique wines."
      },
      "readWineProducerById(uint256)": {
        "author": "Keita Fukue",
        "params": {
          "_wineProducerId": "- wine producer id"
        },
        "return": "wine producer's name, website, number of unique wines."
      },
      "readWineSalesRelated(uint256,uint256)": {
        "author": "Keita Fukue",
        "params": {
          "_wineId": "- wine id",
          "_wineProducerId": "- wine producer id"
        },
        "return": "wine name, wine's total supply, individual wine's price in wei, wine's total sales"
      },
      "stopForEmergency()": {
        "author": "Keita Fukue",
        "details": "This can only be called by the owner of the contract.",
        "return": "bool - status of stopped"
      },
      "turnOffEmergency()": {
        "author": "Keita Fukue",
        "details": "This can only be called by the owner of the contract.",
        "return": "bool - status of stopped"
      },
      "withdraw()": {
        "author": "Keita Fukue",
        "details": "Checks if the balance is greater than 0;",
        "return": "true if withdraw was successful"
      }
    },
    "title": "Vintage Explorer"
  },
  "userdoc": {
    "methods": {
      "addAdmin(address)": {
        "notice": "Adds address to the list of admins where admins can add wine producers."
      },
      "addWine(uint256,string,string,string,uint256,uint256,uint256)": {
        "notice": "Add a new wine to a specific winer producer"
      },
      "addWineProducer(string,string,address)": {
        "notice": "Add a new wine producer to this contract"
      },
      "buyWine(uint256,uint256,uint256)": {
        "notice": "Buy a certain number of wines from the wine producer."
      },
      "checkIfAdmin()": {
        "notice": "Checks if the caller is part of the admin list."
      },
      "checkIfWineProducer()": {
        "notice": "Checks if the caller is part of the wine producers list."
      },
      "constructor": "Called when the contract is created. Sets the contract creator address to owner and admin.",
      "getOwnersNumberOfWines(uint256,uint256)": {
        "notice": "Get number of wines purchased by the caller's address"
      },
      "kill()": {
        "notice": "Self destructs the contract to remove the contract from blockchain."
      },
      "readWineDescription(uint256,uint256)": {
        "notice": "Get wine information by wine producer's id and wine id"
      },
      "readWineProducerByAccount(address)": {
        "notice": "Get wine producer information by wine producer's address"
      },
      "readWineProducerById(uint256)": {
        "notice": "Get wine producer information by wine producer id"
      },
      "readWineSalesRelated(uint256,uint256)": {
        "notice": "Get wine's sales related information by wine producer's id and wine id"
      },
      "stopForEmergency()": {
        "notice": "Circuit breaker where only specific functions are allowed to be called when turned on."
      },
      "turnOffEmergency()": {
        "notice": "Turns off circuit breaker."
      },
      "withdraw()": {
        "notice": "Withdraws the balance from the wine producer."
      }
    },
    "notice": "Vintage Explorer contract keeps track of wine producers and wines on the blockchain. Buyers can manage their inventory and buy/refund wines."
  }
}