{
  "contractName": "VintageExplorer",
  "abi": [
    {
      "constant": true,
      "inputs": [],
      "name": "owner",
      "outputs": [
        {
          "name": "",
          "type": "address"
        }
      ],
      "payable": false,
      "stateMutability": "view",
      "type": "function"
    },
    {
      "constant": true,
      "inputs": [],
      "name": "idGenerator",
      "outputs": [
        {
          "name": "",
          "type": "uint256"
        }
      ],
      "payable": false,
      "stateMutability": "view",
      "type": "function"
    },
    {
      "anonymous": false,
      "inputs": [
        {
          "indexed": false,
          "name": "name",
          "type": "string"
        },
        {
          "indexed": false,
          "name": "wineProducerAddress",
          "type": "address"
        }
      ],
      "name": "LogWineProducerAdded",
      "type": "event"
    },
    {
      "anonymous": false,
      "inputs": [
        {
          "indexed": false,
          "name": "name",
          "type": "string"
        },
        {
          "indexed": false,
          "name": "wineProducerAddress",
          "type": "address"
        },
        {
          "indexed": false,
          "name": "sku",
          "type": "string"
        }
      ],
      "name": "LogWineAdded",
      "type": "event"
    },
    {
      "anonymous": false,
      "inputs": [
        {
          "indexed": false,
          "name": "buyer",
          "type": "address"
        },
        {
          "indexed": false,
          "name": "wineId",
          "type": "uint256"
        },
        {
          "indexed": false,
          "name": "numWInes",
          "type": "uint256"
        }
      ],
      "name": "LogBuyWine",
      "type": "event"
    }
  ],
  "bytecode": "0x6080604052606460015534801561001557600080fd5b5060f2806100246000396000f3fe6080604052348015600f57600080fd5b506004361060325760003560e01c80638da5cb5b146037578063e7bd92b914607f575b600080fd5b603d609b565b604051808273ffffffffffffffffffffffffffffffffffffffff1673ffffffffffffffffffffffffffffffffffffffff16815260200191505060405180910390f35b608560c0565b6040518082815260200191505060405180910390f35b6000809054906101000a900473ffffffffffffffffffffffffffffffffffffffff1681565b6002548156fea165627a7a7230582057e3d672f95d4795ba8057646c23e865172ba6c72b749cac772d7e0e9d1a7cb00029",
  "source": "pragma solidity ^0.5.0;\n\n    /*\n        The EventTicketsV2 contract keeps track of the details and ticket sales of multiple events.\n     */\ncontract VintageExplorer {\n\n    /*\n        Define an public owner variable. Set it to the creator of the contract when it is initialized.\n    */\n    address payable public owner;\n    uint   PRICE_TICKET = 100 wei;\n\n    /*\n        Create a variable to keep track of the wine ID numbers.\n    */\n    uint public idGenerator;\n    \n    /*\n        Define an Event struct, similar to the V1 of this contract.\n        The struct has 6 fields: description, website (URL), totalTickets, sales, buyers, and isOpen.\n        Choose the appropriate variable type for each field.\n        The \"buyers\" field should keep track of addresses and how many tickets each buyer purchases.\n    */\n\n    struct WineProducer {\n        string name;\n        string website;\n        address wineProducerAddress;\n        mapping (address => Wine) wines;\n        bool isOpen;\n    }\n\n    struct Wine {\n        string name;\n        WineProducer wineProducer;\n        string sku;\n        uint vintage;\n        uint totalSupply;\n        mapping (address => uint) owners;\n        bool isOpen;\n    }\n\n    /*\n        Create a mapping to keep track of the events.\n        The mapping key is an integer, the value is an Event struct.\n        Call the mapping \"events\".\n    */\n    mapping (address => WineProducer) wineProducers;\n\n    event LogWineProducerAdded(string name, address wineProducerAddress);\n    event LogWineAdded(string name, address wineProducerAddress, string sku);\n    event LogBuyWine(address buyer, uint wineId, uint numWInes);\n\n    /*\n        Create a modifier that throws an error if the msg.sender is not the owner.\n    */\n    // modifier isOwner { require(msg.sender == owner, 'msg.sender is not owner'); _; }\n\n    // modifier verifyCaller (address _address) { require (msg.sender == _address, 'msg sender is not address'); _;}\n\n    // modifier verifyWineProducer (address _address) { \n    //     require (msg.sender == _address, 'msg sender is not address');\n    //     require (wineProducers[_address], 'wine producer does not exist');\n    //     _;\n    // }\n\n    // modifier paidEnough(uint _price) { require(msg.value >= _price, 'msg value is not enough'); _;}\n\n    // constructor() public {\n    //     owner = msg.sender;\n    // }\n\n    // /*\n    //     Define a function called addEvent().\n    //     This function takes 3 parameters, an event description, a URL, and a number of tickets.\n    //     Only the contract owner should be able to call this function.\n    //     In the function:\n    //         - Set the description, URL and ticket number in a new event.\n    //         - set the event to open\n    //         - set an event ID\n    //         - increment the ID\n    //         - emit the appropriate event\n    //         - return the event's ID\n    // */\n\n    // function addWineProducer(string memory _name, string memory _website, address _wineProducerAddress)\n    //     public\n    //     isOwner()\n    // {\n    //     wineProducers[_wineProducerAddress] = WineProducer({\n    //         name : _name,\n    //         website : _website,\n    //         owner : _wineProducerAddress,\n    //         isOpen : true\n    //     });\n    //     emit LogWineProducerAdded(_name, _wineProducerAddress);\n    // }\n\n    // function addWine(address _wineProducerAddress, string memory _name, string memory _sku, uint _vintage, uint _totalSupply)\n    //     public\n    //     verifyWineProducer(_wineProducerAddress)\n    // {\n    //     wineProducers[_wineProducerAddress] = Wine({\n    //         name : _name,\n    //         sku : _sku,\n    //         vintage : _vintage,\n    //         totalSupply : _totalSupply,\n    //         isOpen : true\n    //     });\n    //     emit LogWineAdded(_name, _wineProducerAddress, _sku);\n    // }\n\n    // function removeWine(address _wineProducerAddress, string memory _name, string memory _sku, uint _vintage, uint _totalSupply)\n    //     public\n    //     verifyWineProducer(_wineProducerAddress)\n    // {\n    //     wineProducers[_wineProducerAddress] = Wine({\n    //         name : _name,\n    //         sku : _sku,\n    //         vintage : _vintage,\n    //         totalSupply : _totalSupply,\n    //         isOpen : true\n    //     });\n    //     emit LogWineAdded(_name, _wineProducerAddress, _sku);\n    // }\n\n    // /*\n    //     Define a function called readEvent().\n    //     This function takes one parameter, the event ID.\n    //     The function returns information about the event this order:\n    //         1. description\n    //         2. URL\n    //         3. ticket available\n    //         4. sales\n    //         5. isOpen\n    // */     \n    // function readEvent(uint eventId)\n    //     public\n    //     view \n    //     returns(string memory description, string memory website, uint totalTickets, uint sales, bool isOpen) \n    // {\n    //     return (\n    //         events[eventId].description,\n    //         events[eventId].website,\n    //         events[eventId].totalTickets,\n    //         events[eventId].sales,\n    //         events[eventId].isOpen\n    //     );\n    // }\n    // /*\n    //     Define a function called buyTickets().\n    //     This function allows users to buy tickets for a specific event.\n    //     This function takes 2 parameters, an event ID and a number of tickets.\n    //     The function checks:\n    //         - that the event sales are open\n    //         - that the transaction value is sufficient to purchase the number of tickets\n    //         - that there are enough tickets available to complete the purchase\n    //     The function:\n    //         - increments the purchasers ticket count\n    //         - increments the ticket sale count\n    //         - refunds any surplus value sent\n    //         - emits the appropriate event\n    // */\n\n    // function buyTickets(uint eventId, uint numberOfPurchasingTickets)\n    //     public\n    //     payable\n    // {\n        \n    //     require(events[eventId].isOpen == true, 'isOpen is false');\n    //     require(msg.value >= PRICE_TICKET * numberOfPurchasingTickets, 'not enough value sent to buy tickets');\n    //     require(events[eventId].totalTickets >= numberOfPurchasingTickets, 'Not enough tickets left');\n    //     events[eventId].buyers[msg.sender] += numberOfPurchasingTickets;\n    //     events[eventId].sales += numberOfPurchasingTickets;\n    //     events[eventId].totalTickets -= numberOfPurchasingTickets;\n    //     emit LogBuyTickets(msg.sender, eventId, numberOfPurchasingTickets);\n    //     if(msg.value - PRICE_TICKET*numberOfPurchasingTickets > 0){\n    //         uint amountToRefund = msg.value - PRICE_TICKET * numberOfPurchasingTickets;\n    //         msg.sender.transfer(amountToRefund);\n    //         emit LogGetRefund(msg.sender, eventId, amountToRefund);\n    //     }\n    // }\n\n    // /*\n    //     Define a function called getRefund().\n    //     This function allows users to request a refund for a specific event.\n    //     This function takes one parameter, the event ID.\n    //     TODO:\n    //         - check that a user has purchased tickets for the event\n    //         - remove refunded tickets from the sold count\n    //         - send appropriate value to the refund requester\n    //         - emit the appropriate event\n    // */\n\n    // function getRefund(uint eventId)\n    //     public\n    // {\n    //     uint numberOfTickets = events[eventId].buyers[msg.sender];\n    //     require(numberOfTickets > 0, 'not enough tickets');\n    //     uint amountToRefund = PRICE_TICKET * numberOfTickets;\n    //     msg.sender.transfer(amountToRefund);\n    //     emit LogGetRefund(msg.sender, eventId, amountToRefund);\n    //     events[eventId].buyers[msg.sender] -= numberOfTickets;\n    //     events[eventId].sales -= numberOfTickets;\n    //     events[eventId].totalTickets += numberOfTickets;\n    // }\n\n    // /*\n    //     Define a function called getBuyerNumberTickets()\n    //     This function takes one parameter, an event ID\n    //     This function returns a uint, the number of tickets that the msg.sender has purchased.\n    // */\n    // function getBuyerNumberTickets(uint eventId)\n    //     public\n    //     view \n    //     returns(uint purchasedTickets) \n    // {\n    //     return events[eventId].buyers[msg.sender];\n    // }\n    // /*\n    //     Define a function called endSale()\n    //     This function takes one parameter, the event ID\n    //     Only the contract owner can call this function\n    //     TODO:\n    //         - close event sales\n    //         - transfer the balance from those event sales to the contract owner\n    //         - emit the appropriate event\n    // */\n    // function endSale(uint eventId)\n    //     public\n    //     isOwner()\n    // {\n    //     events[eventId].isOpen = false;\n    //     uint balance = address(this).balance;\n    //     owner.transfer(balance);\n    //     emit LogEndSale(msg.sender, balance, eventId);\n    // }\n}\n",
  "sourcePath": "/git/vintage-explorer/contracts/VintageExplorer.sol",
  "compiler": {
    "name": "solc",
    "version": "0.5.8+commit.23d335f2.Emscripten.clang"
  },
  "schemaVersion": "3.0.11",
  "updatedAt": "2019-07-14T23:49:34.682Z",
  "devdoc": {
    "methods": {}
  },
  "userdoc": {
    "methods": {}
  }
}